{
  "contractName": "Ballot",
  "abi": [
    {
      "inputs": [
        {
          "internalType": "string",
          "name": "_location",
          "type": "string"
        },
        {
          "internalType": "string[]",
          "name": "_name",
          "type": "string[]"
        },
        {
          "internalType": "address[]",
          "name": "_walletAddress",
          "type": "address[]"
        },
        {
          "internalType": "uint256[]",
          "name": "_position",
          "type": "uint256[]"
        }
      ],
      "payable": false,
      "stateMutability": "nonpayable",
      "type": "constructor"
    },
    {
      "constant": true,
      "inputs": [
        {
          "internalType": "uint256",
          "name": "",
          "type": "uint256"
        }
      ],
      "name": "candidatelist",
      "outputs": [
        {
          "internalType": "string",
          "name": "name",
          "type": "string"
        },
        {
          "internalType": "address",
          "name": "walletAddress",
          "type": "address"
        },
        {
          "internalType": "uint256",
          "name": "position",
          "type": "uint256"
        }
      ],
      "payable": false,
      "stateMutability": "view",
      "type": "function"
    },
    {
      "constant": false,
      "inputs": [
        {
          "internalType": "address[]",
          "name": "_walletAddress",
          "type": "address[]"
        },
        {
          "internalType": "uint256[]",
          "name": "_position",
          "type": "uint256[]"
        }
      ],
      "name": "vote",
      "outputs": [],
      "payable": false,
      "stateMutability": "nonpayable",
      "type": "function"
    },
    {
      "constant": true,
      "inputs": [],
      "name": "listCandidates",
      "outputs": [
        {
          "internalType": "string[]",
          "name": "",
          "type": "string[]"
        }
      ],
      "payable": false,
      "stateMutability": "view",
      "type": "function"
    }
  ],
  "bytecode": "0x60806040523480156200001157600080fd5b506040516200134538038062001345833981810160405262000037919081019062000539565b83600090805190602001906200004f92919062000186565b5060008090505b83518110156200017b57600260405180606001604052808684815181106200007a57fe5b602002602001015181526020018584815181106200009457fe5b602002602001015173ffffffffffffffffffffffffffffffffffffffff168152602001848481518110620000c457fe5b6020026020010151815250908060018154018082558091505090600182039060005260206000209060030201600090919290919091506000820151816000019080519060200190620001189291906200020d565b5060208201518160010160006101000a81548173ffffffffffffffffffffffffffffffffffffffff021916908373ffffffffffffffffffffffffffffffffffffffff16021790555060408201518160020155505050808060010191505062000056565b5050505050620007b4565b828054600181600116156101000203166002900490600052602060002090601f016020900481019282601f10620001c957805160ff1916838001178555620001fa565b82800160010185558215620001fa579182015b82811115620001f9578251825591602001919060010190620001dc565b5b50905062000209919062000294565b5090565b828054600181600116156101000203166002900490600052602060002090601f016020900481019282601f106200025057805160ff191683800117855562000281565b8280016001018555821562000281579182015b828111156200028057825182559160200191906001019062000263565b5b50905062000290919062000294565b5090565b620002b991905b80821115620002b55760008160009055506001016200029b565b5090565b90565b600081519050620002cd8162000780565b92915050565b600082601f830112620002e557600080fd5b8151620002fc620002f68262000637565b62000609565b915081818352602084019350602081019050838560208402820111156200032257600080fd5b60005b838110156200035657816200033b8882620002bc565b84526020840193506020830192505060018101905062000325565b5050505092915050565b600082601f8301126200037257600080fd5b815162000389620003838262000660565b62000609565b9150818183526020840193506020810190508360005b83811015620003d35781518601620003b888826200046a565b8452602084019350602083019250506001810190506200039f565b5050505092915050565b600082601f830112620003ef57600080fd5b815162000406620004008262000689565b62000609565b915081818352602084019350602081019050838560208402820111156200042c57600080fd5b60005b8381101562000460578162000445888262000522565b8452602084019350602083019250506001810190506200042f565b5050505092915050565b600082601f8301126200047c57600080fd5b8151620004936200048d82620006b2565b62000609565b91508082526020830160208301858383011115620004b057600080fd5b620004bd8382846200074a565b50505092915050565b600082601f830112620004d857600080fd5b8151620004ef620004e982620006df565b62000609565b915080825260208301602083018583830111156200050c57600080fd5b620005198382846200074a565b50505092915050565b60008151905062000533816200079a565b92915050565b600080600080608085870312156200055057600080fd5b600085015167ffffffffffffffff8111156200056b57600080fd5b6200057987828801620004c6565b945050602085015167ffffffffffffffff8111156200059757600080fd5b620005a58782880162000360565b935050604085015167ffffffffffffffff811115620005c357600080fd5b620005d187828801620002d3565b925050606085015167ffffffffffffffff811115620005ef57600080fd5b620005fd87828801620003dd565b91505092959194509250565b6000604051905081810181811067ffffffffffffffff821117156200062d57600080fd5b8060405250919050565b600067ffffffffffffffff8211156200064f57600080fd5b602082029050602081019050919050565b600067ffffffffffffffff8211156200067857600080fd5b602082029050602081019050919050565b600067ffffffffffffffff821115620006a157600080fd5b602082029050602081019050919050565b600067ffffffffffffffff821115620006ca57600080fd5b601f19601f8301169050602081019050919050565b600067ffffffffffffffff821115620006f757600080fd5b601f19601f8301169050602081019050919050565b6000620007198262000720565b9050919050565b600073ffffffffffffffffffffffffffffffffffffffff82169050919050565b6000819050919050565b60005b838110156200076a5780820151818401526020810190506200074d565b838111156200077a576000848401525b50505050565b6200078b816200070c565b81146200079757600080fd5b50565b620007a58162000740565b8114620007b157600080fd5b50565b610b8180620007c46000396000f3fe608060405234801561001057600080fd5b50600436106100415760003560e01c80636f816a2014610046578063911eb81d14610062578063f0f5274e14610094575b600080fd5b610060600480360361005b9190810190610709565b6100b2565b005b61007c6004803603610077919081019061079e565b6103a4565b60405161008b9392919061093a565b60405180910390f35b61009c610493565b6040516100a99190610918565b60405180910390f35b60008090505b825181101561039f5760018282815181106100cf57fe5b602002602001015114156101bb57600180815481106100ea57fe5b9060005260206000200160009054906101000a900473ffffffffffffffffffffffffffffffffffffffff1673ffffffffffffffffffffffffffffffffffffffff1663a9059cbb84838151811061013c57fe5b602002602001015160016040518363ffffffff1660e01b81526004016101639291906108ef565b602060405180830381600087803b15801561017d57600080fd5b505af1158015610191573d6000803e3d6000fd5b505050506040513d601f19601f820116820180604052506101b59190810190610775565b50610392565b60028282815181106101c957fe5b602002602001015114156102b65760016002815481106101e557fe5b9060005260206000200160009054906101000a900473ffffffffffffffffffffffffffffffffffffffff1673ffffffffffffffffffffffffffffffffffffffff1663a9059cbb84838151811061023757fe5b602002602001015160016040518363ffffffff1660e01b815260040161025e9291906108ef565b602060405180830381600087803b15801561027857600080fd5b505af115801561028c573d6000803e3d6000fd5b505050506040513d601f19601f820116820180604052506102b09190810190610775565b50610391565b60016003815481106102c457fe5b9060005260206000200160009054906101000a900473ffffffffffffffffffffffffffffffffffffffff1673ffffffffffffffffffffffffffffffffffffffff1663a9059cbb84838151811061031657fe5b602002602001015160016040518363ffffffff1660e01b815260040161033d9291906108ef565b602060405180830381600087803b15801561035757600080fd5b505af115801561036b573d6000803e3d6000fd5b505050506040513d601f19601f8201168201806040525061038f9190810190610775565b505b5b80806001019150506100b8565b505050565b600281815481106103b157fe5b9060005260206000209060030201600091509050806000018054600181600116156101000203166002900480601f01602080910402602001604051908101604052809291908181526020018280546001816001161561010002031660029004801561045d5780601f106104325761010080835404028352916020019161045d565b820191906000526020600020905b81548152906001019060200180831161044057829003601f168201915b5050505050908060010160009054906101000a900473ffffffffffffffffffffffffffffffffffffffff16908060020154905083565b606080600a6040519080825280602002602001820160405280156104cb57816020015b60608152602001906001900390816104b65790505b50905060008090505b6002805490508110156105bc57600281815481106104ee57fe5b90600052602060002090600302016000018054600181600116156101000203166002900480601f0160208091040260200160405190810160405280929190818152602001828054600181600116156101000203166002900480156105935780601f1061056857610100808354040283529160200191610593565b820191906000526020600020905b81548152906001019060200180831161057657829003601f168201915b50505050508282815181106105a457fe5b602002602001018190525080806001019150506104d4565b508091505090565b6000813590506105d381610af9565b92915050565b600082601f8301126105ea57600080fd5b81356105fd6105f8826109a5565b610978565b9150818183526020840193506020810190508385602084028201111561062257600080fd5b60005b83811015610652578161063888826105c4565b845260208401935060208301925050600181019050610625565b5050505092915050565b600082601f83011261066d57600080fd5b813561068061067b826109cd565b610978565b915081818352602084019350602081019050838560208402820111156106a557600080fd5b60005b838110156106d557816106bb88826106f4565b8452602084019350602083019250506001810190506106a8565b5050505092915050565b6000815190506106ee81610b10565b92915050565b60008135905061070381610b27565b92915050565b6000806040838503121561071c57600080fd5b600083013567ffffffffffffffff81111561073657600080fd5b610742858286016105d9565b925050602083013567ffffffffffffffff81111561075f57600080fd5b61076b8582860161065c565b9150509250929050565b60006020828403121561078757600080fd5b6000610795848285016106df565b91505092915050565b6000602082840312156107b057600080fd5b60006107be848285016106f4565b91505092915050565b60006107d3838361086e565b905092915050565b6107e481610a5b565b82525050565b60006107f582610a05565b6107ff8185610a28565b935083602082028501610811856109f5565b8060005b8581101561084d578484038952815161082e85826107c7565b945061083983610a1b565b925060208a01995050600181019050610815565b50829750879550505050505092915050565b61086881610aa3565b82525050565b600061087982610a10565b6108838185610a39565b9350610893818560208601610ab5565b61089c81610ae8565b840191505092915050565b60006108b282610a10565b6108bc8185610a4a565b93506108cc818560208601610ab5565b6108d581610ae8565b840191505092915050565b6108e981610a99565b82525050565b600060408201905061090460008301856107db565b610911602083018461085f565b9392505050565b6000602082019050818103600083015261093281846107ea565b905092915050565b6000606082019050818103600083015261095481866108a7565b905061096360208301856107db565b61097060408301846108e0565b949350505050565b6000604051905081810181811067ffffffffffffffff8211171561099b57600080fd5b8060405250919050565b600067ffffffffffffffff8211156109bc57600080fd5b602082029050602081019050919050565b600067ffffffffffffffff8211156109e457600080fd5b602082029050602081019050919050565b6000819050602082019050919050565b600081519050919050565b600081519050919050565b6000602082019050919050565b600082825260208201905092915050565b600082825260208201905092915050565b600082825260208201905092915050565b6000610a6682610a79565b9050919050565b60008115159050919050565b600073ffffffffffffffffffffffffffffffffffffffff82169050919050565b6000819050919050565b6000610aae82610a99565b9050919050565b60005b83811015610ad3578082015181840152602081019050610ab8565b83811115610ae2576000848401525b50505050565b6000601f19601f8301169050919050565b610b0281610a5b565b8114610b0d57600080fd5b50565b610b1981610a6d565b8114610b2457600080fd5b50565b610b3081610a99565b8114610b3b57600080fd5b5056fea365627a7a72315820692ac003b99fa0a61ad0c4b694290dd5bdc11ab9ccc9359d7ccb118634e2f6dd6c6578706572696d656e74616cf564736f6c63430005100040",
  "source": "pragma solidity >=0.4.22 <0.6.0;\npragma experimental ABIEncoderV2;\n\nimport \"./voterToken.sol\";\ncontract Ballot{\n    string location;\n    voterToken[] token;\n    \n    struct candidate{\n        string name;\n        address walletAddress;\n        uint256 position;\n    }\n    candidate[] public candidatelist;\n    \n    constructor(string memory _location,\n    string[] memory _name,\n    address[] memory _walletAddress, \n    uint256[] memory _position)public{\n        location = _location;\n        for(uint i = 0;i < _name.length;i++){\n            candidatelist.push(candidate({\n               name: _name[i],\n               walletAddress: _walletAddress[i],\n               position: _position[i]\n            }));\n        }\n    }\n    \n    function vote(address[] memory _walletAddress,uint256[] memory _position) public{\n        for(uint i =0; i < _walletAddress.length;i++){\n                if(_position[i] == 1){\n                    token[1].transfer(_walletAddress[i],1);\n                }\n                else if(_position[i] == 2){\n                    token[2].transfer(_walletAddress[i],1);\n                }\n                else{\n                    token[3].transfer(_walletAddress[i],1);\n                }\n        }\n    }\n    /**************************************DEBUG**********************************************/\n    function listCandidates()public view returns(string[] memory){\n        string[] memory _candidates = new string[](10);\n        for(uint i = 0;i < candidatelist.length;i++)\n            _candidates[i] = candidatelist[i].name;\n        return _candidates;\n    }\n    \n}\n",
  "sourcePath": "/home/ryan/Desktop/CoE-198/src/contracts/Ballot.sol",
  "compiler": {
    "name": "solc",
    "version": "0.5.16+commit.9c3226ce.Emscripten.clang"
  },
  "schemaVersion": "3.0.22",
  "updatedAt": "2020-03-19T02:15:55.886Z",
  "devdoc": {
    "methods": {}
  },
  "userdoc": {
    "methods": {
      "listCandidates()": {
        "notice": "************************************DEBUG*********************************************"
      }
    }
  }
}