{
  "contractName": "createElection",
  "abi": [
    {
      "inputs": [],
      "payable": false,
      "stateMutability": "nonpayable",
      "type": "constructor"
    },
    {
      "constant": false,
      "inputs": [
        {
          "internalType": "string[]",
          "name": "_name",
          "type": "string[]"
        },
        {
          "internalType": "string[]",
          "name": "_symbol",
          "type": "string[]"
        },
        {
          "internalType": "uint256[]",
          "name": "_totalVote",
          "type": "uint256[]"
        }
      ],
      "name": "createToken",
      "outputs": [
        {
          "internalType": "uint256[]",
          "name": "",
          "type": "uint256[]"
        }
      ],
      "payable": false,
      "stateMutability": "nonpayable",
      "type": "function"
    },
    {
      "constant": false,
      "inputs": [
        {
          "internalType": "string",
          "name": "_location",
          "type": "string"
        },
        {
          "internalType": "string[]",
          "name": "_candidtates",
          "type": "string[]"
        },
        {
          "internalType": "address[]",
          "name": "_address",
          "type": "address[]"
        },
        {
          "internalType": "uint256[]",
          "name": "_positions",
          "type": "uint256[]"
        }
      ],
      "name": "createBallot",
      "outputs": [],
      "payable": false,
      "stateMutability": "nonpayable",
      "type": "function"
    }
  ],
  "bytecode": "0x608060405234801561001057600080fd5b50336000806101000a81548173ffffffffffffffffffffffffffffffffffffffff021916908373ffffffffffffffffffffffffffffffffffffffff1602179055506127c7806100606000396000f3fe60806040523480156200001157600080fd5b50600436106200003a5760003560e01c80632747aae2146200003f57806353c24b92146200005f575b600080fd5b6200005d600480360362000057919081019062000638565b62000095565b005b6200007d600480360362000077919081019062000597565b62000198565b6040516200008c9190620009ed565b60405180910390f35b6000809054906101000a900473ffffffffffffffffffffffffffffffffffffffff1673ffffffffffffffffffffffffffffffffffffffff163373ffffffffffffffffffffffffffffffffffffffff1614620000ef57600080fd5b6000848484846040516200010390620002fe565b62000112949392919062000a11565b604051809103906000f0801580156200012f573d6000803e3d6000fd5b50905080600286604051620001459190620009d4565b908152602001604051809103902060006101000a81548173ffffffffffffffffffffffffffffffffffffffff021916908373ffffffffffffffffffffffffffffffffffffffff1602179055505050505050565b60606000809054906101000a900473ffffffffffffffffffffffffffffffffffffffff1673ffffffffffffffffffffffffffffffffffffffff163373ffffffffffffffffffffffffffffffffffffffff1614620001f457600080fd5b60008090505b8451811015620002f65760008582815181106200021357fe5b60200260200101518583815181106200022857fe5b60200260200101518584815181106200023d57fe5b602002602001015160405162000253906200030c565b620002619392919062000a7a565b604051809103906000f0801580156200027e573d6000803e3d6000fd5b50905060018190806001815401808255809150509060018203906000526020600020016000909192909190916101000a81548173ffffffffffffffffffffffffffffffffffffffff021916908373ffffffffffffffffffffffffffffffffffffffff16021790555050508080600101915050620001fa565b509392505050565b6113458062000d7f83390190565b6106c180620020c483390190565b6000813590506200032b8162000d4a565b92915050565b600082601f8301126200034357600080fd5b81356200035a620003548262000af3565b62000ac5565b915081818352602084019350602081019050838560208402820111156200038057600080fd5b60005b83811015620003b457816200039988826200031a565b84526020840193506020830192505060018101905062000383565b5050505092915050565b600082601f830112620003d057600080fd5b8135620003e7620003e18262000b1c565b62000ac5565b9150818183526020840193506020810190508360005b83811015620004315781358601620004168882620004c8565b845260208401935060208301925050600181019050620003fd565b5050505092915050565b600082601f8301126200044d57600080fd5b8135620004646200045e8262000b45565b62000ac5565b915081818352602084019350602081019050838560208402820111156200048a57600080fd5b60005b83811015620004be5781620004a3888262000580565b8452602084019350602083019250506001810190506200048d565b5050505092915050565b600082601f830112620004da57600080fd5b8135620004f1620004eb8262000b6e565b62000ac5565b915080825260208301602083018583830111156200050e57600080fd5b6200051b83828462000cf4565b50505092915050565b600082601f8301126200053657600080fd5b81356200054d620005478262000b9b565b62000ac5565b915080825260208301602083018583830111156200056a57600080fd5b6200057783828462000cf4565b50505092915050565b600081359050620005918162000d64565b92915050565b600080600060608486031215620005ad57600080fd5b600084013567ffffffffffffffff811115620005c857600080fd5b620005d686828701620003be565b935050602084013567ffffffffffffffff811115620005f457600080fd5b6200060286828701620003be565b925050604084013567ffffffffffffffff8111156200062057600080fd5b6200062e868287016200043b565b9150509250925092565b600080600080608085870312156200064f57600080fd5b600085013567ffffffffffffffff8111156200066a57600080fd5b620006788782880162000524565b945050602085013567ffffffffffffffff8111156200069657600080fd5b620006a487828801620003be565b935050604085013567ffffffffffffffff811115620006c257600080fd5b620006d08782880162000331565b925050606085013567ffffffffffffffff811115620006ee57600080fd5b620006fc878288016200043b565b91505092959194509250565b600062000716838362000752565b60208301905092915050565b600062000730838362000930565b905092915050565b6000620007468383620009b2565b60208301905092915050565b6200075d8162000cb6565b82525050565b6000620007708262000bf8565b6200077c818562000c56565b9350620007898362000bc8565b8060005b83811015620007c0578151620007a4888262000708565b9750620007b18362000c2f565b9250506001810190506200078d565b5085935050505092915050565b6000620007da8262000c03565b620007e6818562000c67565b935083602082028501620007fa8562000bd8565b8060005b858110156200083c57848403895281516200081a858262000722565b9450620008278362000c3c565b925060208a01995050600181019050620007fe565b50829750879550505050505092915050565b60006200085b8262000c0e565b62000867818562000c78565b9350620008748362000be8565b8060005b83811015620008ab5781516200088f888262000738565b97506200089c8362000c49565b92505060018101905062000878565b5085935050505092915050565b6000620008c58262000c24565b620008d1818562000c9a565b9350620008e381856020860162000d03565b620008ee8162000d39565b840191505092915050565b6000620009068262000c24565b62000912818562000cab565b93506200092481856020860162000d03565b80840191505092915050565b60006200093d8262000c19565b62000949818562000c89565b93506200095b81856020860162000d03565b620009668162000d39565b840191505092915050565b60006200097e8262000c19565b6200098a818562000c9a565b93506200099c81856020860162000d03565b620009a78162000d39565b840191505092915050565b620009bd8162000cea565b82525050565b620009ce8162000cea565b82525050565b6000620009e28284620008f9565b915081905092915050565b6000602082019050818103600083015262000a0981846200084e565b905092915050565b6000608082019050818103600083015262000a2d8187620008b8565b9050818103602083015262000a438186620007cd565b9050818103604083015262000a59818562000763565b9050818103606083015262000a6f81846200084e565b905095945050505050565b6000606082019050818103600083015262000a96818662000971565b9050818103602083015262000aac818562000971565b905062000abd6040830184620009c3565b949350505050565b6000604051905081810181811067ffffffffffffffff8211171562000ae957600080fd5b8060405250919050565b600067ffffffffffffffff82111562000b0b57600080fd5b602082029050602081019050919050565b600067ffffffffffffffff82111562000b3457600080fd5b602082029050602081019050919050565b600067ffffffffffffffff82111562000b5d57600080fd5b602082029050602081019050919050565b600067ffffffffffffffff82111562000b8657600080fd5b601f19601f8301169050602081019050919050565b600067ffffffffffffffff82111562000bb357600080fd5b601f19601f8301169050602081019050919050565b6000819050602082019050919050565b6000819050602082019050919050565b6000819050602082019050919050565b600081519050919050565b600081519050919050565b600081519050919050565b600081519050919050565b600081519050919050565b6000602082019050919050565b6000602082019050919050565b6000602082019050919050565b600082825260208201905092915050565b600082825260208201905092915050565b600082825260208201905092915050565b600082825260208201905092915050565b600082825260208201905092915050565b600081905092915050565b600062000cc38262000cca565b9050919050565b600073ffffffffffffffffffffffffffffffffffffffff82169050919050565b6000819050919050565b82818337600083830152505050565b60005b8381101562000d2357808201518184015260208101905062000d06565b8381111562000d33576000848401525b50505050565b6000601f19601f8301169050919050565b62000d558162000cb6565b811462000d6157600080fd5b50565b62000d6f8162000cea565b811462000d7b57600080fd5b5056fe60806040523480156200001157600080fd5b506040516200134538038062001345833981810160405262000037919081019062000539565b83600090805190602001906200004f92919062000186565b5060008090505b83518110156200017b57600260405180606001604052808684815181106200007a57fe5b602002602001015181526020018584815181106200009457fe5b602002602001015173ffffffffffffffffffffffffffffffffffffffff168152602001848481518110620000c457fe5b6020026020010151815250908060018154018082558091505090600182039060005260206000209060030201600090919290919091506000820151816000019080519060200190620001189291906200020d565b5060208201518160010160006101000a81548173ffffffffffffffffffffffffffffffffffffffff021916908373ffffffffffffffffffffffffffffffffffffffff16021790555060408201518160020155505050808060010191505062000056565b5050505050620007b4565b828054600181600116156101000203166002900490600052602060002090601f016020900481019282601f10620001c957805160ff1916838001178555620001fa565b82800160010185558215620001fa579182015b82811115620001f9578251825591602001919060010190620001dc565b5b50905062000209919062000294565b5090565b828054600181600116156101000203166002900490600052602060002090601f016020900481019282601f106200025057805160ff191683800117855562000281565b8280016001018555821562000281579182015b828111156200028057825182559160200191906001019062000263565b5b50905062000290919062000294565b5090565b620002b991905b80821115620002b55760008160009055506001016200029b565b5090565b90565b600081519050620002cd8162000780565b92915050565b600082601f830112620002e557600080fd5b8151620002fc620002f68262000637565b62000609565b915081818352602084019350602081019050838560208402820111156200032257600080fd5b60005b838110156200035657816200033b8882620002bc565b84526020840193506020830192505060018101905062000325565b5050505092915050565b600082601f8301126200037257600080fd5b815162000389620003838262000660565b62000609565b9150818183526020840193506020810190508360005b83811015620003d35781518601620003b888826200046a565b8452602084019350602083019250506001810190506200039f565b5050505092915050565b600082601f830112620003ef57600080fd5b815162000406620004008262000689565b62000609565b915081818352602084019350602081019050838560208402820111156200042c57600080fd5b60005b8381101562000460578162000445888262000522565b8452602084019350602083019250506001810190506200042f565b5050505092915050565b600082601f8301126200047c57600080fd5b8151620004936200048d82620006b2565b62000609565b91508082526020830160208301858383011115620004b057600080fd5b620004bd8382846200074a565b50505092915050565b600082601f830112620004d857600080fd5b8151620004ef620004e982620006df565b62000609565b915080825260208301602083018583830111156200050c57600080fd5b620005198382846200074a565b50505092915050565b60008151905062000533816200079a565b92915050565b600080600080608085870312156200055057600080fd5b600085015167ffffffffffffffff8111156200056b57600080fd5b6200057987828801620004c6565b945050602085015167ffffffffffffffff8111156200059757600080fd5b620005a58782880162000360565b935050604085015167ffffffffffffffff811115620005c357600080fd5b620005d187828801620002d3565b925050606085015167ffffffffffffffff811115620005ef57600080fd5b620005fd87828801620003dd565b91505092959194509250565b6000604051905081810181811067ffffffffffffffff821117156200062d57600080fd5b8060405250919050565b600067ffffffffffffffff8211156200064f57600080fd5b602082029050602081019050919050565b600067ffffffffffffffff8211156200067857600080fd5b602082029050602081019050919050565b600067ffffffffffffffff821115620006a157600080fd5b602082029050602081019050919050565b600067ffffffffffffffff821115620006ca57600080fd5b601f19601f8301169050602081019050919050565b600067ffffffffffffffff821115620006f757600080fd5b601f19601f8301169050602081019050919050565b6000620007198262000720565b9050919050565b600073ffffffffffffffffffffffffffffffffffffffff82169050919050565b6000819050919050565b60005b838110156200076a5780820151818401526020810190506200074d565b838111156200077a576000848401525b50505050565b6200078b816200070c565b81146200079757600080fd5b50565b620007a58162000740565b8114620007b157600080fd5b50565b610b8180620007c46000396000f3fe608060405234801561001057600080fd5b50600436106100415760003560e01c80636f816a2014610046578063911eb81d14610062578063f0f5274e14610094575b600080fd5b610060600480360361005b9190810190610709565b6100b2565b005b61007c6004803603610077919081019061079e565b6103a4565b60405161008b9392919061093a565b60405180910390f35b61009c610493565b6040516100a99190610918565b60405180910390f35b60008090505b825181101561039f5760018282815181106100cf57fe5b602002602001015114156101bb57600180815481106100ea57fe5b9060005260206000200160009054906101000a900473ffffffffffffffffffffffffffffffffffffffff1673ffffffffffffffffffffffffffffffffffffffff1663a9059cbb84838151811061013c57fe5b602002602001015160016040518363ffffffff1660e01b81526004016101639291906108ef565b602060405180830381600087803b15801561017d57600080fd5b505af1158015610191573d6000803e3d6000fd5b505050506040513d601f19601f820116820180604052506101b59190810190610775565b50610392565b60028282815181106101c957fe5b602002602001015114156102b65760016002815481106101e557fe5b9060005260206000200160009054906101000a900473ffffffffffffffffffffffffffffffffffffffff1673ffffffffffffffffffffffffffffffffffffffff1663a9059cbb84838151811061023757fe5b602002602001015160016040518363ffffffff1660e01b815260040161025e9291906108ef565b602060405180830381600087803b15801561027857600080fd5b505af115801561028c573d6000803e3d6000fd5b505050506040513d601f19601f820116820180604052506102b09190810190610775565b50610391565b60016003815481106102c457fe5b9060005260206000200160009054906101000a900473ffffffffffffffffffffffffffffffffffffffff1673ffffffffffffffffffffffffffffffffffffffff1663a9059cbb84838151811061031657fe5b602002602001015160016040518363ffffffff1660e01b815260040161033d9291906108ef565b602060405180830381600087803b15801561035757600080fd5b505af115801561036b573d6000803e3d6000fd5b505050506040513d601f19601f8201168201806040525061038f9190810190610775565b505b5b80806001019150506100b8565b505050565b600281815481106103b157fe5b9060005260206000209060030201600091509050806000018054600181600116156101000203166002900480601f01602080910402602001604051908101604052809291908181526020018280546001816001161561010002031660029004801561045d5780601f106104325761010080835404028352916020019161045d565b820191906000526020600020905b81548152906001019060200180831161044057829003601f168201915b5050505050908060010160009054906101000a900473ffffffffffffffffffffffffffffffffffffffff16908060020154905083565b606080600a6040519080825280602002602001820160405280156104cb57816020015b60608152602001906001900390816104b65790505b50905060008090505b6002805490508110156105bc57600281815481106104ee57fe5b90600052602060002090600302016000018054600181600116156101000203166002900480601f0160208091040260200160405190810160405280929190818152602001828054600181600116156101000203166002900480156105935780601f1061056857610100808354040283529160200191610593565b820191906000526020600020905b81548152906001019060200180831161057657829003601f168201915b50505050508282815181106105a457fe5b602002602001018190525080806001019150506104d4565b508091505090565b6000813590506105d381610af9565b92915050565b600082601f8301126105ea57600080fd5b81356105fd6105f8826109a5565b610978565b9150818183526020840193506020810190508385602084028201111561062257600080fd5b60005b83811015610652578161063888826105c4565b845260208401935060208301925050600181019050610625565b5050505092915050565b600082601f83011261066d57600080fd5b813561068061067b826109cd565b610978565b915081818352602084019350602081019050838560208402820111156106a557600080fd5b60005b838110156106d557816106bb88826106f4565b8452602084019350602083019250506001810190506106a8565b5050505092915050565b6000815190506106ee81610b10565b92915050565b60008135905061070381610b27565b92915050565b6000806040838503121561071c57600080fd5b600083013567ffffffffffffffff81111561073657600080fd5b610742858286016105d9565b925050602083013567ffffffffffffffff81111561075f57600080fd5b61076b8582860161065c565b9150509250929050565b60006020828403121561078757600080fd5b6000610795848285016106df565b91505092915050565b6000602082840312156107b057600080fd5b60006107be848285016106f4565b91505092915050565b60006107d3838361086e565b905092915050565b6107e481610a5b565b82525050565b60006107f582610a05565b6107ff8185610a28565b935083602082028501610811856109f5565b8060005b8581101561084d578484038952815161082e85826107c7565b945061083983610a1b565b925060208a01995050600181019050610815565b50829750879550505050505092915050565b61086881610aa3565b82525050565b600061087982610a10565b6108838185610a39565b9350610893818560208601610ab5565b61089c81610ae8565b840191505092915050565b60006108b282610a10565b6108bc8185610a4a565b93506108cc818560208601610ab5565b6108d581610ae8565b840191505092915050565b6108e981610a99565b82525050565b600060408201905061090460008301856107db565b610911602083018461085f565b9392505050565b6000602082019050818103600083015261093281846107ea565b905092915050565b6000606082019050818103600083015261095481866108a7565b905061096360208301856107db565b61097060408301846108e0565b949350505050565b6000604051905081810181811067ffffffffffffffff8211171561099b57600080fd5b8060405250919050565b600067ffffffffffffffff8211156109bc57600080fd5b602082029050602081019050919050565b600067ffffffffffffffff8211156109e457600080fd5b602082029050602081019050919050565b6000819050602082019050919050565b600081519050919050565b600081519050919050565b6000602082019050919050565b600082825260208201905092915050565b600082825260208201905092915050565b600082825260208201905092915050565b6000610a6682610a79565b9050919050565b60008115159050919050565b600073ffffffffffffffffffffffffffffffffffffffff82169050919050565b6000819050919050565b6000610aae82610a99565b9050919050565b60005b83811015610ad3578082015181840152602081019050610ab8565b83811115610ae2576000848401525b50505050565b6000601f19601f8301169050919050565b610b0281610a5b565b8114610b0d57600080fd5b50565b610b1981610a6d565b8114610b2457600080fd5b50565b610b3081610a99565b8114610b3b57600080fd5b5056fea365627a7a72315820692ac003b99fa0a61ad0c4b694290dd5bdc11ab9ccc9359d7ccb118634e2f6dd6c6578706572696d656e74616cf564736f6c63430005100040608060405234801561001057600080fd5b506040516106c13803806106c18339818101604052606081101561003357600080fd5b810190808051604051939291908464010000000082111561005357600080fd5b8382019150602082018581111561006957600080fd5b825186600182028301116401000000008211171561008657600080fd5b8083526020830192505050908051906020019080838360005b838110156100ba57808201518184015260208101905061009f565b50505050905090810190601f1680156100e75780820380516001836020036101000a031916815260200191505b506040526020018051604051939291908464010000000082111561010a57600080fd5b8382019150602082018581111561012057600080fd5b825186600182028301116401000000008211171561013d57600080fd5b8083526020830192505050908051906020019080838360005b83811015610171578082015181840152602081019050610156565b50505050905090810190601f16801561019e5780820380516001836020036101000a031916815260200191505b5060405260200180519060200190929190505050336000806101000a81548173ffffffffffffffffffffffffffffffffffffffff021916908373ffffffffffffffffffffffffffffffffffffffff1602179055508260019080519060200190610208929190610273565b50816002908051906020019061021f929190610273565b508060038190555080600460003373ffffffffffffffffffffffffffffffffffffffff1673ffffffffffffffffffffffffffffffffffffffff16815260200190815260200160002081905550505050610318565b828054600181600116156101000203166002900490600052602060002090601f016020900481019282601f106102b457805160ff19168380011785556102e2565b828001600101855582156102e2579182015b828111156102e15782518255916020019190600101906102c6565b5b5090506102ef91906102f3565b5090565b61031591905b808211156103115760008160009055506001016102f9565b5090565b90565b61039a806103276000396000f3fe608060405234801561001057600080fd5b50600436106100415760003560e01c806370a0823114610046578063a9059cbb1461009e578063e3d670d714610104575b600080fd5b6100886004803603602081101561005c57600080fd5b81019080803573ffffffffffffffffffffffffffffffffffffffff16906020019092919050505061015c565b6040518082815260200191505060405180910390f35b6100ea600480360360408110156100b457600080fd5b81019080803573ffffffffffffffffffffffffffffffffffffffff169060200190929190803590602001909291905050506101a5565b604051808215151515815260200191505060405180910390f35b6101466004803603602081101561011a57600080fd5b81019080803573ffffffffffffffffffffffffffffffffffffffff16906020019092919050505061034d565b6040518082815260200191505060405180910390f35b6000600460008373ffffffffffffffffffffffffffffffffffffffff1673ffffffffffffffffffffffffffffffffffffffff168152602001908152602001600020549050919050565b600081600460003373ffffffffffffffffffffffffffffffffffffffff1673ffffffffffffffffffffffffffffffffffffffff1681526020019081526020016000205410156101f357600080fd5b6000339050836000806101000a81548173ffffffffffffffffffffffffffffffffffffffff021916908373ffffffffffffffffffffffffffffffffffffffff16021790555082600460008373ffffffffffffffffffffffffffffffffffffffff1673ffffffffffffffffffffffffffffffffffffffff1681526020019081526020016000205403600460008373ffffffffffffffffffffffffffffffffffffffff1673ffffffffffffffffffffffffffffffffffffffff1681526020019081526020016000208190555082600460008673ffffffffffffffffffffffffffffffffffffffff1673ffffffffffffffffffffffffffffffffffffffff1681526020019081526020016000205401600460008673ffffffffffffffffffffffffffffffffffffffff1673ffffffffffffffffffffffffffffffffffffffff16815260200190815260200160002081905550600191505092915050565b6004602052806000526040600020600091509050548156fea265627a7a723158209082452542a814bcdbc6c73098ad9258502f81d0cea2bf9c5de5cf023388934c64736f6c63430005100032a365627a7a7231582032010015e54114fc90fad6f9751d3538a33044228a7c15b4a4e34452b2ba18096c6578706572696d656e74616cf564736f6c63430005100040",
  "source": "pragma solidity >=0.4.22 <0.6.0;\npragma experimental ABIEncoderV2;\n\nimport \"./voterToken.sol\";\nimport \"./Ballot.sol\";\ncontract createElection{\n    address owner;\n    address[] votingTokenlist;\n    mapping(string => address) ballots;\n    constructor()public{\n        owner = msg.sender;\n    }\n    /*\n    Creation of multiple unique tokens for specific candidate voting\n    Only the creator of the election can set tokens\n    The createElection Contract is then funded with the tokens\n    */\n    function createToken (string[] memory _name, \n    string[] memory _symbol, \n    uint256[] memory _totalVote) \n    public returns(uint256[] memory){\n        require(msg.sender == owner);\n        for(uint i = 0 ;i < _name.length;i++){\n            voterToken newToken = new voterToken(_name[i],_symbol[i],_totalVote[i]);\n            votingTokenlist.push(address(newToken));\n        }\n    }\n    /*\n    Creation of ballots for different districts with different sets of\n    Candidates for lower level positions (e.g. Governors,Mayors and etc)\n    Only the creator of the election can set ballots\n    */\n    function createBallot(string memory _location, \n    string[] memory _candidtates,\n    address[] memory _address,\n    uint256[] memory _positions)public{\n        require(msg.sender == owner);\n        Ballot newBallot = new Ballot(_location,_candidtates,_address,_positions);\n        ballots[_location] = address(newBallot);\n    }\n    \n    \n}\n",
  "sourcePath": "/home/ryan/Desktop/CoE-198/src/contracts/createElection.sol",
  "compiler": {
    "name": "solc",
    "version": "0.5.16+commit.9c3226ce.Emscripten.clang"
  },
  "schemaVersion": "3.0.22",
  "updatedAt": "2020-03-19T02:15:55.887Z",
  "devdoc": {
    "methods": {}
  },
  "userdoc": {
    "methods": {}
  }
}