{
  "contractName": "Registration",
  "abi": [
    {
      "inputs": [],
      "payable": false,
      "stateMutability": "nonpayable",
      "type": "constructor"
    },
    {
      "anonymous": false,
      "inputs": [
        {
          "indexed": false,
          "internalType": "uint256",
          "name": "id",
          "type": "uint256"
        },
        {
          "indexed": false,
          "internalType": "string",
          "name": "publicKey",
          "type": "string"
        },
        {
          "indexed": false,
          "internalType": "bool",
          "name": "canVote",
          "type": "bool"
        }
      ],
      "name": "VoterRegistered",
      "type": "event"
    },
    {
      "constant": true,
      "inputs": [],
      "name": "name",
      "outputs": [
        {
          "internalType": "string",
          "name": "",
          "type": "string"
        }
      ],
      "payable": false,
      "stateMutability": "view",
      "type": "function"
    },
    {
      "constant": true,
      "inputs": [],
      "name": "timelimit",
      "outputs": [
        {
          "internalType": "uint256",
          "name": "",
          "type": "uint256"
        }
      ],
      "payable": false,
      "stateMutability": "view",
      "type": "function"
    },
    {
      "constant": true,
      "inputs": [],
      "name": "voteCount",
      "outputs": [
        {
          "internalType": "uint256",
          "name": "",
          "type": "uint256"
        }
      ],
      "payable": false,
      "stateMutability": "view",
      "type": "function"
    },
    {
      "constant": true,
      "inputs": [
        {
          "internalType": "string",
          "name": "",
          "type": "string"
        }
      ],
      "name": "voters",
      "outputs": [
        {
          "internalType": "string",
          "name": "publicKey",
          "type": "string"
        },
        {
          "internalType": "bool",
          "name": "canVote",
          "type": "bool"
        }
      ],
      "payable": false,
      "stateMutability": "view",
      "type": "function"
    },
    {
      "constant": true,
      "inputs": [
        {
          "internalType": "uint256",
          "name": "",
          "type": "uint256"
        }
      ],
      "name": "votinglist",
      "outputs": [
        {
          "internalType": "string",
          "name": "publicKey",
          "type": "string"
        },
        {
          "internalType": "bool",
          "name": "canVote",
          "type": "bool"
        }
      ],
      "payable": false,
      "stateMutability": "view",
      "type": "function"
    },
    {
      "constant": false,
      "inputs": [
        {
          "internalType": "string",
          "name": "_credentials",
          "type": "string"
        },
        {
          "internalType": "string",
          "name": "_publicKey",
          "type": "string"
        }
      ],
      "name": "registerVoter",
      "outputs": [],
      "payable": false,
      "stateMutability": "nonpayable",
      "type": "function"
    },
    {
      "constant": true,
      "inputs": [
        {
          "internalType": "string",
          "name": "_credentials",
          "type": "string"
        }
      ],
      "name": "votingStatus",
      "outputs": [
        {
          "internalType": "bool",
          "name": "_votestatus",
          "type": "bool"
        }
      ],
      "payable": false,
      "stateMutability": "view",
      "type": "function"
    }
  ],
  "bytecode": "0x6080604052600060025534801561001557600080fd5b506040518060400160405280601781526020017f526567697374726174696f6e20426c6f636b636861696e00000000000000000081525060009080519060200190610061929190610073565b50620151804201600181905550610118565b828054600181600116156101000203166002900490600052602060002090601f016020900481019282601f106100b457805160ff19168380011785556100e2565b828001600101855582156100e2579182015b828111156100e15782518255916020019190600101906100c6565b5b5090506100ef91906100f3565b5090565b61011591905b808211156101115760008160009055506001016100f9565b5090565b90565b610bd3806101276000396000f3fe608060405234801561001057600080fd5b506004361061007d5760003560e01c806387963f8e1161005b57806387963f8e146103175780638a4c884714610335578063c638407114610487578063ed794ddc146104a55761007d565b806306fdde031461008257806343eb93f51461010557806353fa2e64146101d8575b600080fd5b61008a610557565b6040518080602001828103825283818151815260200191508051906020019080838360005b838110156100ca5780820151818401526020810190506100af565b50505050905090810190601f1680156100f75780820380516001836020036101000a031916815260200191505b509250505060405180910390f35b6101be6004803603602081101561011b57600080fd5b810190808035906020019064010000000081111561013857600080fd5b82018360208201111561014a57600080fd5b8035906020019184600183028401116401000000008311171561016c57600080fd5b91908080601f016020809104026020016040519081016040528093929190818152602001838380828437600081840152601f19601f8201169050808301925050505050505091929192905050506105f5565b604051808215151515815260200191505060405180910390f35b610291600480360360208110156101ee57600080fd5b810190808035906020019064010000000081111561020b57600080fd5b82018360208201111561021d57600080fd5b8035906020019184600183028401116401000000008311171561023f57600080fd5b91908080601f016020809104026020016040519081016040528093929190818152602001838380828437600081840152601f19601f820116905080830192505050505050509192919290505050610678565b604051808060200183151515158152602001828103825284818151815260200191508051906020019080838360005b838110156102db5780820151818401526020810190506102c0565b50505050905090810190601f1680156103085780820380516001836020036101000a031916815260200191505b50935050505060405180910390f35b61031f610757565b6040518082815260200191505060405180910390f35b6104856004803603604081101561034b57600080fd5b810190808035906020019064010000000081111561036857600080fd5b82018360208201111561037a57600080fd5b8035906020019184600183028401116401000000008311171561039c57600080fd5b91908080601f016020809104026020016040519081016040528093929190818152602001838380828437600081840152601f19601f820116905080830192505050505050509192919290803590602001906401000000008111156103ff57600080fd5b82018360208201111561041157600080fd5b8035906020019184600183028401116401000000008311171561043357600080fd5b91908080601f016020809104026020016040519081016040528093929190818152602001838380828437600081840152601f19601f82011690508083019250505050505050919291929050505061075d565b005b61048f610a2a565b6040518082815260200191505060405180910390f35b6104d1600480360360208110156104bb57600080fd5b8101908080359060200190929190505050610a30565b604051808060200183151515158152602001828103825284818151815260200191508051906020019080838360005b8381101561051b578082015181840152602081019050610500565b50505050905090810190601f1680156105485780820380516001836020036101000a031916815260200191505b50935050505060405180910390f35b60008054600181600116156101000203166002900480601f0160208091040260200160405190810160405280929190818152602001828054600181600116156101000203166002900480156105ed5780601f106105c2576101008083540402835291602001916105ed565b820191906000526020600020905b8154815290600101906020018083116105d057829003601f168201915b505050505081565b60006003826040518082805190602001908083835b6020831061062d578051825260208201915060208101905060208303925061060a565b6001836020036101000a038019825116818451168082178552505050505050905001915050908152602001604051809103902060010160009054906101000a900460ff169050919050565b600381805160208101820180518482526020830160208501208183528095505050505050600091509050806000018054600181600116156101000203166002900480601f01602080910402602001604051908101604052809291908181526020018280546001816001161561010002031660029004801561073a5780601f1061070f5761010080835404028352916020019161073a565b820191906000526020600020905b81548152906001019060200180831161071d57829003601f168201915b5050505050908060010160009054906101000a900460ff16905082565b60015481565b608081511461076857fe5b600115156003836040518082805190602001908083835b602083106107a2578051825260208201915060208101905060208303925061077f565b6001836020036101000a038019825116818451168082178552505050505050905001915050908152602001604051809103902060010160009054906101000a900460ff161515141580156107f7575060015442105b15610a2657806003836040518082805190602001908083835b602083106108335780518252602082019150602081019050602083039250610810565b6001836020036101000a0380198251168184511680821785525050505050509050019150509081526020016040518091039020600001908051906020019061087c929190610af9565b5060016003836040518082805190602001908083835b602083106108b55780518252602082019150602081019050602083039250610892565b6001836020036101000a038019825116818451168082178552505050505050905001915050908152602001604051809103902060010160006101000a81548160ff02191690831515021790555081600460006002548152602001908152602001600020600001908051906020019061092e929190610af9565b50600160046000600254815260200190815260200160002060010160006101000a81548160ff0219169083151502179055506002600081548092919060010191905055507f7ec0877b01e153addba4919221a0a747d49d3e92ab9b3d8ddd4e2d55ed3f1823600254836001604051808481526020018060200183151515158152602001828103825284818151815260200191508051906020019080838360005b838110156109e95780820151818401526020810190506109ce565b50505050905090810190601f168015610a165780820380516001836020036101000a031916815260200191505b5094505050505060405180910390a15b5050565b60025481565b6004602052806000526040600020600091509050806000018054600181600116156101000203166002900480601f016020809104026020016040519081016040528092919081815260200182805460018160011615610100020316600290048015610adc5780601f10610ab157610100808354040283529160200191610adc565b820191906000526020600020905b815481529060010190602001808311610abf57829003601f168201915b5050505050908060010160009054906101000a900460ff16905082565b828054600181600116156101000203166002900490600052602060002090601f016020900481019282601f10610b3a57805160ff1916838001178555610b68565b82800160010185558215610b68579182015b82811115610b67578251825591602001919060010190610b4c565b5b509050610b759190610b79565b5090565b610b9b91905b80821115610b97576000816000905550600101610b7f565b5090565b9056fea265627a7a72315820b5165ac60ce782628aef9a7f59156dbb52d8ae99fd069b733cb7fec306d949c864736f6c63430005100032",
  "source": "//pragma solidity ^0.5.0;\npragma solidity >=0.4.22 <0.6.0;\n\ncontract Registration{\n    string public name;\n    uint public timelimit;\n    uint public voteCount = 0; //debugging\n    mapping(string => voter) public voters;\n    mapping(uint => voter) public votinglist; // debugging\n    struct voter{\n        string publicKey;\n        bool canVote;\n    }\n    \n    event VoterRegistered(\n        uint id,\n        string publicKey,\n        bool canVote\n    );\n    \n    constructor() public{\n        name = \"Registration Blockchain\";\n        timelimit = block.timestamp + 86400;// one day  \n    }\n    \n    function registerVoter(string memory _credentials, string memory _publicKey) public{\n        assert(bytes(_publicKey).length == 128);\n        if(voters[_credentials].canVote != true && block.timestamp < timelimit){\n            voters[_credentials].publicKey = _publicKey;\n            voters[_credentials].canVote = true;\n            votinglist[voteCount].publicKey = _credentials;\n            votinglist[voteCount].canVote = true;\n            voteCount++;\n            emit VoterRegistered(voteCount,_credentials,true);\n        }\n    }\n    \n    function votingStatus(string memory _credentials) public view returns (bool _votestatus){\n        return voters[_credentials].canVote;\n    }\n    \n}\n",
  "sourcePath": "/home/rigo/Desktop/RegTest (copy)/src/contracts/Registration.sol",
  "compiler": {
    "name": "solc",
    "version": "0.5.16+commit.9c3226ce.Emscripten.clang"
  },
  "schemaVersion": "3.0.22",
  "updatedAt": "2020-02-15T08:55:54.687Z",
  "networkType": "ethereum",
  "devdoc": {
    "methods": {}
  },
  "userdoc": {
    "methods": {}
  }
}