{
  "contractName": "Ballot",
  "abi": [
    {
      "inputs": [
        {
          "components": [
            {
              "internalType": "string",
              "name": "name",
              "type": "string"
            },
            {
              "internalType": "address",
              "name": "candidateAddress",
              "type": "address"
            },
            {
              "internalType": "uint16",
              "name": "position",
              "type": "uint16"
            }
          ],
          "internalType": "struct SetupBlockchain.candidate[]",
          "name": "_candidates",
          "type": "tuple[]"
        },
        {
          "components": [
            {
              "internalType": "string",
              "name": "name",
              "type": "string"
            },
            {
              "internalType": "address",
              "name": "tokenAddress",
              "type": "address"
            },
            {
              "internalType": "uint256",
              "name": "amountPerVoter",
              "type": "uint256"
            },
            {
              "internalType": "uint16",
              "name": "position",
              "type": "uint16"
            }
          ],
          "internalType": "struct SetupBlockchain.votingToken[]",
          "name": "_tokens",
          "type": "tuple[]"
        },
        {
          "internalType": "string",
          "name": "_district",
          "type": "string"
        }
      ],
      "payable": false,
      "stateMutability": "nonpayable",
      "type": "constructor"
    },
    {
      "constant": false,
      "inputs": [
        {
          "internalType": "uint256[]",
          "name": "votes",
          "type": "uint256[]"
        },
        {
          "internalType": "address",
          "name": "_address",
          "type": "address"
        }
      ],
      "name": "vote",
      "outputs": [],
      "payable": false,
      "stateMutability": "nonpayable",
      "type": "function"
    }
  ],
  "bytecode": "0x60806040523480156200001157600080fd5b5060405162000ddf38038062000ddf8339818101604052620000379190810190620006f0565b336000806101000a81548173ffffffffffffffffffffffffffffffffffffffff021916908373ffffffffffffffffffffffffffffffffffffffff16021790555080600190805190602001906200008f929190620002a9565b5060008090505b8351811015620001e45760026040518060600160405280868481518110620000ba57fe5b6020026020010151600001518152602001868481518110620000d857fe5b60200260200101516020015173ffffffffffffffffffffffffffffffffffffffff1681526020018684815181106200010c57fe5b60200260200101516040015161ffff168152509080600181540180825580915050906001820390600052602060002090600202016000909192909190915060008201518160000190805190602001906200016892919062000330565b5060208201518160010160006101000a81548173ffffffffffffffffffffffffffffffffffffffff021916908373ffffffffffffffffffffffffffffffffffffffff16021790555060408201518160010160146101000a81548161ffff021916908361ffff160217905550505050808060010191505062000096565b5060008090505b82518161ffff1610156200029f576000838261ffff16815181106200020c57fe5b6020026020010151606001519050838261ffff16815181106200022b57fe5b602002602001015160200151600360008361ffff1661ffff16815260200190815260200160002060006101000a81548173ffffffffffffffffffffffffffffffffffffffff021916908373ffffffffffffffffffffffffffffffffffffffff160217905550508080600101915050620001eb565b505050506200093b565b828054600181600116156101000203166002900490600052602060002090601f016020900481019282601f10620002ec57805160ff19168380011785556200031d565b828001600101855582156200031d579182015b828111156200031c578251825591602001919060010190620002ff565b5b5090506200032c9190620003b7565b5090565b828054600181600116156101000203166002900490600052602060002090601f016020900481019282601f106200037357805160ff1916838001178555620003a4565b82800160010185558215620003a4579182015b82811115620003a357825182559160200191906001019062000386565b5b509050620003b39190620003b7565b5090565b620003dc91905b80821115620003d8576000816000905550600101620003be565b5090565b90565b600081519050620003f081620008ed565b92915050565b600082601f8301126200040857600080fd5b81516200041f6200041982620007bf565b62000791565b9150818183526020840193506020810190508360005b838110156200046957815186016200044e8882620005a8565b84526020840193506020830192505060018101905062000435565b5050505092915050565b600082601f8301126200048557600080fd5b81516200049c6200049682620007e8565b62000791565b9150818183526020840193506020810190508360005b83811015620004e65781518601620004cb88826200062a565b845260208401935060208301925050600181019050620004b2565b5050505092915050565b600082601f8301126200050257600080fd5b815162000519620005138262000811565b62000791565b915080825260208301602083018583830111156200053657600080fd5b62000543838284620008b7565b50505092915050565b600082601f8301126200055e57600080fd5b8151620005756200056f826200083e565b62000791565b915080825260208301602083018583830111156200059257600080fd5b6200059f838284620008b7565b50505092915050565b600060608284031215620005bb57600080fd5b620005c7606062000791565b9050600082015167ffffffffffffffff811115620005e457600080fd5b620005f284828501620004f0565b60008301525060206200060884828501620003df565b60208301525060406200061e84828501620006c2565b60408301525092915050565b6000608082840312156200063d57600080fd5b62000649608062000791565b9050600082015167ffffffffffffffff8111156200066657600080fd5b6200067484828501620004f0565b60008301525060206200068a84828501620003df565b6020830152506040620006a084828501620006d9565b6040830152506060620006b684828501620006c2565b60608301525092915050565b600081519050620006d38162000907565b92915050565b600081519050620006ea8162000921565b92915050565b6000806000606084860312156200070657600080fd5b600084015167ffffffffffffffff8111156200072157600080fd5b6200072f86828701620003f6565b935050602084015167ffffffffffffffff8111156200074d57600080fd5b6200075b8682870162000473565b925050604084015167ffffffffffffffff8111156200077957600080fd5b62000787868287016200054c565b9150509250925092565b6000604051905081810181811067ffffffffffffffff82111715620007b557600080fd5b8060405250919050565b600067ffffffffffffffff821115620007d757600080fd5b602082029050602081019050919050565b600067ffffffffffffffff8211156200080057600080fd5b602082029050602081019050919050565b600067ffffffffffffffff8211156200082957600080fd5b601f19601f8301169050602081019050919050565b600067ffffffffffffffff8211156200085657600080fd5b601f19601f8301169050602081019050919050565b600062000878826200088d565b9050919050565b600061ffff82169050919050565b600073ffffffffffffffffffffffffffffffffffffffff82169050919050565b6000819050919050565b60005b83811015620008d7578082015181840152602081019050620008ba565b83811115620008e7576000848401525b50505050565b620008f8816200086b565b81146200090457600080fd5b50565b62000912816200087f565b81146200091e57600080fd5b50565b6200092c81620008ad565b81146200093857600080fd5b50565b610494806200094b6000396000f3fe608060405234801561001057600080fd5b506004361061002b5760003560e01c8063d04fbd7a14610030575b600080fd5b61004a6004803603610045919081019061028b565b61004c565b005b60008090505b82518110156101c45760036000600285848151811061006d57fe5b60200260200101518154811061007f57fe5b906000526020600020906002020160010160149054906101000a900461ffff1661ffff1661ffff16815260200190815260200160002060009054906101000a900473ffffffffffffffffffffffffffffffffffffffff1673ffffffffffffffffffffffffffffffffffffffff1663beabacc883600286858151811061010057fe5b60200260200101518154811061011257fe5b906000526020600020906002020160010160009054906101000a900473ffffffffffffffffffffffffffffffffffffffff1660016040518463ffffffff1660e01b815260040161016493929190610326565b602060405180830381600087803b15801561017e57600080fd5b505af1158015610192573d6000803e3d6000fd5b505050506040513d601f19601f820116820180604052506101b691908101906102df565b508080600101915050610052565b505050565b6000813590506101d88161040c565b92915050565b600082601f8301126101ef57600080fd5b81356102026101fd8261038a565b61035d565b9150818183526020840193506020810190508385602084028201111561022757600080fd5b60005b83811015610257578161023d8882610276565b84526020840193506020830192505060018101905061022a565b5050505092915050565b60008151905061027081610423565b92915050565b6000813590506102858161043a565b92915050565b6000806040838503121561029e57600080fd5b600083013567ffffffffffffffff8111156102b857600080fd5b6102c4858286016101de565b92505060206102d5858286016101c9565b9150509250929050565b6000602082840312156102f157600080fd5b60006102ff84828501610261565b91505092915050565b610311816103b2565b82525050565b610320816103fa565b82525050565b600060608201905061033b6000830186610308565b6103486020830185610308565b6103556040830184610317565b949350505050565b6000604051905081810181811067ffffffffffffffff8211171561038057600080fd5b8060405250919050565b600067ffffffffffffffff8211156103a157600080fd5b602082029050602081019050919050565b60006103bd826103d0565b9050919050565b60008115159050919050565b600073ffffffffffffffffffffffffffffffffffffffff82169050919050565b6000819050919050565b6000610405826103f0565b9050919050565b610415816103b2565b811461042057600080fd5b50565b61042c816103c4565b811461043757600080fd5b50565b610443816103f0565b811461044e57600080fd5b5056fea365627a7a72315820df0ef71e575e7bf43edc62900d94570641df2de47d3f0e0d3ec263a4b1878e7c6c6578706572696d656e74616cf564736f6c63430005100040",
  "source": "pragma solidity >=0.4.22 <0.7.0;\npragma experimental ABIEncoderV2;\nimport \"./SetupBlockchain.sol\";\nimport \"./voterToken.sol\";\n\ncontract Ballot{\n    SetupBlockchain setup;\n    string district;\n    SetupBlockchain.candidate[] Candidates;\n    mapping(uint16 => address) votingTokens;\n    \n    constructor(SetupBlockchain.candidate[] memory _candidates,\n    SetupBlockchain.votingToken[] memory _tokens\n    ,string memory _district) public{\n    \n        setup = SetupBlockchain(msg.sender);\n        district = _district;\n        for (uint i =0; i < _candidates.length;i++){\n            Candidates.push(SetupBlockchain.candidate({\n                name: _candidates[i].name,\n                candidateAddress: _candidates[i].candidateAddress,\n                position: _candidates[i].position\n            }));\n        }\n        for (uint16 i =0; i < _tokens.length;i++){\n            uint16 j = _tokens[i].position;\n            votingTokens[j] = _tokens[i].tokenAddress;\n        }\n    }\n    function vote(uint256[] memory votes, address _address) public{\n        for (uint i = 0;i < votes.length;i++){\n            voterToken(votingTokens[Candidates[votes[i]].position]).transfer(_address,Candidates[votes[i]].candidateAddress,1);\n        }\n    }\n}\n",
  "sourcePath": "/home/ryan/Desktop/CoE-198/src/backend/contracts/Ballot.sol",
  "compiler": {
    "name": "solc",
    "version": "0.5.16+commit.9c3226ce.Emscripten.clang"
  },
  "schemaVersion": "3.0.22",
  "updatedAt": "2020-06-02T13:29:44.851Z",
  "devdoc": {
    "methods": {}
  },
  "userdoc": {
    "methods": {}
  }
}