{
  "contractName": "Ballot",
  "abi": [
    {
      "inputs": [
        {
          "components": [
            {
              "internalType": "string",
              "name": "name",
              "type": "string"
            },
            {
              "internalType": "address",
              "name": "candidateAddress",
              "type": "address"
            },
            {
              "internalType": "uint16",
              "name": "position",
              "type": "uint16"
            }
          ],
          "internalType": "struct SetupBlockchain.candidate[]",
          "name": "_candidates",
          "type": "tuple[]"
        },
        {
          "components": [
            {
              "internalType": "string",
              "name": "name",
              "type": "string"
            },
            {
              "internalType": "address",
              "name": "tokenAddress",
              "type": "address"
            },
            {
              "internalType": "uint256",
              "name": "amountPerVoter",
              "type": "uint256"
            },
            {
              "internalType": "uint16",
              "name": "position",
              "type": "uint16"
            }
          ],
          "internalType": "struct SetupBlockchain.votingToken[]",
          "name": "_tokens",
          "type": "tuple[]"
        },
        {
          "internalType": "string",
          "name": "_district",
          "type": "string"
        }
      ],
      "payable": false,
      "stateMutability": "nonpayable",
      "type": "constructor"
    },
    {
      "constant": true,
      "inputs": [
        {
          "internalType": "uint256",
          "name": "",
          "type": "uint256"
        }
      ],
      "name": "Candidates",
      "outputs": [
        {
          "internalType": "string",
          "name": "name",
          "type": "string"
        },
        {
          "internalType": "address",
          "name": "candidateAddress",
          "type": "address"
        },
        {
          "internalType": "uint16",
          "name": "position",
          "type": "uint16"
        }
      ],
      "payable": false,
      "stateMutability": "view",
      "type": "function"
    },
    {
      "constant": false,
      "inputs": [
        {
          "internalType": "uint256[]",
          "name": "votes",
          "type": "uint256[]"
        },
        {
          "internalType": "address",
          "name": "_address",
          "type": "address"
        }
      ],
      "name": "vote",
      "outputs": [],
      "payable": false,
      "stateMutability": "nonpayable",
      "type": "function"
    },
    {
      "constant": true,
      "inputs": [],
      "name": "candidateCount",
      "outputs": [
        {
          "internalType": "uint256",
          "name": "_count",
          "type": "uint256"
        }
      ],
      "payable": false,
      "stateMutability": "view",
      "type": "function"
    },
    {
      "constant": true,
      "inputs": [],
      "name": "getCandidates",
      "outputs": [
        {
          "components": [
            {
              "internalType": "string",
              "name": "name",
              "type": "string"
            },
            {
              "internalType": "address",
              "name": "candidateAddress",
              "type": "address"
            },
            {
              "internalType": "uint16",
              "name": "position",
              "type": "uint16"
            }
          ],
          "internalType": "struct SetupBlockchain.candidate[]",
          "name": "_candidateList",
          "type": "tuple[]"
        }
      ],
      "payable": false,
      "stateMutability": "view",
      "type": "function"
    }
  ],
  "bytecode": "0x60806040523480156200001157600080fd5b50604051620013d2380380620013d28339818101604052620000379190810190620006f0565b336000806101000a81548173ffffffffffffffffffffffffffffffffffffffff021916908373ffffffffffffffffffffffffffffffffffffffff16021790555080600190805190602001906200008f929190620002a9565b5060008090505b8351811015620001e45760026040518060600160405280868481518110620000ba57fe5b6020026020010151600001518152602001868481518110620000d857fe5b60200260200101516020015173ffffffffffffffffffffffffffffffffffffffff1681526020018684815181106200010c57fe5b60200260200101516040015161ffff168152509080600181540180825580915050906001820390600052602060002090600202016000909192909190915060008201518160000190805190602001906200016892919062000330565b5060208201518160010160006101000a81548173ffffffffffffffffffffffffffffffffffffffff021916908373ffffffffffffffffffffffffffffffffffffffff16021790555060408201518160010160146101000a81548161ffff021916908361ffff160217905550505050808060010191505062000096565b5060008090505b82518161ffff1610156200029f576000838261ffff16815181106200020c57fe5b6020026020010151606001519050838261ffff16815181106200022b57fe5b602002602001015160200151600360008361ffff1661ffff16815260200190815260200160002060006101000a81548173ffffffffffffffffffffffffffffffffffffffff021916908373ffffffffffffffffffffffffffffffffffffffff160217905550508080600101915050620001eb565b505050506200093b565b828054600181600116156101000203166002900490600052602060002090601f016020900481019282601f10620002ec57805160ff19168380011785556200031d565b828001600101855582156200031d579182015b828111156200031c578251825591602001919060010190620002ff565b5b5090506200032c9190620003b7565b5090565b828054600181600116156101000203166002900490600052602060002090601f016020900481019282601f106200037357805160ff1916838001178555620003a4565b82800160010185558215620003a4579182015b82811115620003a357825182559160200191906001019062000386565b5b509050620003b39190620003b7565b5090565b620003dc91905b80821115620003d8576000816000905550600101620003be565b5090565b90565b600081519050620003f081620008ed565b92915050565b600082601f8301126200040857600080fd5b81516200041f6200041982620007bf565b62000791565b9150818183526020840193506020810190508360005b838110156200046957815186016200044e8882620005a8565b84526020840193506020830192505060018101905062000435565b5050505092915050565b600082601f8301126200048557600080fd5b81516200049c6200049682620007e8565b62000791565b9150818183526020840193506020810190508360005b83811015620004e65781518601620004cb88826200062a565b845260208401935060208301925050600181019050620004b2565b5050505092915050565b600082601f8301126200050257600080fd5b815162000519620005138262000811565b62000791565b915080825260208301602083018583830111156200053657600080fd5b62000543838284620008b7565b50505092915050565b600082601f8301126200055e57600080fd5b8151620005756200056f826200083e565b62000791565b915080825260208301602083018583830111156200059257600080fd5b6200059f838284620008b7565b50505092915050565b600060608284031215620005bb57600080fd5b620005c7606062000791565b9050600082015167ffffffffffffffff811115620005e457600080fd5b620005f284828501620004f0565b60008301525060206200060884828501620003df565b60208301525060406200061e84828501620006c2565b60408301525092915050565b6000608082840312156200063d57600080fd5b62000649608062000791565b9050600082015167ffffffffffffffff8111156200066657600080fd5b6200067484828501620004f0565b60008301525060206200068a84828501620003df565b6020830152506040620006a084828501620006d9565b6040830152506060620006b684828501620006c2565b60608301525092915050565b600081519050620006d38162000907565b92915050565b600081519050620006ea8162000921565b92915050565b6000806000606084860312156200070657600080fd5b600084015167ffffffffffffffff8111156200072157600080fd5b6200072f86828701620003f6565b935050602084015167ffffffffffffffff8111156200074d57600080fd5b6200075b8682870162000473565b925050604084015167ffffffffffffffff8111156200077957600080fd5b62000787868287016200054c565b9150509250925092565b6000604051905081810181811067ffffffffffffffff82111715620007b557600080fd5b8060405250919050565b600067ffffffffffffffff821115620007d757600080fd5b602082029050602081019050919050565b600067ffffffffffffffff8211156200080057600080fd5b602082029050602081019050919050565b600067ffffffffffffffff8211156200082957600080fd5b601f19601f8301169050602081019050919050565b600067ffffffffffffffff8211156200085657600080fd5b601f19601f8301169050602081019050919050565b600062000878826200088d565b9050919050565b600061ffff82169050919050565b600073ffffffffffffffffffffffffffffffffffffffff82169050919050565b6000819050919050565b60005b83811015620008d7578082015181840152602081019050620008ba565b83811115620008e7576000848401525b50505050565b620008f8816200086b565b81146200090457600080fd5b50565b62000912816200087f565b81146200091e57600080fd5b50565b6200092c81620008ad565b81146200093857600080fd5b50565b610a87806200094b6000396000f3fe608060405234801561001057600080fd5b506004361061004c5760003560e01c806306a49fce14610051578063290e92121461006f578063a9a981a3146100a1578063d04fbd7a146100bf575b600080fd5b6100596100db565b604051610066919061081d565b60405180910390f35b61008960048036036100849190810190610618565b610252565b6040516100989392919061083f565b60405180910390f35b6100a961034f565b6040516100b6919061087d565b60405180910390f35b6100d960048036036100d4919081019061059b565b61035c565b005b60606002805480602002602001604051908101604052809291908181526020016000905b828210156102495783829060005260206000209060020201604051806060016040529081600082018054600181600116156101000203166002900480601f0160208091040260200160405190810160405280929190818152602001828054600181600116156101000203166002900480156101bb5780601f10610190576101008083540402835291602001916101bb565b820191906000526020600020905b81548152906001019060200180831161019e57829003601f168201915b505050505081526020016001820160009054906101000a900473ffffffffffffffffffffffffffffffffffffffff1673ffffffffffffffffffffffffffffffffffffffff1673ffffffffffffffffffffffffffffffffffffffff1681526020016001820160149054906101000a900461ffff1661ffff1661ffff1681525050815260200190600101906100ff565b50505050905090565b6002818154811061025f57fe5b9060005260206000209060020201600091509050806000018054600181600116156101000203166002900480601f01602080910402602001604051908101604052809291908181526020018280546001816001161561010002031660029004801561030b5780601f106102e05761010080835404028352916020019161030b565b820191906000526020600020905b8154815290600101906020018083116102ee57829003601f168201915b5050505050908060010160009054906101000a900473ffffffffffffffffffffffffffffffffffffffff16908060010160149054906101000a900461ffff16905083565b6000600280549050905090565b60008090505b82518110156104d45760036000600285848151811061037d57fe5b60200260200101518154811061038f57fe5b906000526020600020906002020160010160149054906101000a900461ffff1661ffff1661ffff16815260200190815260200160002060009054906101000a900473ffffffffffffffffffffffffffffffffffffffff1673ffffffffffffffffffffffffffffffffffffffff1663beabacc883600286858151811061041057fe5b60200260200101518154811061042257fe5b906000526020600020906002020160010160009054906101000a900473ffffffffffffffffffffffffffffffffffffffff1660016040518463ffffffff1660e01b8152600401610474939291906107e6565b602060405180830381600087803b15801561048e57600080fd5b505af11580156104a2573d6000803e3d6000fd5b505050506040513d601f19601f820116820180604052506104c691908101906105ef565b508080600101915050610362565b505050565b6000813590506104e8816109ff565b92915050565b600082601f8301126104ff57600080fd5b813561051261050d826108c5565b610898565b9150818183526020840193506020810190508385602084028201111561053757600080fd5b60005b83811015610567578161054d8882610586565b84526020840193506020830192505060018101905061053a565b5050505092915050565b60008151905061058081610a16565b92915050565b60008135905061059581610a2d565b92915050565b600080604083850312156105ae57600080fd5b600083013567ffffffffffffffff8111156105c857600080fd5b6105d4858286016104ee565b92505060206105e5858286016104d9565b9150509250929050565b60006020828403121561060157600080fd5b600061060f84828501610571565b91505092915050565b60006020828403121561062a57600080fd5b600061063884828501610586565b91505092915050565b600061064d8383610769565b905092915050565b61065e81610953565b82525050565b61066d81610953565b82525050565b600061067e826108fd565b6106888185610920565b93508360208202850161069a856108ed565b8060005b858110156106d657848403895281516106b78582610641565b94506106c283610913565b925060208a0199505060018101905061069e565b50829750879550505050505092915050565b6106f1816109a9565b82525050565b600061070282610908565b61070c8185610931565b935061071c8185602086016109bb565b610725816109ee565b840191505092915050565b600061073b82610908565b6107458185610942565b93506107558185602086016109bb565b61075e816109ee565b840191505092915050565b6000606083016000830151848203600086015261078682826106f7565b915050602083015161079b6020860182610655565b5060408301516107ae60408601826107b9565b508091505092915050565b6107c281610971565b82525050565b6107d181610971565b82525050565b6107e08161099f565b82525050565b60006060820190506107fb6000830186610664565b6108086020830185610664565b61081560408301846106e8565b949350505050565b600060208201905081810360008301526108378184610673565b905092915050565b600060608201905081810360008301526108598186610730565b90506108686020830185610664565b61087560408301846107c8565b949350505050565b600060208201905061089260008301846107d7565b92915050565b6000604051905081810181811067ffffffffffffffff821117156108bb57600080fd5b8060405250919050565b600067ffffffffffffffff8211156108dc57600080fd5b602082029050602081019050919050565b6000819050602082019050919050565b600081519050919050565b600081519050919050565b6000602082019050919050565b600082825260208201905092915050565b600082825260208201905092915050565b600082825260208201905092915050565b600061095e8261097f565b9050919050565b60008115159050919050565b600061ffff82169050919050565b600073ffffffffffffffffffffffffffffffffffffffff82169050919050565b6000819050919050565b60006109b48261099f565b9050919050565b60005b838110156109d95780820151818401526020810190506109be565b838111156109e8576000848401525b50505050565b6000601f19601f8301169050919050565b610a0881610953565b8114610a1357600080fd5b50565b610a1f81610965565b8114610a2a57600080fd5b50565b610a368161099f565b8114610a4157600080fd5b5056fea365627a7a723158208a985fb3c09fa1fd813c1e99bd93c9a1510bfaf6c72e0834164fe02bef8a6c8a6c6578706572696d656e74616cf564736f6c63430005100040",
  "source": "pragma solidity >=0.4.22 <0.7.0;\npragma experimental ABIEncoderV2;\nimport \"./SetupBlockchain.sol\";\nimport \"./voterToken.sol\";\n\ncontract Ballot{\n    SetupBlockchain setup;\n    string district;\n    SetupBlockchain.candidate[] public Candidates;\n    mapping(uint16 => address) votingTokens;\n    \n    constructor(SetupBlockchain.candidate[] memory _candidates,\n    SetupBlockchain.votingToken[] memory _tokens\n    ,string memory _district) public{\n    \n        setup = SetupBlockchain(msg.sender);\n        district = _district;\n        for (uint i =0; i < _candidates.length;i++){\n            Candidates.push(SetupBlockchain.candidate({\n                name: _candidates[i].name,\n                candidateAddress: _candidates[i].candidateAddress,\n                position: _candidates[i].position\n            }));\n        }\n        for (uint16 i =0; i < _tokens.length;i++){\n            uint16 j = _tokens[i].position;\n            votingTokens[j] = _tokens[i].tokenAddress;\n        }\n    }\n    function vote(uint256[] memory votes, address _address) public{\n        for (uint i = 0;i < votes.length;i++){\n            voterToken(votingTokens[Candidates[votes[i]].position]).transfer(_address,Candidates[votes[i]].candidateAddress,1);\n        }\n    }\n    /*For user interface*/\n    function candidateCount() public view returns(uint _count){\n        return Candidates.length;\n    }\n\n    function getCandidates() public view returns(SetupBlockchain.candidate[] memory _candidateList){\n        return Candidates;\n    }\n}\n",
  "sourcePath": "/home/ryan/Desktop/CoE-198/src/backend/contracts/Ballot.sol",
  "compiler": {
    "name": "solc",
    "version": "0.5.16+commit.9c3226ce.Emscripten.clang"
  },
  "schemaVersion": "3.2.0",
  "updatedAt": "2020-06-05T03:23:05.107Z",
  "devdoc": {
    "methods": {}
  },
  "userdoc": {
    "methods": {}
  }
}