{
  "contractName": "Election",
  "abi": [
    {
      "inputs": [],
      "payable": false,
      "stateMutability": "nonpayable",
      "type": "constructor"
    },
    {
      "anonymous": false,
      "inputs": [
        {
          "indexed": false,
          "internalType": "address",
          "name": "RegistrationAddress",
          "type": "address"
        }
      ],
      "name": "RegistrationLinked",
      "type": "event"
    },
    {
      "anonymous": false,
      "inputs": [
        {
          "indexed": false,
          "internalType": "address",
          "name": "SetupAddress",
          "type": "address"
        }
      ],
      "name": "SetupBlockchainLinked",
      "type": "event"
    },
    {
      "constant": false,
      "inputs": [
        {
          "internalType": "string",
          "name": "_uniqueID",
          "type": "string"
        },
        {
          "internalType": "uint256[]",
          "name": "_nationalVotes",
          "type": "uint256[]"
        },
        {
          "internalType": "uint256[]",
          "name": "_localVotes",
          "type": "uint256[]"
        }
      ],
      "name": "vote",
      "outputs": [],
      "payable": false,
      "stateMutability": "nonpayable",
      "type": "function"
    },
    {
      "constant": false,
      "inputs": [
        {
          "internalType": "address",
          "name": "_address",
          "type": "address"
        }
      ],
      "name": "acquireRegistration",
      "outputs": [],
      "payable": false,
      "stateMutability": "nonpayable",
      "type": "function"
    },
    {
      "constant": false,
      "inputs": [
        {
          "internalType": "address",
          "name": "_address",
          "type": "address"
        }
      ],
      "name": "applySetup",
      "outputs": [],
      "payable": false,
      "stateMutability": "nonpayable",
      "type": "function"
    }
  ],
  "bytecode": "0x608060405234801561001057600080fd5b50336000806101000a81548173ffffffffffffffffffffffffffffffffffffffff021916908373ffffffffffffffffffffffffffffffffffffffff1602179055506201518042016001819055506110148061006c6000396000f3fe608060405234801561001057600080fd5b50600436106100415760003560e01c8063b4ad681714610046578063e656169f14610062578063ea0dc6361461007e575b600080fd5b610060600480360361005b919081019061097e565b61009a565b005b61007c6004803603610077919081019061097e565b6101a4565b005b61009860048036036100939190810190610a3a565b6102ae565b005b6000809054906101000a900473ffffffffffffffffffffffffffffffffffffffff1673ffffffffffffffffffffffffffffffffffffffff163373ffffffffffffffffffffffffffffffffffffffff1614610129576040517f08c379a000000000000000000000000000000000000000000000000000000000815260040161012090610d85565b60405180910390fd5b80600260006101000a81548173ffffffffffffffffffffffffffffffffffffffff021916908373ffffffffffffffffffffffffffffffffffffffff1602179055507f787e0efc297163fab495de1396fe0ac98270303a3e16dc58d3b5d640eaa8b96a816040516101999190610cad565b60405180910390a150565b6000809054906101000a900473ffffffffffffffffffffffffffffffffffffffff1673ffffffffffffffffffffffffffffffffffffffff163373ffffffffffffffffffffffffffffffffffffffff1614610233576040517f08c379a000000000000000000000000000000000000000000000000000000000815260040161022a90610d85565b60405180910390fd5b80600360006101000a81548173ffffffffffffffffffffffffffffffffffffffff021916908373ffffffffffffffffffffffffffffffffffffffff1602179055507f0bc6f71c52ff49c483e56a2d9cabc85a40ca883804eecabed272cea7e2144802816040516102a39190610cad565b60405180910390a150565b60011515600260009054906101000a900473ffffffffffffffffffffffffffffffffffffffff1673ffffffffffffffffffffffffffffffffffffffff166343a9616f336040518263ffffffff1660e01b815260040161030d9190610cc8565b60206040518083038186803b15801561032557600080fd5b505afa158015610339573d6000803e3d6000fd5b505050506040513d601f19601f8201168201806040525061035d91908101906109d0565b15151461039f576040517f08c379a000000000000000000000000000000000000000000000000000000000815260040161039690610dc5565b60405180910390fd5b60011515600260009054906101000a900473ffffffffffffffffffffffffffffffffffffffff1673ffffffffffffffffffffffffffffffffffffffff1663b3d599d133866040518363ffffffff1660e01b8152600401610400929190610ce3565b60206040518083038186803b15801561041857600080fd5b505afa15801561042c573d6000803e3d6000fd5b505050506040513d601f19601f8201168201806040525061045091908101906109d0565b151514610492576040517f08c379a000000000000000000000000000000000000000000000000000000000815260040161048990610da5565b60405180910390fd5b600360009054906101000a900473ffffffffffffffffffffffffffffffffffffffff1673ffffffffffffffffffffffffffffffffffffffff166334c1e0d26040518163ffffffff1660e01b81526004016104eb90610d65565b60206040518083038186803b15801561050357600080fd5b505afa158015610517573d6000803e3d6000fd5b505050506040513d601f19601f8201168201806040525061053b91908101906109a7565b73ffffffffffffffffffffffffffffffffffffffff1663d04fbd7a83336040518363ffffffff1660e01b8152600401610575929190610d13565b600060405180830381600087803b15801561058f57600080fd5b505af11580156105a3573d6000803e3d6000fd5b50505050600360009054906101000a900473ffffffffffffffffffffffffffffffffffffffff1673ffffffffffffffffffffffffffffffffffffffff166334c1e0d2600260009054906101000a900473ffffffffffffffffffffffffffffffffffffffff1673ffffffffffffffffffffffffffffffffffffffff1663cb00612f336040518263ffffffff1660e01b81526004016106409190610cc8565b60006040518083038186803b15801561065857600080fd5b505afa15801561066c573d6000803e3d6000fd5b505050506040513d6000823e3d601f19601f8201168201806040525061069591908101906109f9565b6040518263ffffffff1660e01b81526004016106b19190610d43565b60206040518083038186803b1580156106c957600080fd5b505afa1580156106dd573d6000803e3d6000fd5b505050506040513d601f19601f8201168201806040525061070191908101906109a7565b73ffffffffffffffffffffffffffffffffffffffff1663d04fbd7a82336040518363ffffffff1660e01b815260040161073b929190610d13565b600060405180830381600087803b15801561075557600080fd5b505af1158015610769573d6000803e3d6000fd5b50505050600260009054906101000a900473ffffffffffffffffffffffffffffffffffffffff1673ffffffffffffffffffffffffffffffffffffffff166309eef43e336040518263ffffffff1660e01b81526004016107c89190610cc8565b600060405180830381600087803b1580156107e257600080fd5b505af11580156107f6573d6000803e3d6000fd5b50505050505050565b60008135905061080e81610f8c565b92915050565b60008151905061082381610f8c565b92915050565b600082601f83011261083a57600080fd5b813561084d61084882610e12565b610de5565b9150818183526020840193506020810190508385602084028201111561087257600080fd5b60005b838110156108a257816108888882610969565b845260208401935060208301925050600181019050610875565b5050505092915050565b6000815190506108bb81610fa3565b92915050565b600082601f8301126108d257600080fd5b81356108e56108e082610e3a565b610de5565b9150808252602083016020830185838301111561090157600080fd5b61090c838284610f39565b50505092915050565b600082601f83011261092657600080fd5b815161093961093482610e3a565b610de5565b9150808252602083016020830185838301111561095557600080fd5b610960838284610f48565b50505092915050565b60008135905061097881610fba565b92915050565b60006020828403121561099057600080fd5b600061099e848285016107ff565b91505092915050565b6000602082840312156109b957600080fd5b60006109c784828501610814565b91505092915050565b6000602082840312156109e257600080fd5b60006109f0848285016108ac565b91505092915050565b600060208284031215610a0b57600080fd5b600082015167ffffffffffffffff811115610a2557600080fd5b610a3184828501610915565b91505092915050565b600080600060608486031215610a4f57600080fd5b600084013567ffffffffffffffff811115610a6957600080fd5b610a75868287016108c1565b935050602084013567ffffffffffffffff811115610a9257600080fd5b610a9e86828701610829565b925050604084013567ffffffffffffffff811115610abb57600080fd5b610ac786828701610829565b9150509250925092565b6000610add8383610c9e565b60208301905092915050565b610af281610f03565b82525050565b610b0181610ebb565b82525050565b6000610b1282610e76565b610b1c8185610e99565b9350610b2783610e66565b8060005b83811015610b58578151610b3f8882610ad1565b9750610b4a83610e8c565b925050600181019050610b2b565b5085935050505092915050565b6000610b7082610e81565b610b7a8185610eaa565b9350610b8a818560208601610f48565b610b9381610f7b565b840191505092915050565b6000610bab600883610eaa565b91507f4e4154494f4e414c0000000000000000000000000000000000000000000000006000830152602082019050919050565b6000610beb601383610eaa565b91507f556e617574686f72697a656420416363657373000000000000000000000000006000830152602082019050919050565b6000610c2b601483610eaa565b91507f496e76616c69642043726564656e7469616c73210000000000000000000000006000830152602082019050919050565b6000610c6b601b83610eaa565b91507f596f75277265206e6f7420616c6c6f77656420746f20766f74652100000000006000830152602082019050919050565b610ca781610ef9565b82525050565b6000602082019050610cc26000830184610af8565b92915050565b6000602082019050610cdd6000830184610ae9565b92915050565b6000604082019050610cf86000830185610ae9565b8181036020830152610d0a8184610b65565b90509392505050565b60006040820190508181036000830152610d2d8185610b07565b9050610d3c6020830184610ae9565b9392505050565b60006020820190508181036000830152610d5d8184610b65565b905092915050565b60006020820190508181036000830152610d7e81610b9e565b9050919050565b60006020820190508181036000830152610d9e81610bde565b9050919050565b60006020820190508181036000830152610dbe81610c1e565b9050919050565b60006020820190508181036000830152610dde81610c5e565b9050919050565b6000604051905081810181811067ffffffffffffffff82111715610e0857600080fd5b8060405250919050565b600067ffffffffffffffff821115610e2957600080fd5b602082029050602081019050919050565b600067ffffffffffffffff821115610e5157600080fd5b601f19601f8301169050602081019050919050565b6000819050602082019050919050565b600081519050919050565b600081519050919050565b6000602082019050919050565b600082825260208201905092915050565b600082825260208201905092915050565b6000610ec682610ed9565b9050919050565b60008115159050919050565b600073ffffffffffffffffffffffffffffffffffffffff82169050919050565b6000819050919050565b6000610f0e82610f15565b9050919050565b6000610f2082610f27565b9050919050565b6000610f3282610ed9565b9050919050565b82818337600083830152505050565b60005b83811015610f66578082015181840152602081019050610f4b565b83811115610f75576000848401525b50505050565b6000601f19601f8301169050919050565b610f9581610ebb565b8114610fa057600080fd5b50565b610fac81610ecd565b8114610fb757600080fd5b50565b610fc381610ef9565b8114610fce57600080fd5b5056fea365627a7a72315820ce18d9b9972523e15841c1c32610f96e5d224ca205d588e3a577274d36887b0a6c6578706572696d656e74616cf564736f6c63430005100040",
  "source": "pragma solidity >=0.4.22 <0.7.0;\npragma experimental ABIEncoderV2;\n\nimport \"./Registration.sol\";\nimport \"./SetupBlockchain.sol\";\nimport \"./Ballot.sol\";\n\ncontract Election{\n    address ElectionAdmin;\n    uint ElectionDealine;\n    Registration registration;\n    SetupBlockchain setup;\n\n    event RegistrationLinked(\n        address RegistrationAddress\n    );\n\n    event SetupBlockchainLinked(\n        address SetupAddress\n    );\n    \n    constructor() public{\n        ElectionAdmin = msg.sender;\n        ElectionDealine = now + 86400;\n    }\n    modifier administrative() {\n        require(msg.sender == ElectionAdmin,\"Unauthorized Access\");\n        _;\n    }\n\n    function vote(string memory _uniqueID, uint256[] memory _nationalVotes, uint256[] memory _localVotes) public{\n        require(registration.votingStatus(msg.sender) == true, \"You're not allowed to vote!\");\n        require(registration.authenticateID(msg.sender,_uniqueID) == true, \"Invalid Credentials!\");\n        Ballot(setup.getBallot(\"NATIONAL\")).vote(_nationalVotes,msg.sender);\n        Ballot(setup.getBallot(registration.getDistrict(msg.sender))).vote(_localVotes,msg.sender);\n        registration.hasVoted(msg.sender);\n    }\n    \n    function acquireRegistration(address _address) administrative public{\n        registration = Registration(_address);\n        emit RegistrationLinked(_address);\n    }\n    \n    function applySetup(address _address) administrative public {\n        setup = SetupBlockchain(_address);\n        emit SetupBlockchainLinked(_address);\n    }\n} \n",
  "sourcePath": "/home/ryan/Desktop/CoE-198/src/backend/contracts/Election.sol",
  "compiler": {
    "name": "solc",
    "version": "0.5.16+commit.9c3226ce.Emscripten.clang"
  },
  "schemaVersion": "3.0.22",
  "updatedAt": "2020-06-02T13:30:14.274Z",
  "networkType": "ethereum",
  "devdoc": {
    "methods": {}
  },
  "userdoc": {
    "methods": {}
  }
}