{
  "contractName": "Election",
  "abi": [
    {
      "inputs": [],
      "payable": false,
      "stateMutability": "nonpayable",
      "type": "constructor"
    },
    {
      "anonymous": false,
      "inputs": [
        {
          "indexed": false,
          "internalType": "address",
          "name": "RegistrationAddress",
          "type": "address"
        }
      ],
      "name": "RegistrationLinked",
      "type": "event"
    },
    {
      "anonymous": false,
      "inputs": [
        {
          "indexed": false,
          "internalType": "address",
          "name": "SetupAddress",
          "type": "address"
        }
      ],
      "name": "SetupBlockchainLinked",
      "type": "event"
    },
    {
      "constant": false,
      "inputs": [
        {
          "internalType": "string",
          "name": "_uniqueID",
          "type": "string"
        },
        {
          "internalType": "uint256[]",
          "name": "_nationalVotes",
          "type": "uint256[]"
        },
        {
          "internalType": "uint256[]",
          "name": "_localVotes",
          "type": "uint256[]"
        }
      ],
      "name": "vote",
      "outputs": [],
      "payable": false,
      "stateMutability": "nonpayable",
      "type": "function"
    },
    {
      "constant": false,
      "inputs": [
        {
          "internalType": "address",
          "name": "_address",
          "type": "address"
        }
      ],
      "name": "acquireRegistration",
      "outputs": [],
      "payable": false,
      "stateMutability": "nonpayable",
      "type": "function"
    },
    {
      "constant": false,
      "inputs": [
        {
          "internalType": "address",
          "name": "_address",
          "type": "address"
        }
      ],
      "name": "applySetup",
      "outputs": [],
      "payable": false,
      "stateMutability": "nonpayable",
      "type": "function"
    },
    {
      "constant": true,
      "inputs": [],
      "name": "getNationalCandidates",
      "outputs": [
        {
          "components": [
            {
              "internalType": "string",
              "name": "name",
              "type": "string"
            },
            {
              "internalType": "address",
              "name": "candidateAddress",
              "type": "address"
            },
            {
              "internalType": "uint16",
              "name": "position",
              "type": "uint16"
            }
          ],
          "internalType": "struct SetupBlockchain.candidate[]",
          "name": "_candidates",
          "type": "tuple[]"
        }
      ],
      "payable": false,
      "stateMutability": "view",
      "type": "function"
    },
    {
      "constant": true,
      "inputs": [],
      "name": "getLocalCandidates",
      "outputs": [
        {
          "components": [
            {
              "internalType": "string",
              "name": "name",
              "type": "string"
            },
            {
              "internalType": "address",
              "name": "candidateAddress",
              "type": "address"
            },
            {
              "internalType": "uint16",
              "name": "position",
              "type": "uint16"
            }
          ],
          "internalType": "struct SetupBlockchain.candidate[]",
          "name": "_candidates",
          "type": "tuple[]"
        }
      ],
      "payable": false,
      "stateMutability": "view",
      "type": "function"
    },
    {
      "constant": true,
      "inputs": [],
      "name": "getNationalCount",
      "outputs": [
        {
          "internalType": "uint256",
          "name": "_count",
          "type": "uint256"
        }
      ],
      "payable": false,
      "stateMutability": "view",
      "type": "function"
    },
    {
      "constant": true,
      "inputs": [],
      "name": "getLocalCount",
      "outputs": [
        {
          "internalType": "uint256",
          "name": "_count",
          "type": "uint256"
        }
      ],
      "payable": false,
      "stateMutability": "view",
      "type": "function"
    }
  ],
  "bytecode": "0x608060405234801561001057600080fd5b50336000806101000a81548173ffffffffffffffffffffffffffffffffffffffff021916908373ffffffffffffffffffffffffffffffffffffffff160217905550620151804201600181905550611b068061006c6000396000f3fe608060405234801561001057600080fd5b506004361061007d5760003560e01c8063bf82e3711161005b578063bf82e371146100da578063e656169f146100f8578063ea0dc63614610114578063fc6993bd146101305761007d565b806324882b2314610082578063b2c2da8c146100a0578063b4ad6817146100be575b600080fd5b61008a61014e565b60405161009791906117ee565b60405180910390f35b6100a861032c565b6040516100b591906117ee565b60405180910390f35b6100d860048036036100d391908101906111bc565b610459565b005b6100e2610563565b6040516100ef91906116fa565b60405180910390f35b610112600480360361010d91908101906111bc565b610695565b005b61012e600480360361012991908101906112b9565b61079f565b005b610138610cf0565b60405161014591906116fa565b60405180910390f35b6000600360009054906101000a900473ffffffffffffffffffffffffffffffffffffffff1673ffffffffffffffffffffffffffffffffffffffff166334c1e0d2600260009054906101000a900473ffffffffffffffffffffffffffffffffffffffff1673ffffffffffffffffffffffffffffffffffffffff1663cb00612f336040518263ffffffff1660e01b81526004016101e991906116af565b60006040518083038186803b15801561020157600080fd5b505afa158015610215573d6000803e3d6000fd5b505050506040513d6000823e3d601f19601f8201168201806040525061023e9190810190611278565b6040518263ffffffff1660e01b815260040161025a919061174c565b60206040518083038186803b15801561027257600080fd5b505afa158015610286573d6000803e3d6000fd5b505050506040513d601f19601f820116820180604052506102aa91908101906111e5565b73ffffffffffffffffffffffffffffffffffffffff1663a9a981a36040518163ffffffff1660e01b815260040160206040518083038186803b1580156102ef57600080fd5b505afa158015610303573d6000803e3d6000fd5b505050506040513d601f19601f820116820180604052506103279190810190611350565b905090565b6000600360009054906101000a900473ffffffffffffffffffffffffffffffffffffffff1673ffffffffffffffffffffffffffffffffffffffff166334c1e0d26040518163ffffffff1660e01b81526004016103879061176e565b60206040518083038186803b15801561039f57600080fd5b505afa1580156103b3573d6000803e3d6000fd5b505050506040513d601f19601f820116820180604052506103d791908101906111e5565b73ffffffffffffffffffffffffffffffffffffffff1663a9a981a36040518163ffffffff1660e01b815260040160206040518083038186803b15801561041c57600080fd5b505afa158015610430573d6000803e3d6000fd5b505050506040513d601f19601f820116820180604052506104549190810190611350565b905090565b6000809054906101000a900473ffffffffffffffffffffffffffffffffffffffff1673ffffffffffffffffffffffffffffffffffffffff163373ffffffffffffffffffffffffffffffffffffffff16146104e8576040517f08c379a00000000000000000000000000000000000000000000000000000000081526004016104df9061178e565b60405180910390fd5b80600260006101000a81548173ffffffffffffffffffffffffffffffffffffffff021916908373ffffffffffffffffffffffffffffffffffffffff1602179055507f787e0efc297163fab495de1396fe0ac98270303a3e16dc58d3b5d640eaa8b96a816040516105589190611694565b60405180910390a150565b6060600360009054906101000a900473ffffffffffffffffffffffffffffffffffffffff1673ffffffffffffffffffffffffffffffffffffffff166334c1e0d26040518163ffffffff1660e01b81526004016105be9061176e565b60206040518083038186803b1580156105d657600080fd5b505afa1580156105ea573d6000803e3d6000fd5b505050506040513d601f19601f8201168201806040525061060e91908101906111e5565b73ffffffffffffffffffffffffffffffffffffffff166306a49fce6040518163ffffffff1660e01b815260040160006040518083038186803b15801561065357600080fd5b505afa158015610667573d6000803e3d6000fd5b505050506040513d6000823e3d601f19601f82011682018060405250610690919081019061120e565b905090565b6000809054906101000a900473ffffffffffffffffffffffffffffffffffffffff1673ffffffffffffffffffffffffffffffffffffffff163373ffffffffffffffffffffffffffffffffffffffff1614610724576040517f08c379a000000000000000000000000000000000000000000000000000000000815260040161071b9061178e565b60405180910390fd5b80600360006101000a81548173ffffffffffffffffffffffffffffffffffffffff021916908373ffffffffffffffffffffffffffffffffffffffff1602179055507f0bc6f71c52ff49c483e56a2d9cabc85a40ca883804eecabed272cea7e2144802816040516107949190611694565b60405180910390a150565b60011515600260009054906101000a900473ffffffffffffffffffffffffffffffffffffffff1673ffffffffffffffffffffffffffffffffffffffff166343a9616f336040518263ffffffff1660e01b81526004016107fe91906116af565b60206040518083038186803b15801561081657600080fd5b505afa15801561082a573d6000803e3d6000fd5b505050506040513d601f19601f8201168201806040525061084e919081019061124f565b151514610890576040517f08c379a0000000000000000000000000000000000000000000000000000000008152600401610887906117ce565b60405180910390fd5b60011515600260009054906101000a900473ffffffffffffffffffffffffffffffffffffffff1673ffffffffffffffffffffffffffffffffffffffff1663b3d599d133866040518363ffffffff1660e01b81526004016108f19291906116ca565b60206040518083038186803b15801561090957600080fd5b505afa15801561091d573d6000803e3d6000fd5b505050506040513d601f19601f82011682018060405250610941919081019061124f565b151514610983576040517f08c379a000000000000000000000000000000000000000000000000000000000815260040161097a906117ae565b60405180910390fd5b600360009054906101000a900473ffffffffffffffffffffffffffffffffffffffff1673ffffffffffffffffffffffffffffffffffffffff166334c1e0d26040518163ffffffff1660e01b81526004016109dc9061176e565b60206040518083038186803b1580156109f457600080fd5b505afa158015610a08573d6000803e3d6000fd5b505050506040513d601f19601f82011682018060405250610a2c91908101906111e5565b73ffffffffffffffffffffffffffffffffffffffff1663d04fbd7a83336040518363ffffffff1660e01b8152600401610a6692919061171c565b600060405180830381600087803b158015610a8057600080fd5b505af1158015610a94573d6000803e3d6000fd5b50505050600360009054906101000a900473ffffffffffffffffffffffffffffffffffffffff1673ffffffffffffffffffffffffffffffffffffffff166334c1e0d2600260009054906101000a900473ffffffffffffffffffffffffffffffffffffffff1673ffffffffffffffffffffffffffffffffffffffff1663cb00612f336040518263ffffffff1660e01b8152600401610b3191906116af565b60006040518083038186803b158015610b4957600080fd5b505afa158015610b5d573d6000803e3d6000fd5b505050506040513d6000823e3d601f19601f82011682018060405250610b869190810190611278565b6040518263ffffffff1660e01b8152600401610ba2919061174c565b60206040518083038186803b158015610bba57600080fd5b505afa158015610bce573d6000803e3d6000fd5b505050506040513d601f19601f82011682018060405250610bf291908101906111e5565b73ffffffffffffffffffffffffffffffffffffffff1663d04fbd7a82336040518363ffffffff1660e01b8152600401610c2c92919061171c565b600060405180830381600087803b158015610c4657600080fd5b505af1158015610c5a573d6000803e3d6000fd5b50505050600260009054906101000a900473ffffffffffffffffffffffffffffffffffffffff1673ffffffffffffffffffffffffffffffffffffffff166309eef43e336040518263ffffffff1660e01b8152600401610cb991906116af565b600060405180830381600087803b158015610cd357600080fd5b505af1158015610ce7573d6000803e3d6000fd5b50505050505050565b6060600360009054906101000a900473ffffffffffffffffffffffffffffffffffffffff1673ffffffffffffffffffffffffffffffffffffffff166334c1e0d2600260009054906101000a900473ffffffffffffffffffffffffffffffffffffffff1673ffffffffffffffffffffffffffffffffffffffff1663cb00612f336040518263ffffffff1660e01b8152600401610d8b91906116af565b60006040518083038186803b158015610da357600080fd5b505afa158015610db7573d6000803e3d6000fd5b505050506040513d6000823e3d601f19601f82011682018060405250610de09190810190611278565b6040518263ffffffff1660e01b8152600401610dfc919061174c565b60206040518083038186803b158015610e1457600080fd5b505afa158015610e28573d6000803e3d6000fd5b505050506040513d601f19601f82011682018060405250610e4c91908101906111e5565b73ffffffffffffffffffffffffffffffffffffffff166306a49fce6040518163ffffffff1660e01b815260040160006040518083038186803b158015610e9157600080fd5b505afa158015610ea5573d6000803e3d6000fd5b505050506040513d6000823e3d601f19601f82011682018060405250610ece919081019061120e565b905090565b600081359050610ee281611a67565b92915050565b600081519050610ef781611a67565b92915050565b600082601f830112610f0e57600080fd5b8151610f21610f1c82611836565b611809565b9150818183526020840193506020810190508360005b83811015610f675781518601610f4d8882611105565b845260208401935060208301925050600181019050610f37565b5050505092915050565b600082601f830112610f8257600080fd5b8135610f95610f908261185e565b611809565b91508181835260208401935060208101905083856020840282011115610fba57600080fd5b60005b83811015610fea5781610fd08882611192565b845260208401935060208301925050600181019050610fbd565b5050505092915050565b60008151905061100381611a7e565b92915050565b600082601f83011261101a57600080fd5b815161102d61102882611886565b611809565b9150808252602083016020830185838301111561104957600080fd5b611054838284611a23565b50505092915050565b600082601f83011261106e57600080fd5b813561108161107c826118b2565b611809565b9150808252602083016020830185838301111561109d57600080fd5b6110a8838284611a14565b50505092915050565b600082601f8301126110c257600080fd5b81516110d56110d0826118b2565b611809565b915080825260208301602083018583830111156110f157600080fd5b6110fc838284611a23565b50505092915050565b60006060828403121561111757600080fd5b6111216060611809565b9050600082015167ffffffffffffffff81111561113d57600080fd5b61114984828501611009565b600083015250602061115d84828501610ee8565b60208301525060406111718482850161117d565b60408301525092915050565b60008151905061118c81611a95565b92915050565b6000813590506111a181611aac565b92915050565b6000815190506111b681611aac565b92915050565b6000602082840312156111ce57600080fd5b60006111dc84828501610ed3565b91505092915050565b6000602082840312156111f757600080fd5b600061120584828501610ee8565b91505092915050565b60006020828403121561122057600080fd5b600082015167ffffffffffffffff81111561123a57600080fd5b61124684828501610efd565b91505092915050565b60006020828403121561126157600080fd5b600061126f84828501610ff4565b91505092915050565b60006020828403121561128a57600080fd5b600082015167ffffffffffffffff8111156112a457600080fd5b6112b0848285016110b1565b91505092915050565b6000806000606084860312156112ce57600080fd5b600084013567ffffffffffffffff8111156112e857600080fd5b6112f48682870161105d565b935050602084013567ffffffffffffffff81111561131157600080fd5b61131d86828701610f71565b925050604084013567ffffffffffffffff81111561133a57600080fd5b61134686828701610f71565b9150509250925092565b60006020828403121561136257600080fd5b6000611370848285016111a7565b91505092915050565b60006113858383611617565b905092915050565b60006113998383611676565b60208301905092915050565b6113ae816119de565b82525050565b6113bd81611988565b82525050565b6113cc81611988565b82525050565b60006113dd826118fe565b6113e78185611944565b9350836020820285016113f9856118de565b8060005b8581101561143557848403895281516114168582611379565b94506114218361192a565b925060208a019950506001810190506113fd565b50829750879550505050505092915050565b600061145282611909565b61145c8185611955565b9350611467836118ee565b8060005b8381101561149857815161147f888261138d565b975061148a83611937565b92505060018101905061146b565b5085935050505092915050565b60006114b08261191f565b6114ba8185611977565b93506114ca818560208601611a23565b6114d381611a56565b840191505092915050565b60006114e982611914565b6114f38185611966565b9350611503818560208601611a23565b61150c81611a56565b840191505092915050565b6000611524600883611977565b91507f4e4154494f4e414c0000000000000000000000000000000000000000000000006000830152602082019050919050565b6000611564601383611977565b91507f556e617574686f72697a656420416363657373000000000000000000000000006000830152602082019050919050565b60006115a4601483611977565b91507f496e76616c69642043726564656e7469616c73210000000000000000000000006000830152602082019050919050565b60006115e4601b83611977565b91507f596f75277265206e6f7420616c6c6f77656420746f20766f74652100000000006000830152602082019050919050565b6000606083016000830151848203600086015261163482826114de565b915050602083015161164960208601826113b4565b50604083015161165c6040860182611667565b508091505092915050565b611670816119a6565b82525050565b61167f816119d4565b82525050565b61168e816119d4565b82525050565b60006020820190506116a960008301846113c3565b92915050565b60006020820190506116c460008301846113a5565b92915050565b60006040820190506116df60008301856113a5565b81810360208301526116f181846114a5565b90509392505050565b6000602082019050818103600083015261171481846113d2565b905092915050565b600060408201905081810360008301526117368185611447565b905061174560208301846113a5565b9392505050565b6000602082019050818103600083015261176681846114a5565b905092915050565b6000602082019050818103600083015261178781611517565b9050919050565b600060208201905081810360008301526117a781611557565b9050919050565b600060208201905081810360008301526117c781611597565b9050919050565b600060208201905081810360008301526117e7816115d7565b9050919050565b60006020820190506118036000830184611685565b92915050565b6000604051905081810181811067ffffffffffffffff8211171561182c57600080fd5b8060405250919050565b600067ffffffffffffffff82111561184d57600080fd5b602082029050602081019050919050565b600067ffffffffffffffff82111561187557600080fd5b602082029050602081019050919050565b600067ffffffffffffffff82111561189d57600080fd5b601f19601f8301169050602081019050919050565b600067ffffffffffffffff8211156118c957600080fd5b601f19601f8301169050602081019050919050565b6000819050602082019050919050565b6000819050602082019050919050565b600081519050919050565b600081519050919050565b600081519050919050565b600081519050919050565b6000602082019050919050565b6000602082019050919050565b600082825260208201905092915050565b600082825260208201905092915050565b600082825260208201905092915050565b600082825260208201905092915050565b6000611993826119b4565b9050919050565b60008115159050919050565b600061ffff82169050919050565b600073ffffffffffffffffffffffffffffffffffffffff82169050919050565b6000819050919050565b60006119e9826119f0565b9050919050565b60006119fb82611a02565b9050919050565b6000611a0d826119b4565b9050919050565b82818337600083830152505050565b60005b83811015611a41578082015181840152602081019050611a26565b83811115611a50576000848401525b50505050565b6000601f19601f8301169050919050565b611a7081611988565b8114611a7b57600080fd5b50565b611a878161199a565b8114611a9257600080fd5b50565b611a9e816119a6565b8114611aa957600080fd5b50565b611ab5816119d4565b8114611ac057600080fd5b5056fea365627a7a72315820113abe72e1032c2c29ca33c9777cd1d5afef9129ac668c7dc4f1226da9fc3c066c6578706572696d656e74616cf564736f6c63430005100040",
  "source": "pragma solidity >=0.4.22 <0.7.0;\npragma experimental ABIEncoderV2;\n\nimport \"./Registration.sol\";\nimport \"./SetupBlockchain.sol\";\nimport \"./Ballot.sol\";\n\ncontract Election{\n    address ElectionAdmin;\n    uint ElectionDealine;\n    Registration registration;\n    SetupBlockchain setup;\n    event RegistrationLinked(\n        address RegistrationAddress\n    );\n\n    event SetupBlockchainLinked(\n        address SetupAddress\n    );\n    \n    constructor() public{\n        ElectionAdmin = msg.sender;\n        ElectionDealine = now + 86400;\n    }\n    modifier administrative() {\n        require(msg.sender == ElectionAdmin,\"Unauthorized Access\");\n        _;\n    }\n\n    function vote(string memory _uniqueID, uint256[] memory _nationalVotes, uint256[] memory _localVotes) public{\n        require(registration.votingStatus(msg.sender) == true, \"You're not allowed to vote!\");\n        require(registration.authenticateID(msg.sender,_uniqueID) == true, \"Invalid Credentials!\");\n        Ballot(setup.getBallot(\"NATIONAL\")).vote(_nationalVotes,msg.sender);\n        Ballot(setup.getBallot(registration.getDistrict(msg.sender))).vote(_localVotes,msg.sender);\n        registration.hasVoted(msg.sender);\n    }\n    \n    function acquireRegistration(address _address) administrative public{\n        registration = Registration(_address);\n        emit RegistrationLinked(_address);\n    }\n    \n    function applySetup(address _address) administrative public {\n        setup = SetupBlockchain(_address);\n        emit SetupBlockchainLinked(_address);\n    }\n\n    /*For UI*/\n    function getNationalCandidates() public view returns(SetupBlockchain.candidate[] memory _candidates){\n        return Ballot(setup.getBallot(\"NATIONAL\")).getCandidates();\n    }\n\n    function getLocalCandidates() public view returns(SetupBlockchain.candidate[] memory _candidates){\n        return Ballot(setup.getBallot(registration.getDistrict(msg.sender))).getCandidates();\n    }\n\n    function getNationalCount() public view returns(uint _count){\n        return Ballot(setup.getBallot(\"NATIONAL\")).candidateCount();\n    }\n\n    function getLocalCount() public view returns(uint _count){\n        return Ballot(setup.getBallot(registration.getDistrict(msg.sender))).candidateCount();\n    }\n} \n",
  "sourcePath": "/home/ryan/Desktop/CoE-198/src/backend/contracts/Election.sol",
  "compiler": {
    "name": "solc",
    "version": "0.5.16+commit.9c3226ce.Emscripten.clang"
  },
  "schemaVersion": "3.2.0",
  "updatedAt": "2020-06-05T03:23:07.075Z",
  "networkType": "ethereum",
  "devdoc": {
    "methods": {}
  },
  "userdoc": {
    "methods": {}
  }
}