{
  "contractName": "Registration",
  "abi": [
    {
      "inputs": [],
      "payable": false,
      "stateMutability": "nonpayable",
      "type": "constructor"
    },
    {
      "anonymous": false,
      "inputs": [
        {
          "indexed": false,
          "internalType": "address",
          "name": "SetupAddress",
          "type": "address"
        }
      ],
      "name": "SetupBlockchainLinked",
      "type": "event"
    },
    {
      "anonymous": false,
      "inputs": [
        {
          "indexed": false,
          "internalType": "string",
          "name": "uniqueID",
          "type": "string"
        },
        {
          "indexed": false,
          "internalType": "bool",
          "name": "canVote",
          "type": "bool"
        },
        {
          "indexed": false,
          "internalType": "string",
          "name": "district",
          "type": "string"
        }
      ],
      "name": "VoterRegistered",
      "type": "event"
    },
    {
      "constant": true,
      "inputs": [],
      "name": "name",
      "outputs": [
        {
          "internalType": "string",
          "name": "",
          "type": "string"
        }
      ],
      "payable": false,
      "stateMutability": "view",
      "type": "function"
    },
    {
      "constant": true,
      "inputs": [],
      "name": "timelimit",
      "outputs": [
        {
          "internalType": "uint256",
          "name": "",
          "type": "uint256"
        }
      ],
      "payable": false,
      "stateMutability": "view",
      "type": "function"
    },
    {
      "constant": false,
      "inputs": [
        {
          "internalType": "string",
          "name": "_uniqueID",
          "type": "string"
        },
        {
          "internalType": "string",
          "name": "_district",
          "type": "string"
        }
      ],
      "name": "registerVoter",
      "outputs": [],
      "payable": false,
      "stateMutability": "nonpayable",
      "type": "function"
    },
    {
      "constant": false,
      "inputs": [
        {
          "internalType": "address",
          "name": "_address",
          "type": "address"
        }
      ],
      "name": "applySetup",
      "outputs": [],
      "payable": false,
      "stateMutability": "nonpayable",
      "type": "function"
    },
    {
      "constant": true,
      "inputs": [
        {
          "internalType": "address",
          "name": "_address",
          "type": "address"
        },
        {
          "internalType": "string",
          "name": "_uniqueID",
          "type": "string"
        }
      ],
      "name": "authenticateID",
      "outputs": [
        {
          "internalType": "bool",
          "name": "_authenticated",
          "type": "bool"
        }
      ],
      "payable": false,
      "stateMutability": "view",
      "type": "function"
    },
    {
      "constant": true,
      "inputs": [
        {
          "internalType": "address",
          "name": "_address",
          "type": "address"
        }
      ],
      "name": "getDistrict",
      "outputs": [
        {
          "internalType": "string",
          "name": "_district",
          "type": "string"
        }
      ],
      "payable": false,
      "stateMutability": "view",
      "type": "function"
    },
    {
      "constant": true,
      "inputs": [
        {
          "internalType": "address",
          "name": "_address",
          "type": "address"
        }
      ],
      "name": "votingStatus",
      "outputs": [
        {
          "internalType": "bool",
          "name": "_votestatus",
          "type": "bool"
        }
      ],
      "payable": false,
      "stateMutability": "view",
      "type": "function"
    },
    {
      "constant": false,
      "inputs": [
        {
          "internalType": "address",
          "name": "_address",
          "type": "address"
        }
      ],
      "name": "hasVoted",
      "outputs": [],
      "payable": false,
      "stateMutability": "nonpayable",
      "type": "function"
    }
  ],
  "bytecode": "0x608060405234801561001057600080fd5b506040518060400160405280601781526020017f526567697374726174696f6e20426c6f636b636861696e0000000000000000008152506000908051906020019061005c9291906100af565b5062015180420160028190555033600160006101000a81548173ffffffffffffffffffffffffffffffffffffffff021916908373ffffffffffffffffffffffffffffffffffffffff160217905550610154565b828054600181600116156101000203166002900490600052602060002090601f016020900481019282601f106100f057805160ff191683800117855561011e565b8280016001018555821561011e579182015b8281111561011d578251825591602001919060010190610102565b5b50905061012b919061012f565b5090565b61015191905b8082111561014d576000816000905550600101610135565b5090565b90565b610efc806101636000396000f3fe608060405234801561001057600080fd5b50600436106100885760003560e01c80638a4c88471161005b5780638a4c884714610115578063b3d599d114610131578063cb00612f14610161578063e656169f1461019157610088565b806306fdde031461008d57806309eef43e146100ab57806343a9616f146100c757806387963f8e146100f7575b600080fd5b6100956101ad565b6040516100a29190610c83565b60405180910390f35b6100c560048036036100c09190810190610958565b61024b565b005b6100e160048036036100dc9190810190610958565b6102a9565b6040516100ee9190610c68565b60405180910390f35b6100ff610302565b60405161010c9190610d4c565b60405180910390f35b61012f600480360361012a91908101906109d5565b610308565b005b61014b60048036036101469190810190610981565b6105f7565b6040516101589190610c68565b60405180910390f35b61017b60048036036101769190810190610958565b610691565b6040516101889190610ca5565b60405180910390f35b6101ab60048036036101a69190810190610958565b610775565b005b60008054600181600116156101000203166002900480601f0160208091040260200160405190810160405280929190818152602001828054600181600116156101000203166002900480156102435780601f1061021857610100808354040283529160200191610243565b820191906000526020600020905b81548152906001019060200180831161022657829003601f168201915b505050505081565b6000600460008373ffffffffffffffffffffffffffffffffffffffff1673ffffffffffffffffffffffffffffffffffffffff16815260200190815260200160002060010160006101000a81548160ff02191690831515021790555050565b6000600460008373ffffffffffffffffffffffffffffffffffffffff1673ffffffffffffffffffffffffffffffffffffffff16815260200190815260200160002060010160009054906101000a900460ff169050919050565b60025481565b6000600460003373ffffffffffffffffffffffffffffffffffffffff1673ffffffffffffffffffffffffffffffffffffffff168152602001908152602001600020600001805460018160011615610100020316600290049050146103a1576040517f08c379a000000000000000000000000000000000000000000000000000000000815260040161039890610d2c565b60405180910390fd5b60001515600460003373ffffffffffffffffffffffffffffffffffffffff1673ffffffffffffffffffffffffffffffffffffffff16815260200190815260200160002060010160009054906101000a900460ff16151514610437576040517f08c379a000000000000000000000000000000000000000000000000000000000815260040161042e90610d2c565b60405180910390fd5b600254421061047b576040517f08c379a000000000000000000000000000000000000000000000000000000000815260040161047290610d0c565b60405180910390fd5b600360009054906101000a900473ffffffffffffffffffffffffffffffffffffffff1673ffffffffffffffffffffffffffffffffffffffff166365ceffc16040518163ffffffff1660e01b8152600401600060405180830381600087803b1580156104e557600080fd5b505af11580156104f9573d6000803e3d6000fd5b50505050604051806060016040528083815260200160011515815260200182815250600460003373ffffffffffffffffffffffffffffffffffffffff1673ffffffffffffffffffffffffffffffffffffffff168152602001908152602001600020600082015181600001908051906020019061057692919061084a565b5060208201518160010160006101000a81548160ff02191690831515021790555060408201518160020190805190602001906105b392919061084a565b509050507fdc5212757390bb5a81b033fb783c93c150d0cab279533eb9504fa1435e8e26a9826001836040516105eb93929190610cc7565b60405180910390a15050565b60008160405160200161060a9190610c1f565b60405160208183030381529060405280519060200120600460008573ffffffffffffffffffffffffffffffffffffffff1673ffffffffffffffffffffffffffffffffffffffff1681526020019081526020016000206000016040516020016106729190610c36565b6040516020818303038152906040528051906020012014905092915050565b6060600460008373ffffffffffffffffffffffffffffffffffffffff1673ffffffffffffffffffffffffffffffffffffffff1681526020019081526020016000206002018054600181600116156101000203166002900480601f0160208091040260200160405190810160405280929190818152602001828054600181600116156101000203166002900480156107695780601f1061073e57610100808354040283529160200191610769565b820191906000526020600020905b81548152906001019060200180831161074c57829003601f168201915b50505050509050919050565b600160009054906101000a900473ffffffffffffffffffffffffffffffffffffffff1673ffffffffffffffffffffffffffffffffffffffff163373ffffffffffffffffffffffffffffffffffffffff16146107cf57600080fd5b80600360006101000a81548173ffffffffffffffffffffffffffffffffffffffff021916908373ffffffffffffffffffffffffffffffffffffffff1602179055507f0bc6f71c52ff49c483e56a2d9cabc85a40ca883804eecabed272cea7e21448028160405161083f9190610c4d565b60405180910390a150565b828054600181600116156101000203166002900490600052602060002090601f016020900481019282601f1061088b57805160ff19168380011785556108b9565b828001600101855582156108b9579182015b828111156108b857825182559160200191906001019061089d565b5b5090506108c691906108ca565b5090565b6108ec91905b808211156108e85760008160009055506001016108d0565b5090565b90565b6000813590506108fe81610ea2565b92915050565b600082601f83011261091557600080fd5b813561092861092382610d94565b610d67565b9150808252602083016020830185838301111561094457600080fd5b61094f838284610e4f565b50505092915050565b60006020828403121561096a57600080fd5b6000610978848285016108ef565b91505092915050565b6000806040838503121561099457600080fd5b60006109a2858286016108ef565b925050602083013567ffffffffffffffff8111156109bf57600080fd5b6109cb85828601610904565b9150509250929050565b600080604083850312156109e857600080fd5b600083013567ffffffffffffffff811115610a0257600080fd5b610a0e85828601610904565b925050602083013567ffffffffffffffff811115610a2b57600080fd5b610a3785828601610904565b9150509250929050565b610a4a81610e07565b82525050565b610a5981610e19565b82525050565b6000610a6a82610de0565b610a748185610deb565b9350610a84818560208601610e5e565b610a8d81610e91565b840191505092915050565b6000610aa382610de0565b610aad8185610dfc565b9350610abd818560208601610e5e565b80840191505092915050565b6000610ad482610dd5565b610ade8185610deb565b9350610aee818560208601610e5e565b610af781610e91565b840191505092915050565b600081546001811660008114610b1f5760018114610b4457610b88565b607f6002830416610b308187610dfc565b955060ff1983168652808601935050610b88565b60028204610b528187610dfc565b9550610b5d85610dc0565b60005b82811015610b7f57815481890152600182019150602081019050610b60565b82880195505050505b505092915050565b6000610b9d601d83610deb565b91507f526567697374726174696f6e20706572696f642068617320656e6465640000006000830152602082019050919050565b6000610bdd601983610deb565b91507f566f74657220616c7265616479207265676973746572656421000000000000006000830152602082019050919050565b610c1981610e45565b82525050565b6000610c2b8284610a98565b915081905092915050565b6000610c428284610b02565b915081905092915050565b6000602082019050610c626000830184610a41565b92915050565b6000602082019050610c7d6000830184610a50565b92915050565b60006020820190508181036000830152610c9d8184610ac9565b905092915050565b60006020820190508181036000830152610cbf8184610a5f565b905092915050565b60006060820190508181036000830152610ce18186610a5f565b9050610cf06020830185610a50565b8181036040830152610d028184610a5f565b9050949350505050565b60006020820190508181036000830152610d2581610b90565b9050919050565b60006020820190508181036000830152610d4581610bd0565b9050919050565b6000602082019050610d616000830184610c10565b92915050565b6000604051905081810181811067ffffffffffffffff82111715610d8a57600080fd5b8060405250919050565b600067ffffffffffffffff821115610dab57600080fd5b601f19601f8301169050602081019050919050565b60008190508160005260206000209050919050565b600081519050919050565b600081519050919050565b600082825260208201905092915050565b600081905092915050565b6000610e1282610e25565b9050919050565b60008115159050919050565b600073ffffffffffffffffffffffffffffffffffffffff82169050919050565b6000819050919050565b82818337600083830152505050565b60005b83811015610e7c578082015181840152602081019050610e61565b83811115610e8b576000848401525b50505050565b6000601f19601f8301169050919050565b610eab81610e07565b8114610eb657600080fd5b5056fea365627a7a72315820a243a6331f067c7b31b0cef5c8d28f150cc7f10dcea5a07b4ac87012887e59ec6c6578706572696d656e74616cf564736f6c63430005100040",
  "source": "//pragma solidity ^0.5.0;\npragma solidity >=0.4.22 <0.7.0;\npragma experimental ABIEncoderV2;\n\nimport \"./voterToken.sol\";\nimport \"./SetupBlockchain.sol\";\n\ncontract Registration{\n    string public name;\n    address private regAdmin;\n    uint public timelimit;\n    SetupBlockchain setup;\n    struct voter{\n        string uniqueID;\n        bool canVote;\n        string district;\n    }\n    \n    mapping(address => voter) registeredVoters;\n\n    event SetupBlockchainLinked(\n        address SetupAddress\n    );\n\n    event VoterRegistered(\n        string uniqueID,\n        bool canVote,\n        string district\n    );\n    \n    constructor() public{\n        name = \"Registration Blockchain\";\n        timelimit = now + 86400;\n        regAdmin = msg.sender;\n    }\n    function registerVoter(string memory _uniqueID,string memory _district) public{\n        require((bytes(registeredVoters[msg.sender].uniqueID)).length == 0, \"Voter already registered!\");\n        require(registeredVoters[msg.sender].canVote == false, \"Voter already registered!\");\n        require(now < timelimit, \"Registration period has ended\");\n        \n        setup.allotToken();\n        \n        registeredVoters[msg.sender] = voter(\n            {\n                uniqueID: _uniqueID,\n                canVote: true,\n                district: _district\n            }\n        );\n\n        emit VoterRegistered(_uniqueID,true,_district);\n\n\n    }\n\n    function applySetup(address _address) public {\n        require(msg.sender == regAdmin);\n        setup = SetupBlockchain(_address);\n        emit SetupBlockchainLinked(_address);\n    }\n    function authenticateID(address _address,string memory _uniqueID) public view returns (bool _authenticated){\n        return (keccak256(abi.encodePacked((registeredVoters[_address].uniqueID)))) == (keccak256(abi.encodePacked((_uniqueID)))) ;\n    }\n    function getDistrict(address _address) public view returns(string memory _district){\n        return registeredVoters[_address].district;\n    }\n    \n    function votingStatus(address _address) public view returns (bool _votestatus){\n        return registeredVoters[_address].canVote;\n    }\n    function hasVoted(address _address) public{\n        registeredVoters[_address].canVote = false;\n    }\n}\n",
  "sourcePath": "/home/ryan/Desktop/CoE-198/src/backend/contracts/Registration.sol",
  "compiler": {
    "name": "solc",
    "version": "0.5.16+commit.9c3226ce.Emscripten.clang"
  },
  "schemaVersion": "3.2.0",
  "updatedAt": "2020-06-05T03:23:07.069Z",
  "networkType": "ethereum",
  "devdoc": {
    "methods": {}
  },
  "userdoc": {
    "methods": {}
  }
}