{
  "contractName": "Results",
  "abi": [
    {
      "inputs": [],
      "payable": false,
      "stateMutability": "nonpayable",
      "type": "constructor"
    },
    {
      "anonymous": false,
      "inputs": [
        {
          "indexed": false,
          "internalType": "address",
          "name": "SetupAddress",
          "type": "address"
        }
      ],
      "name": "SetupBlockchainLinked",
      "type": "event"
    },
    {
      "constant": false,
      "inputs": [
        {
          "internalType": "address",
          "name": "_address",
          "type": "address"
        }
      ],
      "name": "applySetup",
      "outputs": [],
      "payable": false,
      "stateMutability": "nonpayable",
      "type": "function"
    },
    {
      "constant": false,
      "inputs": [
        {
          "internalType": "string",
          "name": "_district",
          "type": "string"
        },
        {
          "internalType": "uint16",
          "name": "_position",
          "type": "uint16"
        }
      ],
      "name": "processWinnerName",
      "outputs": [],
      "payable": false,
      "stateMutability": "nonpayable",
      "type": "function"
    },
    {
      "constant": true,
      "inputs": [],
      "name": "getWinnerName",
      "outputs": [
        {
          "internalType": "string",
          "name": "_name",
          "type": "string"
        }
      ],
      "payable": false,
      "stateMutability": "view",
      "type": "function"
    },
    {
      "constant": true,
      "inputs": [],
      "name": "getWinnerVotes",
      "outputs": [
        {
          "internalType": "uint256",
          "name": "_votes",
          "type": "uint256"
        }
      ],
      "payable": false,
      "stateMutability": "view",
      "type": "function"
    }
  ],
  "bytecode": "0x608060405234801561001057600080fd5b50336000806101000a81548173ffffffffffffffffffffffffffffffffffffffff021916908373ffffffffffffffffffffffffffffffffffffffff160217905550610a40806100606000396000f3fe608060405234801561001057600080fd5b506004361061004c5760003560e01c80632bfda515146100515780633cd93a5d1461006f57806373bf1fca1461008d578063e656169f146100a9575b600080fd5b6100596100c5565b60405161006691906107ed565b60405180910390f35b61007761016d565b604051610084919061085f565b60405180910390f35b6100a760048036036100a29190810190610697565b610179565b005b6100c360048036036100be919081019061066e565b6102d2565b005b606060026000016000018054600181600116156101000203166002900480601f0160208091040260200160405190810160405280929190818152602001828054600181600116156101000203166002900480156101635780601f1061013857610100808354040283529160200191610163565b820191906000526020600020905b81548152906001019060200180831161014657829003601f168201915b5050505050905090565b60006002800154905090565b600160009054906101000a900473ffffffffffffffffffffffffffffffffffffffff1673ffffffffffffffffffffffffffffffffffffffff1663e048b0f483836040518363ffffffff1660e01b81526004016101d692919061080f565b600060405180830381600087803b1580156101f057600080fd5b505af1158015610204573d6000803e3d6000fd5b505050506040513d6000823e3d601f19601f8201168201806040525061022d91908101906106eb565b600260008201518160000160008201518160000190805190602001906102549291906103dc565b5060208201518160010160006101000a81548173ffffffffffffffffffffffffffffffffffffffff021916908373ffffffffffffffffffffffffffffffffffffffff16021790555060408201518160010160146101000a81548161ffff021916908361ffff1602179055505050602082015181600201559050505050565b6000809054906101000a900473ffffffffffffffffffffffffffffffffffffffff1673ffffffffffffffffffffffffffffffffffffffff163373ffffffffffffffffffffffffffffffffffffffff1614610361576040517f08c379a00000000000000000000000000000000000000000000000000000000081526004016103589061083f565b60405180910390fd5b80600160006101000a81548173ffffffffffffffffffffffffffffffffffffffff021916908373ffffffffffffffffffffffffffffffffffffffff1602179055507f0bc6f71c52ff49c483e56a2d9cabc85a40ca883804eecabed272cea7e2144802816040516103d191906107d2565b60405180910390a150565b828054600181600116156101000203166002900490600052602060002090601f016020900481019282601f1061041d57805160ff191683800117855561044b565b8280016001018555821561044b579182015b8281111561044a57825182559160200191906001019061042f565b5b509050610458919061045c565b5090565b61047e91905b8082111561047a576000816000905550600101610462565b5090565b90565b600081359050610490816109b8565b92915050565b6000815190506104a5816109b8565b92915050565b600082601f8301126104bc57600080fd5b81516104cf6104ca826108a7565b61087a565b915080825260208301602083018583830111156104eb57600080fd5b6104f6838284610974565b50505092915050565b600082601f83011261051057600080fd5b813561052361051e826108d3565b61087a565b9150808252602083016020830185838301111561053f57600080fd5b61054a838284610965565b50505092915050565b60006060828403121561056557600080fd5b61056f606061087a565b9050600082015167ffffffffffffffff81111561058b57600080fd5b610597848285016104ab565b60008301525060206105ab84828501610496565b60208301525060406105bf84828501610644565b60408301525092915050565b6000604082840312156105dd57600080fd5b6105e7604061087a565b9050600082015167ffffffffffffffff81111561060357600080fd5b61060f84828501610553565b600083015250602061062384828501610659565b60208301525092915050565b60008135905061063e816109cf565b92915050565b600081519050610653816109cf565b92915050565b600081519050610668816109e6565b92915050565b60006020828403121561068057600080fd5b600061068e84828501610481565b91505092915050565b600080604083850312156106aa57600080fd5b600083013567ffffffffffffffff8111156106c457600080fd5b6106d0858286016104ff565b92505060206106e18582860161062f565b9150509250929050565b6000602082840312156106fd57600080fd5b600082015167ffffffffffffffff81111561071757600080fd5b610723848285016105cb565b91505092915050565b6107358161091b565b82525050565b6000610746826108ff565b610750818561090a565b9350610760818560208601610974565b610769816109a7565b840191505092915050565b600061078160138361090a565b91507f556e617574686f72697a656420416363657373000000000000000000000000006000830152602082019050919050565b6107bd8161092d565b82525050565b6107cc8161095b565b82525050565b60006020820190506107e7600083018461072c565b92915050565b60006020820190508181036000830152610807818461073b565b905092915050565b60006040820190508181036000830152610829818561073b565b905061083860208301846107b4565b9392505050565b6000602082019050818103600083015261085881610774565b9050919050565b600060208201905061087460008301846107c3565b92915050565b6000604051905081810181811067ffffffffffffffff8211171561089d57600080fd5b8060405250919050565b600067ffffffffffffffff8211156108be57600080fd5b601f19601f8301169050602081019050919050565b600067ffffffffffffffff8211156108ea57600080fd5b601f19601f8301169050602081019050919050565b600081519050919050565b600082825260208201905092915050565b60006109268261093b565b9050919050565b600061ffff82169050919050565b600073ffffffffffffffffffffffffffffffffffffffff82169050919050565b6000819050919050565b82818337600083830152505050565b60005b83811015610992578082015181840152602081019050610977565b838111156109a1576000848401525b50505050565b6000601f19601f8301169050919050565b6109c18161091b565b81146109cc57600080fd5b50565b6109d88161092d565b81146109e357600080fd5b50565b6109ef8161095b565b81146109fa57600080fd5b5056fea365627a7a723158204b4c071221da68a5714296f7e63a80bbb03ede204946ee22941a58a8de40de006c6578706572696d656e74616cf564736f6c63430005100040",
  "source": "pragma solidity >=0.4.22 <0.7.0;\npragma experimental ABIEncoderV2;\n\nimport './SetupBlockchain.sol';\n\n\ncontract Results{\n    address ResultsAdmin;\n    SetupBlockchain setup;\n    SetupBlockchain.results winner;\n\n    event SetupBlockchainLinked(\n        address SetupAddress\n    );\n\n    constructor () public{\n        ResultsAdmin = msg.sender;\n    }\n\n    modifier administrative() {\n        require(msg.sender == ResultsAdmin,\"Unauthorized Access\");\n        _;\n    }\n\n    function applySetup(address _address) administrative public {\n        setup = SetupBlockchain(_address);\n        emit SetupBlockchainLinked(_address);\n    }\n\n    function processWinnerName(string memory _district, uint16 _position) public{\n        winner = setup.getResult(_district,_position);\n    }\n\n    function getWinnerName() public view returns(string memory _name){\n        return winner.Candidates.name;\n    }\n\n    function getWinnerVotes() public view returns(uint256 _votes){\n        return winner.votes;\n    }\n}\n",
  "sourcePath": "/home/ryan/Desktop/CoE-198/src/backend/contracts/Results.sol",
  "compiler": {
    "name": "solc",
    "version": "0.5.16+commit.9c3226ce.Emscripten.clang"
  },
  "schemaVersion": "3.0.22",
  "updatedAt": "2020-06-02T13:30:14.276Z",
  "networkType": "ethereum",
  "devdoc": {
    "methods": {}
  },
  "userdoc": {
    "methods": {}
  }
}