{
  "contractName": "SetupBlockchain",
  "abi": [
    {
      "inputs": [],
      "payable": false,
      "stateMutability": "nonpayable",
      "type": "constructor"
    },
    {
      "anonymous": false,
      "inputs": [
        {
          "indexed": false,
          "internalType": "string",
          "name": "name",
          "type": "string"
        },
        {
          "indexed": false,
          "internalType": "address",
          "name": "candidateAddress",
          "type": "address"
        },
        {
          "indexed": false,
          "internalType": "uint16",
          "name": "position",
          "type": "uint16"
        }
      ],
      "name": "CandidatesCreated",
      "type": "event"
    },
    {
      "anonymous": false,
      "inputs": [
        {
          "indexed": false,
          "internalType": "address",
          "name": "RegistrationAddress",
          "type": "address"
        }
      ],
      "name": "RegistrationLinked",
      "type": "event"
    },
    {
      "anonymous": false,
      "inputs": [
        {
          "indexed": false,
          "internalType": "string",
          "name": "name",
          "type": "string"
        },
        {
          "indexed": false,
          "internalType": "address",
          "name": "tokenAddress",
          "type": "address"
        },
        {
          "indexed": false,
          "internalType": "uint256",
          "name": "amountPerVoter",
          "type": "uint256"
        },
        {
          "indexed": false,
          "internalType": "uint16",
          "name": "position",
          "type": "uint16"
        }
      ],
      "name": "TokensCreated",
      "type": "event"
    },
    {
      "constant": true,
      "inputs": [
        {
          "internalType": "uint256",
          "name": "",
          "type": "uint256"
        }
      ],
      "name": "votingTokenlist",
      "outputs": [
        {
          "internalType": "string",
          "name": "name",
          "type": "string"
        },
        {
          "internalType": "address",
          "name": "tokenAddress",
          "type": "address"
        },
        {
          "internalType": "uint256",
          "name": "amountPerVoter",
          "type": "uint256"
        },
        {
          "internalType": "uint16",
          "name": "position",
          "type": "uint16"
        }
      ],
      "payable": false,
      "stateMutability": "view",
      "type": "function"
    },
    {
      "constant": false,
      "inputs": [
        {
          "internalType": "string[]",
          "name": "_name",
          "type": "string[]"
        },
        {
          "internalType": "string[]",
          "name": "_symbol",
          "type": "string[]"
        },
        {
          "internalType": "uint256[]",
          "name": "_amountPerVoter",
          "type": "uint256[]"
        },
        {
          "internalType": "uint16[]",
          "name": "_position",
          "type": "uint16[]"
        }
      ],
      "name": "createToken",
      "outputs": [],
      "payable": false,
      "stateMutability": "nonpayable",
      "type": "function"
    },
    {
      "constant": false,
      "inputs": [
        {
          "internalType": "address",
          "name": "_address",
          "type": "address"
        }
      ],
      "name": "setReg",
      "outputs": [],
      "payable": false,
      "stateMutability": "nonpayable",
      "type": "function"
    },
    {
      "constant": false,
      "inputs": [
        {
          "components": [
            {
              "internalType": "string",
              "name": "name",
              "type": "string"
            },
            {
              "internalType": "address",
              "name": "candidateAddress",
              "type": "address"
            },
            {
              "internalType": "uint16",
              "name": "position",
              "type": "uint16"
            }
          ],
          "internalType": "struct SetupBlockchain.candidate[]",
          "name": "_Candidates",
          "type": "tuple[]"
        },
        {
          "internalType": "string",
          "name": "_district",
          "type": "string"
        }
      ],
      "name": "addCandidates",
      "outputs": [],
      "payable": false,
      "stateMutability": "nonpayable",
      "type": "function"
    },
    {
      "constant": false,
      "inputs": [
        {
          "internalType": "string",
          "name": "_district",
          "type": "string"
        }
      ],
      "name": "createBallot",
      "outputs": [],
      "payable": false,
      "stateMutability": "nonpayable",
      "type": "function"
    },
    {
      "constant": true,
      "inputs": [
        {
          "internalType": "string",
          "name": "_district",
          "type": "string"
        }
      ],
      "name": "getBallot",
      "outputs": [
        {
          "internalType": "address",
          "name": "_ballotAddress",
          "type": "address"
        }
      ],
      "payable": false,
      "stateMutability": "view",
      "type": "function"
    },
    {
      "constant": false,
      "inputs": [],
      "name": "allotToken",
      "outputs": [],
      "payable": false,
      "stateMutability": "nonpayable",
      "type": "function"
    },
    {
      "constant": false,
      "inputs": [
        {
          "internalType": "string",
          "name": "_districts",
          "type": "string"
        },
        {
          "internalType": "uint16",
          "name": "_position",
          "type": "uint16"
        }
      ],
      "name": "getResult",
      "outputs": [
        {
          "components": [
            {
              "components": [
                {
                  "internalType": "string",
                  "name": "name",
                  "type": "string"
                },
                {
                  "internalType": "address",
                  "name": "candidateAddress",
                  "type": "address"
                },
                {
                  "internalType": "uint16",
                  "name": "position",
                  "type": "uint16"
                }
              ],
              "internalType": "struct SetupBlockchain.candidate",
              "name": "Candidates",
              "type": "tuple"
            },
            {
              "internalType": "uint256",
              "name": "votes",
              "type": "uint256"
            }
          ],
          "internalType": "struct SetupBlockchain.results",
          "name": "_Array",
          "type": "tuple"
        }
      ],
      "payable": false,
      "stateMutability": "nonpayable",
      "type": "function"
    }
  ],
  "bytecode": "0x608060405234801561001057600080fd5b50336000806101000a81548173ffffffffffffffffffffffffffffffffffffffff021916908373ffffffffffffffffffffffffffffffffffffffff160217905550614714806100606000396000f3fe60806040523480156200001157600080fd5b5060043610620000945760003560e01c806397aab362116200006357806397aab362146200011b578063c428b787146200013b578063d83845e6146200015b578063e048b0f414620001945762000094565b806334c1e0d2146200009957806346a8657614620000cf57806365ceffc114620000ef5780638dbc899214620000fb575b600080fd5b620000b76004803603620000b1919081019062001e20565b620001ca565b604051620000c6919062002480565b60405180910390f35b620000ed6004803603620000e7919081019062001e20565b62000217565b005b620000f962000373565b005b62000119600480360362000113919081019062001dad565b620004fa565b005b62000139600480360362000133919081019062001cb1565b6200078b565b005b62000159600480360362000153919081019062001cdd565b6200089a565b005b62000179600480360362000173919081019062001ebf565b62000b6e565b6040516200018b949392919062002560565b60405180910390f35b620001b26004803603620001ac919081019062001e65565b62000c76565b604051620001c1919062002633565b60405180910390f35b6000600382604051620001de919062002467565b908152602001604051809103902060010160009054906101000a900473ffffffffffffffffffffffffffffffffffffffff169050919050565b6000809054906101000a900473ffffffffffffffffffffffffffffffffffffffff1673ffffffffffffffffffffffffffffffffffffffff163373ffffffffffffffffffffffffffffffffffffffff1614620002a9576040517f08c379a0000000000000000000000000000000000000000000000000000000008152600401620002a090620025ef565b60405180910390fd5b6000600382604051620002bd919062002467565b9081526020016040518091039020600001600183604051620002df9062001751565b620002ed93929190620024ca565b604051809103906000f0801580156200030a573d6000803e3d6000fd5b5090508060038360405162000320919062002467565b908152602001604051809103902060010160006101000a81548173ffffffffffffffffffffffffffffffffffffffff021916908373ffffffffffffffffffffffffffffffffffffffff1602179055505050565b600260009054906101000a900473ffffffffffffffffffffffffffffffffffffffff1673ffffffffffffffffffffffffffffffffffffffff163373ffffffffffffffffffffffffffffffffffffffff161462000406576040517f08c379a0000000000000000000000000000000000000000000000000000000008152600401620003fd9062002611565b60405180910390fd5b60008090505b600180549050811015620004f757600181815481106200042857fe5b906000526020600020906004020160010160009054906101000a900473ffffffffffffffffffffffffffffffffffffffff1673ffffffffffffffffffffffffffffffffffffffff166340c10f1932600184815481106200048457fe5b9060005260206000209060040201600201546040518363ffffffff1660e01b8152600401620004b59291906200249d565b600060405180830381600087803b158015620004d057600080fd5b505af1158015620004e5573d6000803e3d6000fd5b5050505080806001019150506200040c565b50565b6000809054906101000a900473ffffffffffffffffffffffffffffffffffffffff1673ffffffffffffffffffffffffffffffffffffffff163373ffffffffffffffffffffffffffffffffffffffff16146200058c576040517f08c379a00000000000000000000000000000000000000000000000000000000081526004016200058390620025ef565b60405180910390fd5b60008090505b82518110156200078657600382604051620005ae919062002467565b90815260200160405180910390206000016040518060600160405280858481518110620005d757fe5b6020026020010151600001518152602001858481518110620005f557fe5b60200260200101516020015173ffffffffffffffffffffffffffffffffffffffff1681526020018584815181106200062957fe5b60200260200101516040015161ffff16815250908060018154018082558091505090600182039060005260206000209060020201600090919290919091506000820151816000019080519060200190620006859291906200175f565b5060208201518160010160006101000a81548173ffffffffffffffffffffffffffffffffffffffff021916908373ffffffffffffffffffffffffffffffffffffffff16021790555060408201518160010160146101000a81548161ffff021916908361ffff1602179055505050507fa2f0400787b265d4b86a6acac281e6b26ea52219aec79272e84f48232ad796d88382815181106200072157fe5b6020026020010151600001518483815181106200073a57fe5b6020026020010151602001518584815181106200075357fe5b60200260200101516040015160405162000770939291906200251c565b60405180910390a1808060010191505062000592565b505050565b6000809054906101000a900473ffffffffffffffffffffffffffffffffffffffff1673ffffffffffffffffffffffffffffffffffffffff163373ffffffffffffffffffffffffffffffffffffffff16146200081d576040517f08c379a00000000000000000000000000000000000000000000000000000000081526004016200081490620025ef565b60405180910390fd5b80600260006101000a81548173ffffffffffffffffffffffffffffffffffffffff021916908373ffffffffffffffffffffffffffffffffffffffff1602179055507f787e0efc297163fab495de1396fe0ac98270303a3e16dc58d3b5d640eaa8b96a816040516200088f919062002480565b60405180910390a150565b6000809054906101000a900473ffffffffffffffffffffffffffffffffffffffff1673ffffffffffffffffffffffffffffffffffffffff163373ffffffffffffffffffffffffffffffffffffffff16146200092c576040517f08c379a00000000000000000000000000000000000000000000000000000000081526004016200092390620025ef565b60405180910390fd5b60008090505b845181101562000b675760008582815181106200094b57fe5b60200260200101518583815181106200096057fe5b60200260200101516040516200097690620017e6565b62000983929190620025b4565b604051809103906000f080158015620009a0573d6000803e3d6000fd5b50905060016040518060800160405280888581518110620009bd57fe5b602002602001015181526020018373ffffffffffffffffffffffffffffffffffffffff168152602001868581518110620009f357fe5b6020026020010151815260200185858151811062000a0d57fe5b602002602001015161ffff1681525090806001815401808255809150509060018203906000526020600020906004020160009091929091909150600082015181600001908051906020019062000a659291906200175f565b5060208201518160010160006101000a81548173ffffffffffffffffffffffffffffffffffffffff021916908373ffffffffffffffffffffffffffffffffffffffff1602179055506040820151816002015560608201518160030160006101000a81548161ffff021916908361ffff1602179055505050507f7c6111624971e29aa8ae61b8ec7586fcaede6c4c6dcbb6fee801a6022d8ab03c86838151811062000b0b57fe5b60200260200101518286858151811062000b2157fe5b602002602001015186868151811062000b3657fe5b602002602001015160405162000b50949392919062002560565b60405180910390a150808060010191505062000932565b5050505050565b6001818154811062000b7c57fe5b9060005260206000209060040201600091509050806000018054600181600116156101000203166002900480601f01602080910402602001604051908101604052809291908181526020018280546001816001161561010002031660029004801562000c2c5780601f1062000c005761010080835404028352916020019162000c2c565b820191906000526020600020905b81548152906001019060200180831162000c0e57829003601f168201915b5050505050908060010160009054906101000a900473ffffffffffffffffffffffffffffffffffffffff16908060020154908060030160009054906101000a900461ffff16905084565b62000c80620017f4565b6000600c8190555060008090505b60038460405162000ca0919062002467565b90815260200160405180910390206000018054905081101562000f43576004604051806060016040528060038760405162000cdc919062002467565b9081526020016040518091039020600001848154811062000cf957fe5b90600052602060002090600202016000018054600181600116156101000203166002900480601f01602080910402602001604051908101604052809291908181526020018280546001816001161561010002031660029004801562000da25780601f1062000d765761010080835404028352916020019162000da2565b820191906000526020600020905b81548152906001019060200180831162000d8457829003601f168201915b5050505050815260200160038760405162000dbe919062002467565b9081526020016040518091039020600001848154811062000ddb57fe5b906000526020600020906002020160010160009054906101000a900473ffffffffffffffffffffffffffffffffffffffff1673ffffffffffffffffffffffffffffffffffffffff16815260200160038760405162000e3a919062002467565b9081526020016040518091039020600001848154811062000e5757fe5b906000526020600020906002020160010160149054906101000a900461ffff1661ffff1681525090806001815401808255809150509060018203906000526020600020906002020160009091929091909150600082015181600001908051906020019062000ec79291906200175f565b5060208201518160010160006101000a81548173ffffffffffffffffffffffffffffffffffffffff021916908373ffffffffffffffffffffffffffffffffffffffff16021790555060408201518160010160146101000a81548161ffff021916908361ffff160217905550505050808060010191505062000c8e565b5060008090505b600480549050811015620011eb5760018361ffff168154811062000f6a57fe5b906000526020600020906004020160030160009054906101000a900461ffff1661ffff166004828154811062000f9c57fe5b906000526020600020906002020160010160149054906101000a900461ffff1661ffff161415620011dd57600560405180606001604052806004848154811062000fe257fe5b90600052602060002090600202016000018054600181600116156101000203166002900480601f0160208091040260200160405190810160405280929190818152602001828054600181600116156101000203166002900480156200108b5780601f106200105f576101008083540402835291602001916200108b565b820191906000526020600020905b8154815290600101906020018083116200106d57829003601f168201915b5050505050815260200160048481548110620010a357fe5b906000526020600020906002020160010160009054906101000a900473ffffffffffffffffffffffffffffffffffffffff1673ffffffffffffffffffffffffffffffffffffffff16815260200160048481548110620010fe57fe5b906000526020600020906002020160010160149054906101000a900461ffff1661ffff168152509080600181540180825580915050906001820390600052602060002090600202016000909192909190915060008201518160000190805190602001906200116e9291906200175f565b5060208201518160010160006101000a81548173ffffffffffffffffffffffffffffffffffffffff021916908373ffffffffffffffffffffffffffffffffffffffff16021790555060408201518160010160146101000a81548161ffff021916908361ffff1602179055505050505b808060010191505062000f4a565b5060008090505b6005805490508110156200141f5760018361ffff16815481106200121257fe5b906000526020600020906004020160010160009054906101000a900473ffffffffffffffffffffffffffffffffffffffff1673ffffffffffffffffffffffffffffffffffffffff166370a08231600583815481106200126d57fe5b906000526020600020906002020160010160009054906101000a900473ffffffffffffffffffffffffffffffffffffffff166040518263ffffffff1660e01b8152600401620012bd919062002480565b60206040518083038186803b158015620012d657600080fd5b505afa158015620012eb573d6000803e3d6000fd5b505050506040513d601f19601f8201168201806040525062001311919081019062001eeb565b600b81905550600c54600b5411156200141157600b54600c81905550600581815481106200133b57fe5b90600052602060002090600202016006600082018160000190805460018160011615610100020316600290046200137492919062001816565b506001820160009054906101000a900473ffffffffffffffffffffffffffffffffffffffff168160010160006101000a81548173ffffffffffffffffffffffffffffffffffffffff021916908373ffffffffffffffffffffffffffffffffffffffff1602179055506001820160149054906101000a900461ffff168160010160146101000a81548161ffff021916908361ffff1602179055509050505b8080600101915050620011f2565b5060405180604001604052806006604051806060016040529081600082018054600181600116156101000203166002900480601f016020809104026020016040519081016040528092919081815260200182805460018160011615610100020316600290048015620014d55780601f10620014a957610100808354040283529160200191620014d5565b820191906000526020600020905b815481529060010190602001808311620014b757829003601f168201915b505050505081526020016001820160009054906101000a900473ffffffffffffffffffffffffffffffffffffffff1673ffffffffffffffffffffffffffffffffffffffff1673ffffffffffffffffffffffffffffffffffffffff1681526020016001820160149054906101000a900461ffff1661ffff1661ffff16815250508152602001600c5481525060086000820151816000016000820151816000019080519060200190620015889291906200175f565b5060208201518160010160006101000a81548173ffffffffffffffffffffffffffffffffffffffff021916908373ffffffffffffffffffffffffffffffffffffffff16021790555060408201518160010160146101000a81548161ffff021916908361ffff160217905550505060208201518160020155905050600860405180604001604052908160008201604051806060016040529081600082018054600181600116156101000203166002900480601f016020809104026020016040519081016040528092919081815260200182805460018160011615610100020316600290048015620016bc5780601f106200169057610100808354040283529160200191620016bc565b820191906000526020600020905b8154815290600101906020018083116200169e57829003601f168201915b505050505081526020016001820160009054906101000a900473ffffffffffffffffffffffffffffffffffffffff1673ffffffffffffffffffffffffffffffffffffffff1673ffffffffffffffffffffffffffffffffffffffff1681526020016001820160149054906101000a900461ffff1661ffff1661ffff16815250508152602001600282015481525050905092915050565b6113d28062002a4e83390190565b828054600181600116156101000203166002900490600052602060002090601f016020900481019282601f10620017a257805160ff1916838001178555620017d3565b82800160010185558215620017d3579182015b82811115620017d2578251825591602001919060010190620017b5565b5b509050620017e29190620018a4565b5090565b6108b28062003e2083390190565b604051806040016040528062001809620018cc565b8152602001600081525090565b828054600181600116156101000203166002900490600052602060002090601f016020900481019282601f1062001851578054855562001891565b828001600101855582156200189157600052602060002091601f016020900482015b828111156200189057825482559160010191906001019062001873565b5b509050620018a09190620018a4565b5090565b620018c991905b80821115620018c5576000816000905550600101620018ab565b5090565b90565b604051806060016040528060608152602001600073ffffffffffffffffffffffffffffffffffffffff168152602001600061ffff1681525090565b6000813590506200191881620029ff565b92915050565b600082601f8301126200193057600080fd5b813562001947620019418262002685565b62002657565b9150818183526020840193506020810190508360005b8381101562001991578135860162001976888262001b32565b8452602084019350602083019250506001810190506200195d565b5050505092915050565b600082601f830112620019ad57600080fd5b8135620019c4620019be82620026ae565b62002657565b9150818183526020840193506020810190508360005b8381101562001a0e5781358601620019f3888262001bea565b845260208401935060208301925050600181019050620019da565b5050505092915050565b600082601f83011262001a2a57600080fd5b813562001a4162001a3b82620026d7565b62002657565b9150818183526020840193506020810190508385602084028201111562001a6757600080fd5b60005b8381101562001a9b578162001a80888262001c6c565b84526020840193506020830192505060018101905062001a6a565b5050505092915050565b600082601f83011262001ab757600080fd5b813562001ace62001ac88262002700565b62002657565b9150818183526020840193506020810190508385602084028201111562001af457600080fd5b60005b8381101562001b28578162001b0d888262001c83565b84526020840193506020830192505060018101905062001af7565b5050505092915050565b600082601f83011262001b4457600080fd5b813562001b5b62001b558262002729565b62002657565b9150808252602083016020830185838301111562001b7857600080fd5b62001b8583828462002917565b50505092915050565b600082601f83011262001ba057600080fd5b813562001bb762001bb18262002756565b62002657565b9150808252602083016020830185838301111562001bd457600080fd5b62001be183828462002917565b50505092915050565b60006060828403121562001bfd57600080fd5b62001c09606062002657565b9050600082013567ffffffffffffffff81111562001c2657600080fd5b62001c348482850162001b32565b600083015250602062001c4a8482850162001907565b602083015250604062001c608482850162001c6c565b60408301525092915050565b60008135905062001c7d8162002a19565b92915050565b60008135905062001c948162002a33565b92915050565b60008151905062001cab8162002a33565b92915050565b60006020828403121562001cc457600080fd5b600062001cd48482850162001907565b91505092915050565b6000806000806080858703121562001cf457600080fd5b600085013567ffffffffffffffff81111562001d0f57600080fd5b62001d1d878288016200191e565b945050602085013567ffffffffffffffff81111562001d3b57600080fd5b62001d49878288016200191e565b935050604085013567ffffffffffffffff81111562001d6757600080fd5b62001d758782880162001aa5565b925050606085013567ffffffffffffffff81111562001d9357600080fd5b62001da18782880162001a18565b91505092959194509250565b6000806040838503121562001dc157600080fd5b600083013567ffffffffffffffff81111562001ddc57600080fd5b62001dea858286016200199b565b925050602083013567ffffffffffffffff81111562001e0857600080fd5b62001e168582860162001b8e565b9150509250929050565b60006020828403121562001e3357600080fd5b600082013567ffffffffffffffff81111562001e4e57600080fd5b62001e5c8482850162001b8e565b91505092915050565b6000806040838503121562001e7957600080fd5b600083013567ffffffffffffffff81111562001e9457600080fd5b62001ea28582860162001b8e565b925050602062001eb58582860162001c6c565b9150509250929050565b60006020828403121562001ed257600080fd5b600062001ee28482850162001c83565b91505092915050565b60006020828403121562001efe57600080fd5b600062001f0e8482850162001c9a565b91505092915050565b600062001f258383620022e5565b905092915050565b600062001f3b838362002390565b905092915050565b62001f4e81620028db565b82525050565b62001f5f816200288f565b82525050565b62001f70816200288f565b82525050565b600062001f8382620027c2565b62001f8f818562002808565b93508360208202850162001fa38562002783565b8060005b8581101562001fe45784840389528162001fc2858262001f17565b945062001fcf83620027ee565b925060208a0199505060018101905062001fa7565b50829750879550505050505092915050565b60006200200382620027cd565b6200200f818562002819565b935083602082028501620020238562002798565b8060005b85811015620020645784840389528162002042858262001f2d565b94506200204f83620027fb565b925060208a0199505060018101905062002027565b50829750879550505050505092915050565b60006200208382620027e3565b6200208f81856200283b565b9350620020a181856020860162002926565b620020ac81620029d4565b840191505092915050565b6000620020c482620027e3565b620020d081856200284c565b9350620020e281856020860162002926565b80840191505092915050565b6000620020fb82620027d8565b6200210781856200282a565b93506200211981856020860162002926565b6200212481620029d4565b840191505092915050565b60006200213c82620027d8565b6200214881856200283b565b93506200215a81856020860162002926565b6200216581620029d4565b840191505092915050565b600081546001811660008114620021905760018114620021b95762002203565b607f6002830416620021a381876200282a565b955060ff19831686526020860193505062002203565b60028204620021c981876200282a565b9550620021d685620027ad565b60005b82811015620021fa57815481890152600182019150602081019050620021d9565b80880195505050505b505092915050565b60006200221a6013836200283b565b91507f556e617574686f72697a656420416363657373000000000000000000000000006000830152602082019050919050565b60006200225c6014836200283b565b91507f556e617574686f72697a656420616363657373210000000000000000000000006000830152602082019050919050565b60006060830160008301518482036000860152620022ae8282620020ee565b9150506020830151620022c5602086018262001f54565b506040830151620022da604086018262002423565b508091505092915050565b6000606083016000808401858303600087015262002304838262002170565b9250506001840154905062002319816200295c565b62002328602087018262001f54565b506200233481620029b6565b62002343604087018262002423565b50819250505092915050565b600060408301600083015184820360008601526200236e82826200228f565b915050602083015162002385602086018262002445565b508091505092915050565b60006080830160008084018583036000870152620023af838262002170565b92505060018401549050620023c4816200295c565b620023d3602087018262001f54565b5060028401549050620023e68162002998565b620023f5604087018262002445565b506003840154905062002408816200297a565b62002417606087018262002423565b50819250505092915050565b6200242e81620028a3565b82525050565b6200243f81620028a3565b82525050565b6200245081620028d1565b82525050565b6200246181620028d1565b82525050565b6000620024758284620020b7565b915081905092915050565b600060208201905062002497600083018462001f65565b92915050565b6000604082019050620024b4600083018562001f43565b620024c3602083018462002456565b9392505050565b60006060820190508181036000830152620024e6818662001f76565b90508181036020830152620024fc818562001ff6565b9050818103604083015262002512818462002076565b9050949350505050565b600060608201905081810360008301526200253881866200212f565b905062002549602083018562001f65565b62002558604083018462002434565b949350505050565b600060808201905081810360008301526200257c81876200212f565b90506200258d602083018662001f65565b6200259c604083018562002456565b620025ab606083018462002434565b95945050505050565b60006040820190508181036000830152620025d081856200212f565b90508181036020830152620025e681846200212f565b90509392505050565b600060208201905081810360008301526200260a816200220b565b9050919050565b600060208201905081810360008301526200262c816200224d565b9050919050565b600060208201905081810360008301526200264f81846200234f565b905092915050565b6000604051905081810181811067ffffffffffffffff821117156200267b57600080fd5b8060405250919050565b600067ffffffffffffffff8211156200269d57600080fd5b602082029050602081019050919050565b600067ffffffffffffffff821115620026c657600080fd5b602082029050602081019050919050565b600067ffffffffffffffff821115620026ef57600080fd5b602082029050602081019050919050565b600067ffffffffffffffff8211156200271857600080fd5b602082029050602081019050919050565b600067ffffffffffffffff8211156200274157600080fd5b601f19601f8301169050602081019050919050565b600067ffffffffffffffff8211156200276e57600080fd5b601f19601f8301169050602081019050919050565b60008190508160005260206000209050919050565b60008190508160005260206000209050919050565b60008190508160005260206000209050919050565b600081549050919050565b600081549050919050565b600081519050919050565b600081519050919050565b6000600282019050919050565b6000600482019050919050565b600082825260208201905092915050565b600082825260208201905092915050565b600082825260208201905092915050565b600082825260208201905092915050565b600081905092915050565b600073ffffffffffffffffffffffffffffffffffffffff82169050919050565b600061ffff82169050919050565b6000819050919050565b60006200289c82620028b1565b9050919050565b600061ffff82169050919050565b600073ffffffffffffffffffffffffffffffffffffffff82169050919050565b6000819050919050565b6000620028e882620028ef565b9050919050565b6000620028fc8262002903565b9050919050565b60006200291082620028b1565b9050919050565b82818337600083830152505050565b60005b838110156200294657808201518184015260208101905062002929565b8381111562002956576000848401525b50505050565b6000620029736200296d83620029e5565b62002857565b9050919050565b6000620029916200298b83620029e5565b62002877565b9050919050565b6000620029af620029a983620029e5565b62002885565b9050919050565b6000620029cd620029c783620029f2565b62002877565b9050919050565b6000601f19601f8301169050919050565b60008160001c9050919050565b60008160a01c9050919050565b62002a0a816200288f565b811462002a1657600080fd5b50565b62002a2481620028a3565b811462002a3057600080fd5b50565b62002a3e81620028d1565b811462002a4a57600080fd5b5056fe60806040523480156200001157600080fd5b50604051620013d2380380620013d28339818101604052620000379190810190620006f0565b336000806101000a81548173ffffffffffffffffffffffffffffffffffffffff021916908373ffffffffffffffffffffffffffffffffffffffff16021790555080600190805190602001906200008f929190620002a9565b5060008090505b8351811015620001e45760026040518060600160405280868481518110620000ba57fe5b6020026020010151600001518152602001868481518110620000d857fe5b60200260200101516020015173ffffffffffffffffffffffffffffffffffffffff1681526020018684815181106200010c57fe5b60200260200101516040015161ffff168152509080600181540180825580915050906001820390600052602060002090600202016000909192909190915060008201518160000190805190602001906200016892919062000330565b5060208201518160010160006101000a81548173ffffffffffffffffffffffffffffffffffffffff021916908373ffffffffffffffffffffffffffffffffffffffff16021790555060408201518160010160146101000a81548161ffff021916908361ffff160217905550505050808060010191505062000096565b5060008090505b82518161ffff1610156200029f576000838261ffff16815181106200020c57fe5b6020026020010151606001519050838261ffff16815181106200022b57fe5b602002602001015160200151600360008361ffff1661ffff16815260200190815260200160002060006101000a81548173ffffffffffffffffffffffffffffffffffffffff021916908373ffffffffffffffffffffffffffffffffffffffff160217905550508080600101915050620001eb565b505050506200093b565b828054600181600116156101000203166002900490600052602060002090601f016020900481019282601f10620002ec57805160ff19168380011785556200031d565b828001600101855582156200031d579182015b828111156200031c578251825591602001919060010190620002ff565b5b5090506200032c9190620003b7565b5090565b828054600181600116156101000203166002900490600052602060002090601f016020900481019282601f106200037357805160ff1916838001178555620003a4565b82800160010185558215620003a4579182015b82811115620003a357825182559160200191906001019062000386565b5b509050620003b39190620003b7565b5090565b620003dc91905b80821115620003d8576000816000905550600101620003be565b5090565b90565b600081519050620003f081620008ed565b92915050565b600082601f8301126200040857600080fd5b81516200041f6200041982620007bf565b62000791565b9150818183526020840193506020810190508360005b838110156200046957815186016200044e8882620005a8565b84526020840193506020830192505060018101905062000435565b5050505092915050565b600082601f8301126200048557600080fd5b81516200049c6200049682620007e8565b62000791565b9150818183526020840193506020810190508360005b83811015620004e65781518601620004cb88826200062a565b845260208401935060208301925050600181019050620004b2565b5050505092915050565b600082601f8301126200050257600080fd5b815162000519620005138262000811565b62000791565b915080825260208301602083018583830111156200053657600080fd5b62000543838284620008b7565b50505092915050565b600082601f8301126200055e57600080fd5b8151620005756200056f826200083e565b62000791565b915080825260208301602083018583830111156200059257600080fd5b6200059f838284620008b7565b50505092915050565b600060608284031215620005bb57600080fd5b620005c7606062000791565b9050600082015167ffffffffffffffff811115620005e457600080fd5b620005f284828501620004f0565b60008301525060206200060884828501620003df565b60208301525060406200061e84828501620006c2565b60408301525092915050565b6000608082840312156200063d57600080fd5b62000649608062000791565b9050600082015167ffffffffffffffff8111156200066657600080fd5b6200067484828501620004f0565b60008301525060206200068a84828501620003df565b6020830152506040620006a084828501620006d9565b6040830152506060620006b684828501620006c2565b60608301525092915050565b600081519050620006d38162000907565b92915050565b600081519050620006ea8162000921565b92915050565b6000806000606084860312156200070657600080fd5b600084015167ffffffffffffffff8111156200072157600080fd5b6200072f86828701620003f6565b935050602084015167ffffffffffffffff8111156200074d57600080fd5b6200075b8682870162000473565b925050604084015167ffffffffffffffff8111156200077957600080fd5b62000787868287016200054c565b9150509250925092565b6000604051905081810181811067ffffffffffffffff82111715620007b557600080fd5b8060405250919050565b600067ffffffffffffffff821115620007d757600080fd5b602082029050602081019050919050565b600067ffffffffffffffff8211156200080057600080fd5b602082029050602081019050919050565b600067ffffffffffffffff8211156200082957600080fd5b601f19601f8301169050602081019050919050565b600067ffffffffffffffff8211156200085657600080fd5b601f19601f8301169050602081019050919050565b600062000878826200088d565b9050919050565b600061ffff82169050919050565b600073ffffffffffffffffffffffffffffffffffffffff82169050919050565b6000819050919050565b60005b83811015620008d7578082015181840152602081019050620008ba565b83811115620008e7576000848401525b50505050565b620008f8816200086b565b81146200090457600080fd5b50565b62000912816200087f565b81146200091e57600080fd5b50565b6200092c81620008ad565b81146200093857600080fd5b50565b610a87806200094b6000396000f3fe608060405234801561001057600080fd5b506004361061004c5760003560e01c806306a49fce14610051578063290e92121461006f578063a9a981a3146100a1578063d04fbd7a146100bf575b600080fd5b6100596100db565b604051610066919061081d565b60405180910390f35b61008960048036036100849190810190610618565b610252565b6040516100989392919061083f565b60405180910390f35b6100a961034f565b6040516100b6919061087d565b60405180910390f35b6100d960048036036100d4919081019061059b565b61035c565b005b60606002805480602002602001604051908101604052809291908181526020016000905b828210156102495783829060005260206000209060020201604051806060016040529081600082018054600181600116156101000203166002900480601f0160208091040260200160405190810160405280929190818152602001828054600181600116156101000203166002900480156101bb5780601f10610190576101008083540402835291602001916101bb565b820191906000526020600020905b81548152906001019060200180831161019e57829003601f168201915b505050505081526020016001820160009054906101000a900473ffffffffffffffffffffffffffffffffffffffff1673ffffffffffffffffffffffffffffffffffffffff1673ffffffffffffffffffffffffffffffffffffffff1681526020016001820160149054906101000a900461ffff1661ffff1661ffff1681525050815260200190600101906100ff565b50505050905090565b6002818154811061025f57fe5b9060005260206000209060020201600091509050806000018054600181600116156101000203166002900480601f01602080910402602001604051908101604052809291908181526020018280546001816001161561010002031660029004801561030b5780601f106102e05761010080835404028352916020019161030b565b820191906000526020600020905b8154815290600101906020018083116102ee57829003601f168201915b5050505050908060010160009054906101000a900473ffffffffffffffffffffffffffffffffffffffff16908060010160149054906101000a900461ffff16905083565b6000600280549050905090565b60008090505b82518110156104d45760036000600285848151811061037d57fe5b60200260200101518154811061038f57fe5b906000526020600020906002020160010160149054906101000a900461ffff1661ffff1661ffff16815260200190815260200160002060009054906101000a900473ffffffffffffffffffffffffffffffffffffffff1673ffffffffffffffffffffffffffffffffffffffff1663beabacc883600286858151811061041057fe5b60200260200101518154811061042257fe5b906000526020600020906002020160010160009054906101000a900473ffffffffffffffffffffffffffffffffffffffff1660016040518463ffffffff1660e01b8152600401610474939291906107e6565b602060405180830381600087803b15801561048e57600080fd5b505af11580156104a2573d6000803e3d6000fd5b505050506040513d601f19601f820116820180604052506104c691908101906105ef565b508080600101915050610362565b505050565b6000813590506104e8816109ff565b92915050565b600082601f8301126104ff57600080fd5b813561051261050d826108c5565b610898565b9150818183526020840193506020810190508385602084028201111561053757600080fd5b60005b83811015610567578161054d8882610586565b84526020840193506020830192505060018101905061053a565b5050505092915050565b60008151905061058081610a16565b92915050565b60008135905061059581610a2d565b92915050565b600080604083850312156105ae57600080fd5b600083013567ffffffffffffffff8111156105c857600080fd5b6105d4858286016104ee565b92505060206105e5858286016104d9565b9150509250929050565b60006020828403121561060157600080fd5b600061060f84828501610571565b91505092915050565b60006020828403121561062a57600080fd5b600061063884828501610586565b91505092915050565b600061064d8383610769565b905092915050565b61065e81610953565b82525050565b61066d81610953565b82525050565b600061067e826108fd565b6106888185610920565b93508360208202850161069a856108ed565b8060005b858110156106d657848403895281516106b78582610641565b94506106c283610913565b925060208a0199505060018101905061069e565b50829750879550505050505092915050565b6106f1816109a9565b82525050565b600061070282610908565b61070c8185610931565b935061071c8185602086016109bb565b610725816109ee565b840191505092915050565b600061073b82610908565b6107458185610942565b93506107558185602086016109bb565b61075e816109ee565b840191505092915050565b6000606083016000830151848203600086015261078682826106f7565b915050602083015161079b6020860182610655565b5060408301516107ae60408601826107b9565b508091505092915050565b6107c281610971565b82525050565b6107d181610971565b82525050565b6107e08161099f565b82525050565b60006060820190506107fb6000830186610664565b6108086020830185610664565b61081560408301846106e8565b949350505050565b600060208201905081810360008301526108378184610673565b905092915050565b600060608201905081810360008301526108598186610730565b90506108686020830185610664565b61087560408301846107c8565b949350505050565b600060208201905061089260008301846107d7565b92915050565b6000604051905081810181811067ffffffffffffffff821117156108bb57600080fd5b8060405250919050565b600067ffffffffffffffff8211156108dc57600080fd5b602082029050602081019050919050565b6000819050602082019050919050565b600081519050919050565b600081519050919050565b6000602082019050919050565b600082825260208201905092915050565b600082825260208201905092915050565b600082825260208201905092915050565b600061095e8261097f565b9050919050565b60008115159050919050565b600061ffff82169050919050565b600073ffffffffffffffffffffffffffffffffffffffff82169050919050565b6000819050919050565b60006109b48261099f565b9050919050565b60005b838110156109d95780820151818401526020810190506109be565b838111156109e8576000848401525b50505050565b6000601f19601f8301169050919050565b610a0881610953565b8114610a1357600080fd5b50565b610a1f81610965565b8114610a2a57600080fd5b50565b610a368161099f565b8114610a4157600080fd5b5056fea365627a7a723158208a985fb3c09fa1fd813c1e99bd93c9a1510bfaf6c72e0834164fe02bef8a6c8a6c6578706572696d656e74616cf564736f6c63430005100040608060405234801561001057600080fd5b506040516108b23803806108b28339818101604052604081101561003357600080fd5b810190808051604051939291908464010000000082111561005357600080fd5b8382019150602082018581111561006957600080fd5b825186600182028301116401000000008211171561008657600080fd5b8083526020830192505050908051906020019080838360005b838110156100ba57808201518184015260208101905061009f565b50505050905090810190601f1680156100e75780820380516001836020036101000a031916815260200191505b506040526020018051604051939291908464010000000082111561010a57600080fd5b8382019150602082018581111561012057600080fd5b825186600182028301116401000000008211171561013d57600080fd5b8083526020830192505050908051906020019080838360005b83811015610171578082015181840152602081019050610156565b50505050905090810190601f16801561019e5780820380516001836020036101000a031916815260200191505b50604052505050336000806101000a81548173ffffffffffffffffffffffffffffffffffffffff021916908373ffffffffffffffffffffffffffffffffffffffff16021790555081600190805190602001906101fb92919061021a565b50806002908051906020019061021292919061021a565b5050506102bf565b828054600181600116156101000203166002900490600052602060002090601f016020900481019282601f1061025b57805160ff1916838001178555610289565b82800160010185558215610289579182015b8281111561028857825182559160200191906001019061026d565b5b509050610296919061029a565b5090565b6102bc91905b808211156102b85760008160009055506001016102a0565b5090565b90565b6105e4806102ce6000396000f3fe608060405234801561001057600080fd5b506004361061004c5760003560e01c806340c10f191461005157806370a082311461009f578063beabacc8146100f7578063e3d670d71461017d575b600080fd5b61009d6004803603604081101561006757600080fd5b81019080803573ffffffffffffffffffffffffffffffffffffffff169060200190929190803590602001909291905050506101d5565b005b6100e1600480360360208110156100b557600080fd5b81019080803573ffffffffffffffffffffffffffffffffffffffff169060200190929190505050610313565b6040518082815260200191505060405180910390f35b6101636004803603606081101561010d57600080fd5b81019080803573ffffffffffffffffffffffffffffffffffffffff169060200190929190803573ffffffffffffffffffffffffffffffffffffffff1690602001909291908035906020019092919050505061035c565b604051808215151515815260200191505060405180910390f35b6101bf6004803603602081101561019357600080fd5b81019080803573ffffffffffffffffffffffffffffffffffffffff169060200190929190505050610568565b6040518082815260200191505060405180910390f35b6000809054906101000a900473ffffffffffffffffffffffffffffffffffffffff1673ffffffffffffffffffffffffffffffffffffffff163373ffffffffffffffffffffffffffffffffffffffff161461027a576040517f08c379a000000000000000000000000000000000000000000000000000000000815260040180806020018281038252602f815260200180610581602f913960400191505060405180910390fd5b80600460008473ffffffffffffffffffffffffffffffffffffffff1673ffffffffffffffffffffffffffffffffffffffff1681526020019081526020016000205401600460008473ffffffffffffffffffffffffffffffffffffffff1673ffffffffffffffffffffffffffffffffffffffff16815260200190815260200160002081905550806003600082825401925050819055505050565b6000600460008373ffffffffffffffffffffffffffffffffffffffff1673ffffffffffffffffffffffffffffffffffffffff168152602001908152602001600020549050919050565b600081600460008673ffffffffffffffffffffffffffffffffffffffff1673ffffffffffffffffffffffffffffffffffffffff168152602001908152602001600020541015610413576040517f08c379a00000000000000000000000000000000000000000000000000000000081526004018080602001828103825260138152602001807f496e737566696369656e742042616c616e63650000000000000000000000000081525060200191505060405180910390fd5b826000806101000a81548173ffffffffffffffffffffffffffffffffffffffff021916908373ffffffffffffffffffffffffffffffffffffffff16021790555081600460008673ffffffffffffffffffffffffffffffffffffffff1673ffffffffffffffffffffffffffffffffffffffff1681526020019081526020016000205403600460008673ffffffffffffffffffffffffffffffffffffffff1673ffffffffffffffffffffffffffffffffffffffff1681526020019081526020016000208190555081600460008573ffffffffffffffffffffffffffffffffffffffff1673ffffffffffffffffffffffffffffffffffffffff1681526020019081526020016000205401600460008573ffffffffffffffffffffffffffffffffffffffff1673ffffffffffffffffffffffffffffffffffffffff16815260200190815260200160002081905550600190509392505050565b6004602052806000526040600020600091509050548156fe596f7520646f206e6f742068617665207065726d697373696f6e20746f20616c6f7420766f74696e6720746f6b656ea265627a7a723158205c073cdb46ec4de16de64075948066e3c00af95033497f3407ce7ea4da29c53464736f6c63430005100032a365627a7a723158205c6c380d066157b22eacec2342723c616b1b857957226abfc552beb4d4dad54a6c6578706572696d656e74616cf564736f6c63430005100040",
  "source": "pragma solidity >=0.4.22 <0.7.0;\npragma experimental ABIEncoderV2;\n\nimport \"./voterToken.sol\";\nimport \"./Ballot.sol\";\nimport \"./Registration.sol\";\n\ncontract SetupBlockchain{\n    address private setupAdmin;\n    votingToken[] public votingTokenlist;\n    address private regAddress;\n    mapping (string => district) DistrictElection;\n\n    /*Results.sol*/\n    candidate[] district_candidates;\n    candidate[] competition_candidates;\n    candidate winner;\n    results candidateAndVote;\n    uint256 buffer;\n    uint256 max;\n\n    struct votingToken{\n        string name;\n        address tokenAddress;\n        uint256 amountPerVoter;\n        uint16 position;\n    }\n\n    struct candidate{\n        string name;\n        address candidateAddress;\n        uint16 position;\n    }\n    \n    struct district{\n        candidate[] Candidates;\n        address ballot;\n    }\n\n    struct results{\n        candidate Candidates;\n        uint256 votes;\n    }\n\n    event CandidatesCreated(\n        string name,\n        address candidateAddress,\n        uint16 position\n    );\n\n    event TokensCreated(\n        string name,\n        address tokenAddress,\n        uint256 amountPerVoter,\n        uint16 position\n    );\n\n    event RegistrationLinked(\n        address RegistrationAddress\n    );\n    \n    constructor() public{\n        setupAdmin = msg.sender;\n    }\n    \n    modifier administrative() {\n        require(msg.sender == setupAdmin,\"Unauthorized Access\");\n        _;\n    }\n    \n    function createToken (string[] memory _name,\n    string[] memory _symbol,\n    uint256[] memory _amountPerVoter,\n    uint16[] memory _position)\n    administrative public {\n        for(uint i = 0 ;i < _name.length;i++){\n            voterToken newToken = new voterToken(_name[i],_symbol[i]);\n            votingTokenlist.push(votingToken(\n                {name: _name[i],\n                tokenAddress: address(newToken),\n                amountPerVoter: _amountPerVoter[i],\n                position: _position[i]\n                }\n            ));\n            emit TokensCreated(_name[i],address(newToken),_amountPerVoter[i],_position[i]);\n        }\n    }\n    function setReg(address _address)administrative public{\n        regAddress = _address;\n        emit RegistrationLinked(_address);\n    }\n    function addCandidates(candidate[] memory _Candidates, string memory _district) administrative public{\n        for (uint i = 0; i < _Candidates.length;i++){\n            DistrictElection[_district].Candidates.push(candidate({\n                name: _Candidates[i].name,\n                candidateAddress: _Candidates[i].candidateAddress,\n                position: _Candidates[i].position\n            }));\n            emit CandidatesCreated(_Candidates[i].name,_Candidates[i].candidateAddress,_Candidates[i].position);\n        }\n    }\n    function createBallot(string memory _district) administrative public {\n        Ballot newBallot = new Ballot(DistrictElection[_district].Candidates,votingTokenlist,_district);\n        DistrictElection[_district].ballot = address(newBallot);\n    }\n    function getBallot(string memory _district) public view returns(address _ballotAddress){\n        return DistrictElection[_district].ballot;\n    }\n    function allotToken() public{\n        require(msg.sender == regAddress, \"Unauthorized access!\");\n        for(uint i = 0;i < votingTokenlist.length;i++){\n            voterToken(votingTokenlist[i].tokenAddress).mint(tx.origin, votingTokenlist[i].amountPerVoter);\n        }\n    }\n    \n    function getResult(string memory _districts, uint16 _position) public returns(results memory _Array){\n        //Get all candidates from a certain district\n        max = 0; //reset the state of the maximum\n        for(uint i = 0; i < DistrictElection[_districts].Candidates.length; i++){\n            district_candidates.push(candidate({\n                name: DistrictElection[_districts].Candidates[i].name,\n                candidateAddress: DistrictElection[_districts].Candidates[i].candidateAddress,\n                position: DistrictElection[_districts].Candidates[i].position\n            }));\n        }\n        //Get all candidates from the same position from a certain district\n        for(uint j = 0; j < district_candidates.length; j++){\n            if(district_candidates[j].position == votingTokenlist[_position].position){\n                competition_candidates.push(candidate({\n                    name: district_candidates[j].name,\n                    candidateAddress: district_candidates[j].candidateAddress,\n                    position: district_candidates[j].position\n                }));\n            }\n        }\n        //Compare Balance of all same position, same district candidates, and PIC winner\n        for(uint k = 0; k < competition_candidates.length; k++){\n            buffer = voterToken(votingTokenlist[_position].tokenAddress).balanceOf(competition_candidates[k].candidateAddress);\n            if(buffer > max){\n                max = buffer;\n                winner = competition_candidates[k];\n            }\n        }\n        candidateAndVote = results({\n            Candidates: winner,\n            votes:max\n        });\n        return candidateAndVote;\n    }\n}\n",
  "sourcePath": "/home/ryan/Desktop/CoE-198/src/backend/contracts/SetupBlockchain.sol",
  "compiler": {
    "name": "solc",
    "version": "0.5.16+commit.9c3226ce.Emscripten.clang"
  },
  "schemaVersion": "3.2.0",
  "updatedAt": "2020-06-08T00:51:46.787Z",
  "networkType": "ethereum",
  "devdoc": {
    "methods": {}
  },
  "userdoc": {
    "methods": {}
  }
}