{
  "contractName": "SetupBlockchain",
  "abi": [
    {
      "inputs": [],
      "payable": false,
      "stateMutability": "nonpayable",
      "type": "constructor"
    },
    {
      "anonymous": false,
      "inputs": [
        {
          "indexed": false,
          "internalType": "string",
          "name": "name",
          "type": "string"
        },
        {
          "indexed": false,
          "internalType": "address",
          "name": "candidateAddress",
          "type": "address"
        },
        {
          "indexed": false,
          "internalType": "uint16",
          "name": "position",
          "type": "uint16"
        }
      ],
      "name": "CandidatesCreated",
      "type": "event"
    },
    {
      "anonymous": false,
      "inputs": [
        {
          "indexed": false,
          "internalType": "address",
          "name": "RegistrationAddress",
          "type": "address"
        }
      ],
      "name": "RegistrationLinked",
      "type": "event"
    },
    {
      "anonymous": false,
      "inputs": [
        {
          "indexed": false,
          "internalType": "string",
          "name": "name",
          "type": "string"
        },
        {
          "indexed": false,
          "internalType": "address",
          "name": "tokenAddress",
          "type": "address"
        },
        {
          "indexed": false,
          "internalType": "uint256",
          "name": "amountPerVoter",
          "type": "uint256"
        },
        {
          "indexed": false,
          "internalType": "uint16",
          "name": "position",
          "type": "uint16"
        }
      ],
      "name": "TokensCreated",
      "type": "event"
    },
    {
      "constant": true,
      "inputs": [
        {
          "internalType": "uint256",
          "name": "",
          "type": "uint256"
        }
      ],
      "name": "votingTokenlist",
      "outputs": [
        {
          "internalType": "string",
          "name": "name",
          "type": "string"
        },
        {
          "internalType": "address",
          "name": "tokenAddress",
          "type": "address"
        },
        {
          "internalType": "uint256",
          "name": "amountPerVoter",
          "type": "uint256"
        },
        {
          "internalType": "uint16",
          "name": "position",
          "type": "uint16"
        }
      ],
      "payable": false,
      "stateMutability": "view",
      "type": "function"
    },
    {
      "constant": false,
      "inputs": [
        {
          "internalType": "string[]",
          "name": "_name",
          "type": "string[]"
        },
        {
          "internalType": "string[]",
          "name": "_symbol",
          "type": "string[]"
        },
        {
          "internalType": "uint256[]",
          "name": "_amountPerVoter",
          "type": "uint256[]"
        },
        {
          "internalType": "uint16[]",
          "name": "_position",
          "type": "uint16[]"
        }
      ],
      "name": "createToken",
      "outputs": [],
      "payable": false,
      "stateMutability": "nonpayable",
      "type": "function"
    },
    {
      "constant": false,
      "inputs": [
        {
          "internalType": "address",
          "name": "_address",
          "type": "address"
        }
      ],
      "name": "setReg",
      "outputs": [],
      "payable": false,
      "stateMutability": "nonpayable",
      "type": "function"
    },
    {
      "constant": false,
      "inputs": [
        {
          "components": [
            {
              "internalType": "string",
              "name": "name",
              "type": "string"
            },
            {
              "internalType": "address",
              "name": "candidateAddress",
              "type": "address"
            },
            {
              "internalType": "uint16",
              "name": "position",
              "type": "uint16"
            }
          ],
          "internalType": "struct SetupBlockchain.candidate[]",
          "name": "_Candidates",
          "type": "tuple[]"
        },
        {
          "internalType": "string",
          "name": "_district",
          "type": "string"
        }
      ],
      "name": "addCandidates",
      "outputs": [],
      "payable": false,
      "stateMutability": "nonpayable",
      "type": "function"
    },
    {
      "constant": false,
      "inputs": [
        {
          "internalType": "string",
          "name": "_district",
          "type": "string"
        }
      ],
      "name": "createBallot",
      "outputs": [],
      "payable": false,
      "stateMutability": "nonpayable",
      "type": "function"
    },
    {
      "constant": true,
      "inputs": [
        {
          "internalType": "string",
          "name": "_district",
          "type": "string"
        }
      ],
      "name": "getBallot",
      "outputs": [
        {
          "internalType": "address",
          "name": "_ballotAddress",
          "type": "address"
        }
      ],
      "payable": false,
      "stateMutability": "view",
      "type": "function"
    },
    {
      "constant": false,
      "inputs": [],
      "name": "allotToken",
      "outputs": [],
      "payable": false,
      "stateMutability": "nonpayable",
      "type": "function"
    },
    {
      "constant": false,
      "inputs": [
        {
          "internalType": "string",
          "name": "_districts",
          "type": "string"
        },
        {
          "internalType": "uint16",
          "name": "_position",
          "type": "uint16"
        }
      ],
      "name": "getResult",
      "outputs": [
        {
          "components": [
            {
              "components": [
                {
                  "internalType": "string",
                  "name": "name",
                  "type": "string"
                },
                {
                  "internalType": "address",
                  "name": "candidateAddress",
                  "type": "address"
                },
                {
                  "internalType": "uint16",
                  "name": "position",
                  "type": "uint16"
                }
              ],
              "internalType": "struct SetupBlockchain.candidate",
              "name": "Candidates",
              "type": "tuple"
            },
            {
              "internalType": "uint256",
              "name": "votes",
              "type": "uint256"
            }
          ],
          "internalType": "struct SetupBlockchain.results",
          "name": "_Array",
          "type": "tuple"
        }
      ],
      "payable": false,
      "stateMutability": "nonpayable",
      "type": "function"
    }
  ],
  "bytecode": "0x608060405234801561001057600080fd5b50336000806101000a81548173ffffffffffffffffffffffffffffffffffffffff021916908373ffffffffffffffffffffffffffffffffffffffff160217905550614119806100606000396000f3fe60806040523480156200001157600080fd5b5060043610620000945760003560e01c806397aab362116200006357806397aab362146200011b578063c428b787146200013b578063d83845e6146200015b578063e048b0f414620001945762000094565b806334c1e0d2146200009957806346a8657614620000cf57806365ceffc114620000ef5780638dbc899214620000fb575b600080fd5b620000b76004803603620000b1919081019062001e18565b620001ca565b604051620000c6919062002478565b60405180910390f35b620000ed6004803603620000e7919081019062001e18565b62000217565b005b620000f962000373565b005b62000119600480360362000113919081019062001da5565b620004fa565b005b62000139600480360362000133919081019062001ca9565b6200078b565b005b62000159600480360362000153919081019062001cd5565b6200089a565b005b62000179600480360362000173919081019062001eb7565b62000b6e565b6040516200018b949392919062002558565b60405180910390f35b620001b26004803603620001ac919081019062001e5d565b62000c76565b604051620001c191906200262b565b60405180910390f35b6000600382604051620001de91906200245f565b908152602001604051809103902060010160009054906101000a900473ffffffffffffffffffffffffffffffffffffffff169050919050565b6000809054906101000a900473ffffffffffffffffffffffffffffffffffffffff1673ffffffffffffffffffffffffffffffffffffffff163373ffffffffffffffffffffffffffffffffffffffff1614620002a9576040517f08c379a0000000000000000000000000000000000000000000000000000000008152600401620002a090620025e7565b60405180910390fd5b6000600382604051620002bd91906200245f565b9081526020016040518091039020600001600183604051620002df9062001749565b620002ed93929190620024c2565b604051809103906000f0801580156200030a573d6000803e3d6000fd5b509050806003836040516200032091906200245f565b908152602001604051809103902060010160006101000a81548173ffffffffffffffffffffffffffffffffffffffff021916908373ffffffffffffffffffffffffffffffffffffffff1602179055505050565b600260009054906101000a900473ffffffffffffffffffffffffffffffffffffffff1673ffffffffffffffffffffffffffffffffffffffff163373ffffffffffffffffffffffffffffffffffffffff161462000406576040517f08c379a0000000000000000000000000000000000000000000000000000000008152600401620003fd9062002609565b60405180910390fd5b60008090505b600180549050811015620004f757600181815481106200042857fe5b906000526020600020906004020160010160009054906101000a900473ffffffffffffffffffffffffffffffffffffffff1673ffffffffffffffffffffffffffffffffffffffff166340c10f1932600184815481106200048457fe5b9060005260206000209060040201600201546040518363ffffffff1660e01b8152600401620004b592919062002495565b600060405180830381600087803b158015620004d057600080fd5b505af1158015620004e5573d6000803e3d6000fd5b5050505080806001019150506200040c565b50565b6000809054906101000a900473ffffffffffffffffffffffffffffffffffffffff1673ffffffffffffffffffffffffffffffffffffffff163373ffffffffffffffffffffffffffffffffffffffff16146200058c576040517f08c379a00000000000000000000000000000000000000000000000000000000081526004016200058390620025e7565b60405180910390fd5b60008090505b82518110156200078657600382604051620005ae91906200245f565b90815260200160405180910390206000016040518060600160405280858481518110620005d757fe5b6020026020010151600001518152602001858481518110620005f557fe5b60200260200101516020015173ffffffffffffffffffffffffffffffffffffffff1681526020018584815181106200062957fe5b60200260200101516040015161ffff168152509080600181540180825580915050906001820390600052602060002090600202016000909192909190915060008201518160000190805190602001906200068592919062001757565b5060208201518160010160006101000a81548173ffffffffffffffffffffffffffffffffffffffff021916908373ffffffffffffffffffffffffffffffffffffffff16021790555060408201518160010160146101000a81548161ffff021916908361ffff1602179055505050507fa2f0400787b265d4b86a6acac281e6b26ea52219aec79272e84f48232ad796d88382815181106200072157fe5b6020026020010151600001518483815181106200073a57fe5b6020026020010151602001518584815181106200075357fe5b602002602001015160400151604051620007709392919062002514565b60405180910390a1808060010191505062000592565b505050565b6000809054906101000a900473ffffffffffffffffffffffffffffffffffffffff1673ffffffffffffffffffffffffffffffffffffffff163373ffffffffffffffffffffffffffffffffffffffff16146200081d576040517f08c379a00000000000000000000000000000000000000000000000000000000081526004016200081490620025e7565b60405180910390fd5b80600260006101000a81548173ffffffffffffffffffffffffffffffffffffffff021916908373ffffffffffffffffffffffffffffffffffffffff1602179055507f787e0efc297163fab495de1396fe0ac98270303a3e16dc58d3b5d640eaa8b96a816040516200088f919062002478565b60405180910390a150565b6000809054906101000a900473ffffffffffffffffffffffffffffffffffffffff1673ffffffffffffffffffffffffffffffffffffffff163373ffffffffffffffffffffffffffffffffffffffff16146200092c576040517f08c379a00000000000000000000000000000000000000000000000000000000081526004016200092390620025e7565b60405180910390fd5b60008090505b845181101562000b675760008582815181106200094b57fe5b60200260200101518583815181106200096057fe5b60200260200101516040516200097690620017de565b62000983929190620025ac565b604051809103906000f080158015620009a0573d6000803e3d6000fd5b50905060016040518060800160405280888581518110620009bd57fe5b602002602001015181526020018373ffffffffffffffffffffffffffffffffffffffff168152602001868581518110620009f357fe5b6020026020010151815260200185858151811062000a0d57fe5b602002602001015161ffff1681525090806001815401808255809150509060018203906000526020600020906004020160009091929091909150600082015181600001908051906020019062000a6592919062001757565b5060208201518160010160006101000a81548173ffffffffffffffffffffffffffffffffffffffff021916908373ffffffffffffffffffffffffffffffffffffffff1602179055506040820151816002015560608201518160030160006101000a81548161ffff021916908361ffff1602179055505050507f7c6111624971e29aa8ae61b8ec7586fcaede6c4c6dcbb6fee801a6022d8ab03c86838151811062000b0b57fe5b60200260200101518286858151811062000b2157fe5b602002602001015186868151811062000b3657fe5b602002602001015160405162000b50949392919062002558565b60405180910390a150808060010191505062000932565b5050505050565b6001818154811062000b7c57fe5b9060005260206000209060040201600091509050806000018054600181600116156101000203166002900480601f01602080910402602001604051908101604052809291908181526020018280546001816001161561010002031660029004801562000c2c5780601f1062000c005761010080835404028352916020019162000c2c565b820191906000526020600020905b81548152906001019060200180831162000c0e57829003601f168201915b5050505050908060010160009054906101000a900473ffffffffffffffffffffffffffffffffffffffff16908060020154908060030160009054906101000a900461ffff16905084565b62000c80620017ec565b60008090505b60038460405162000c9891906200245f565b90815260200160405180910390206000018054905081101562000f3b576004604051806060016040528060038760405162000cd491906200245f565b9081526020016040518091039020600001848154811062000cf157fe5b90600052602060002090600202016000018054600181600116156101000203166002900480601f01602080910402602001604051908101604052809291908181526020018280546001816001161561010002031660029004801562000d9a5780601f1062000d6e5761010080835404028352916020019162000d9a565b820191906000526020600020905b81548152906001019060200180831162000d7c57829003601f168201915b5050505050815260200160038760405162000db691906200245f565b9081526020016040518091039020600001848154811062000dd357fe5b906000526020600020906002020160010160009054906101000a900473ffffffffffffffffffffffffffffffffffffffff1673ffffffffffffffffffffffffffffffffffffffff16815260200160038760405162000e3291906200245f565b9081526020016040518091039020600001848154811062000e4f57fe5b906000526020600020906002020160010160149054906101000a900461ffff1661ffff1681525090806001815401808255809150509060018203906000526020600020906002020160009091929091909150600082015181600001908051906020019062000ebf92919062001757565b5060208201518160010160006101000a81548173ffffffffffffffffffffffffffffffffffffffff021916908373ffffffffffffffffffffffffffffffffffffffff16021790555060408201518160010160146101000a81548161ffff021916908361ffff160217905550505050808060010191505062000c86565b5060008090505b600480549050811015620011e35760018361ffff168154811062000f6257fe5b906000526020600020906004020160030160009054906101000a900461ffff1661ffff166004828154811062000f9457fe5b906000526020600020906002020160010160149054906101000a900461ffff1661ffff161415620011d557600560405180606001604052806004848154811062000fda57fe5b90600052602060002090600202016000018054600181600116156101000203166002900480601f016020809104026020016040519081016040528092919081815260200182805460018160011615610100020316600290048015620010835780601f10620010575761010080835404028352916020019162001083565b820191906000526020600020905b8154815290600101906020018083116200106557829003601f168201915b50505050508152602001600484815481106200109b57fe5b906000526020600020906002020160010160009054906101000a900473ffffffffffffffffffffffffffffffffffffffff1673ffffffffffffffffffffffffffffffffffffffff16815260200160048481548110620010f657fe5b906000526020600020906002020160010160149054906101000a900461ffff1661ffff168152509080600181540180825580915050906001820390600052602060002090600202016000909192909190915060008201518160000190805190602001906200116692919062001757565b5060208201518160010160006101000a81548173ffffffffffffffffffffffffffffffffffffffff021916908373ffffffffffffffffffffffffffffffffffffffff16021790555060408201518160010160146101000a81548161ffff021916908361ffff1602179055505050505b808060010191505062000f42565b5060008090505b600580549050811015620014175760018361ffff16815481106200120a57fe5b906000526020600020906004020160010160009054906101000a900473ffffffffffffffffffffffffffffffffffffffff1673ffffffffffffffffffffffffffffffffffffffff166370a08231600583815481106200126557fe5b906000526020600020906002020160010160009054906101000a900473ffffffffffffffffffffffffffffffffffffffff166040518263ffffffff1660e01b8152600401620012b5919062002478565b60206040518083038186803b158015620012ce57600080fd5b505afa158015620012e3573d6000803e3d6000fd5b505050506040513d601f19601f8201168201806040525062001309919081019062001ee3565b600b81905550600c54600b5411156200140957600b54600c81905550600581815481106200133357fe5b90600052602060002090600202016006600082018160000190805460018160011615610100020316600290046200136c9291906200180e565b506001820160009054906101000a900473ffffffffffffffffffffffffffffffffffffffff168160010160006101000a81548173ffffffffffffffffffffffffffffffffffffffff021916908373ffffffffffffffffffffffffffffffffffffffff1602179055506001820160149054906101000a900461ffff168160010160146101000a81548161ffff021916908361ffff1602179055509050505b8080600101915050620011ea565b5060405180604001604052806006604051806060016040529081600082018054600181600116156101000203166002900480601f016020809104026020016040519081016040528092919081815260200182805460018160011615610100020316600290048015620014cd5780601f10620014a157610100808354040283529160200191620014cd565b820191906000526020600020905b815481529060010190602001808311620014af57829003601f168201915b505050505081526020016001820160009054906101000a900473ffffffffffffffffffffffffffffffffffffffff1673ffffffffffffffffffffffffffffffffffffffff1673ffffffffffffffffffffffffffffffffffffffff1681526020016001820160149054906101000a900461ffff1661ffff1661ffff16815250508152602001600c54815250600860008201518160000160008201518160000190805190602001906200158092919062001757565b5060208201518160010160006101000a81548173ffffffffffffffffffffffffffffffffffffffff021916908373ffffffffffffffffffffffffffffffffffffffff16021790555060408201518160010160146101000a81548161ffff021916908361ffff160217905550505060208201518160020155905050600860405180604001604052908160008201604051806060016040529081600082018054600181600116156101000203166002900480601f016020809104026020016040519081016040528092919081815260200182805460018160011615610100020316600290048015620016b45780601f106200168857610100808354040283529160200191620016b4565b820191906000526020600020905b8154815290600101906020018083116200169657829003601f168201915b505050505081526020016001820160009054906101000a900473ffffffffffffffffffffffffffffffffffffffff1673ffffffffffffffffffffffffffffffffffffffff1673ffffffffffffffffffffffffffffffffffffffff1681526020016001820160149054906101000a900461ffff1661ffff1661ffff16815250508152602001600282015481525050905092915050565b610ddf8062002a4683390190565b828054600181600116156101000203166002900490600052602060002090601f016020900481019282601f106200179a57805160ff1916838001178555620017cb565b82800160010185558215620017cb579182015b82811115620017ca578251825591602001919060010190620017ad565b5b509050620017da91906200189c565b5090565b6108b2806200382583390190565b604051806040016040528062001801620018c4565b8152602001600081525090565b828054600181600116156101000203166002900490600052602060002090601f016020900481019282601f1062001849578054855562001889565b828001600101855582156200188957600052602060002091601f016020900482015b82811115620018885782548255916001019190600101906200186b565b5b5090506200189891906200189c565b5090565b620018c191905b80821115620018bd576000816000905550600101620018a3565b5090565b90565b604051806060016040528060608152602001600073ffffffffffffffffffffffffffffffffffffffff168152602001600061ffff1681525090565b6000813590506200191081620029f7565b92915050565b600082601f8301126200192857600080fd5b81356200193f62001939826200267d565b6200264f565b9150818183526020840193506020810190508360005b838110156200198957813586016200196e888262001b2a565b84526020840193506020830192505060018101905062001955565b5050505092915050565b600082601f830112620019a557600080fd5b8135620019bc620019b682620026a6565b6200264f565b9150818183526020840193506020810190508360005b8381101562001a065781358601620019eb888262001be2565b845260208401935060208301925050600181019050620019d2565b5050505092915050565b600082601f83011262001a2257600080fd5b813562001a3962001a3382620026cf565b6200264f565b9150818183526020840193506020810190508385602084028201111562001a5f57600080fd5b60005b8381101562001a93578162001a78888262001c64565b84526020840193506020830192505060018101905062001a62565b5050505092915050565b600082601f83011262001aaf57600080fd5b813562001ac662001ac082620026f8565b6200264f565b9150818183526020840193506020810190508385602084028201111562001aec57600080fd5b60005b8381101562001b20578162001b05888262001c7b565b84526020840193506020830192505060018101905062001aef565b5050505092915050565b600082601f83011262001b3c57600080fd5b813562001b5362001b4d8262002721565b6200264f565b9150808252602083016020830185838301111562001b7057600080fd5b62001b7d8382846200290f565b50505092915050565b600082601f83011262001b9857600080fd5b813562001baf62001ba9826200274e565b6200264f565b9150808252602083016020830185838301111562001bcc57600080fd5b62001bd98382846200290f565b50505092915050565b60006060828403121562001bf557600080fd5b62001c0160606200264f565b9050600082013567ffffffffffffffff81111562001c1e57600080fd5b62001c2c8482850162001b2a565b600083015250602062001c4284828501620018ff565b602083015250604062001c588482850162001c64565b60408301525092915050565b60008135905062001c758162002a11565b92915050565b60008135905062001c8c8162002a2b565b92915050565b60008151905062001ca38162002a2b565b92915050565b60006020828403121562001cbc57600080fd5b600062001ccc84828501620018ff565b91505092915050565b6000806000806080858703121562001cec57600080fd5b600085013567ffffffffffffffff81111562001d0757600080fd5b62001d158782880162001916565b945050602085013567ffffffffffffffff81111562001d3357600080fd5b62001d418782880162001916565b935050604085013567ffffffffffffffff81111562001d5f57600080fd5b62001d6d8782880162001a9d565b925050606085013567ffffffffffffffff81111562001d8b57600080fd5b62001d998782880162001a10565b91505092959194509250565b6000806040838503121562001db957600080fd5b600083013567ffffffffffffffff81111562001dd457600080fd5b62001de28582860162001993565b925050602083013567ffffffffffffffff81111562001e0057600080fd5b62001e0e8582860162001b86565b9150509250929050565b60006020828403121562001e2b57600080fd5b600082013567ffffffffffffffff81111562001e4657600080fd5b62001e548482850162001b86565b91505092915050565b6000806040838503121562001e7157600080fd5b600083013567ffffffffffffffff81111562001e8c57600080fd5b62001e9a8582860162001b86565b925050602062001ead8582860162001c64565b9150509250929050565b60006020828403121562001eca57600080fd5b600062001eda8482850162001c7b565b91505092915050565b60006020828403121562001ef657600080fd5b600062001f068482850162001c92565b91505092915050565b600062001f1d8383620022dd565b905092915050565b600062001f33838362002388565b905092915050565b62001f4681620028d3565b82525050565b62001f578162002887565b82525050565b62001f688162002887565b82525050565b600062001f7b82620027ba565b62001f87818562002800565b93508360208202850162001f9b856200277b565b8060005b8581101562001fdc5784840389528162001fba858262001f0f565b945062001fc783620027e6565b925060208a0199505060018101905062001f9f565b50829750879550505050505092915050565b600062001ffb82620027c5565b62002007818562002811565b9350836020820285016200201b8562002790565b8060005b858110156200205c578484038952816200203a858262001f25565b94506200204783620027f3565b925060208a019950506001810190506200201f565b50829750879550505050505092915050565b60006200207b82620027db565b62002087818562002833565b9350620020998185602086016200291e565b620020a481620029cc565b840191505092915050565b6000620020bc82620027db565b620020c8818562002844565b9350620020da8185602086016200291e565b80840191505092915050565b6000620020f382620027d0565b620020ff818562002822565b9350620021118185602086016200291e565b6200211c81620029cc565b840191505092915050565b60006200213482620027d0565b62002140818562002833565b9350620021528185602086016200291e565b6200215d81620029cc565b840191505092915050565b600081546001811660008114620021885760018114620021b157620021fb565b607f60028304166200219b818762002822565b955060ff198316865260208601935050620021fb565b60028204620021c1818762002822565b9550620021ce85620027a5565b60005b82811015620021f257815481890152600182019150602081019050620021d1565b80880195505050505b505092915050565b60006200221260138362002833565b91507f556e617574686f72697a656420416363657373000000000000000000000000006000830152602082019050919050565b60006200225460148362002833565b91507f556e617574686f72697a656420616363657373210000000000000000000000006000830152602082019050919050565b60006060830160008301518482036000860152620022a68282620020e6565b9150506020830151620022bd602086018262001f4c565b506040830151620022d260408601826200241b565b508091505092915050565b60006060830160008084018583036000870152620022fc838262002168565b92505060018401549050620023118162002954565b62002320602087018262001f4c565b506200232c81620029ae565b6200233b60408701826200241b565b50819250505092915050565b6000604083016000830151848203600086015262002366828262002287565b91505060208301516200237d60208601826200243d565b508091505092915050565b60006080830160008084018583036000870152620023a7838262002168565b92505060018401549050620023bc8162002954565b620023cb602087018262001f4c565b5060028401549050620023de8162002990565b620023ed60408701826200243d565b5060038401549050620024008162002972565b6200240f60608701826200241b565b50819250505092915050565b62002426816200289b565b82525050565b62002437816200289b565b82525050565b6200244881620028c9565b82525050565b6200245981620028c9565b82525050565b60006200246d8284620020af565b915081905092915050565b60006020820190506200248f600083018462001f5d565b92915050565b6000604082019050620024ac600083018562001f3b565b620024bb60208301846200244e565b9392505050565b60006060820190508181036000830152620024de818662001f6e565b90508181036020830152620024f4818562001fee565b905081810360408301526200250a81846200206e565b9050949350505050565b6000606082019050818103600083015262002530818662002127565b905062002541602083018562001f5d565b6200255060408301846200242c565b949350505050565b6000608082019050818103600083015262002574818762002127565b905062002585602083018662001f5d565b6200259460408301856200244e565b620025a360608301846200242c565b95945050505050565b60006040820190508181036000830152620025c8818562002127565b90508181036020830152620025de818462002127565b90509392505050565b60006020820190508181036000830152620026028162002203565b9050919050565b60006020820190508181036000830152620026248162002245565b9050919050565b6000602082019050818103600083015262002647818462002347565b905092915050565b6000604051905081810181811067ffffffffffffffff821117156200267357600080fd5b8060405250919050565b600067ffffffffffffffff8211156200269557600080fd5b602082029050602081019050919050565b600067ffffffffffffffff821115620026be57600080fd5b602082029050602081019050919050565b600067ffffffffffffffff821115620026e757600080fd5b602082029050602081019050919050565b600067ffffffffffffffff8211156200271057600080fd5b602082029050602081019050919050565b600067ffffffffffffffff8211156200273957600080fd5b601f19601f8301169050602081019050919050565b600067ffffffffffffffff8211156200276657600080fd5b601f19601f8301169050602081019050919050565b60008190508160005260206000209050919050565b60008190508160005260206000209050919050565b60008190508160005260206000209050919050565b600081549050919050565b600081549050919050565b600081519050919050565b600081519050919050565b6000600282019050919050565b6000600482019050919050565b600082825260208201905092915050565b600082825260208201905092915050565b600082825260208201905092915050565b600082825260208201905092915050565b600081905092915050565b600073ffffffffffffffffffffffffffffffffffffffff82169050919050565b600061ffff82169050919050565b6000819050919050565b60006200289482620028a9565b9050919050565b600061ffff82169050919050565b600073ffffffffffffffffffffffffffffffffffffffff82169050919050565b6000819050919050565b6000620028e082620028e7565b9050919050565b6000620028f482620028fb565b9050919050565b60006200290882620028a9565b9050919050565b82818337600083830152505050565b60005b838110156200293e57808201518184015260208101905062002921565b838111156200294e576000848401525b50505050565b60006200296b6200296583620029dd565b6200284f565b9050919050565b6000620029896200298383620029dd565b6200286f565b9050919050565b6000620029a7620029a183620029dd565b6200287d565b9050919050565b6000620029c5620029bf83620029ea565b6200286f565b9050919050565b6000601f19601f8301169050919050565b60008160001c9050919050565b60008160a01c9050919050565b62002a028162002887565b811462002a0e57600080fd5b50565b62002a1c816200289b565b811462002a2857600080fd5b50565b62002a3681620028c9565b811462002a4257600080fd5b5056fe60806040523480156200001157600080fd5b5060405162000ddf38038062000ddf8339818101604052620000379190810190620006f0565b336000806101000a81548173ffffffffffffffffffffffffffffffffffffffff021916908373ffffffffffffffffffffffffffffffffffffffff16021790555080600190805190602001906200008f929190620002a9565b5060008090505b8351811015620001e45760026040518060600160405280868481518110620000ba57fe5b6020026020010151600001518152602001868481518110620000d857fe5b60200260200101516020015173ffffffffffffffffffffffffffffffffffffffff1681526020018684815181106200010c57fe5b60200260200101516040015161ffff168152509080600181540180825580915050906001820390600052602060002090600202016000909192909190915060008201518160000190805190602001906200016892919062000330565b5060208201518160010160006101000a81548173ffffffffffffffffffffffffffffffffffffffff021916908373ffffffffffffffffffffffffffffffffffffffff16021790555060408201518160010160146101000a81548161ffff021916908361ffff160217905550505050808060010191505062000096565b5060008090505b82518161ffff1610156200029f576000838261ffff16815181106200020c57fe5b6020026020010151606001519050838261ffff16815181106200022b57fe5b602002602001015160200151600360008361ffff1661ffff16815260200190815260200160002060006101000a81548173ffffffffffffffffffffffffffffffffffffffff021916908373ffffffffffffffffffffffffffffffffffffffff160217905550508080600101915050620001eb565b505050506200093b565b828054600181600116156101000203166002900490600052602060002090601f016020900481019282601f10620002ec57805160ff19168380011785556200031d565b828001600101855582156200031d579182015b828111156200031c578251825591602001919060010190620002ff565b5b5090506200032c9190620003b7565b5090565b828054600181600116156101000203166002900490600052602060002090601f016020900481019282601f106200037357805160ff1916838001178555620003a4565b82800160010185558215620003a4579182015b82811115620003a357825182559160200191906001019062000386565b5b509050620003b39190620003b7565b5090565b620003dc91905b80821115620003d8576000816000905550600101620003be565b5090565b90565b600081519050620003f081620008ed565b92915050565b600082601f8301126200040857600080fd5b81516200041f6200041982620007bf565b62000791565b9150818183526020840193506020810190508360005b838110156200046957815186016200044e8882620005a8565b84526020840193506020830192505060018101905062000435565b5050505092915050565b600082601f8301126200048557600080fd5b81516200049c6200049682620007e8565b62000791565b9150818183526020840193506020810190508360005b83811015620004e65781518601620004cb88826200062a565b845260208401935060208301925050600181019050620004b2565b5050505092915050565b600082601f8301126200050257600080fd5b815162000519620005138262000811565b62000791565b915080825260208301602083018583830111156200053657600080fd5b62000543838284620008b7565b50505092915050565b600082601f8301126200055e57600080fd5b8151620005756200056f826200083e565b62000791565b915080825260208301602083018583830111156200059257600080fd5b6200059f838284620008b7565b50505092915050565b600060608284031215620005bb57600080fd5b620005c7606062000791565b9050600082015167ffffffffffffffff811115620005e457600080fd5b620005f284828501620004f0565b60008301525060206200060884828501620003df565b60208301525060406200061e84828501620006c2565b60408301525092915050565b6000608082840312156200063d57600080fd5b62000649608062000791565b9050600082015167ffffffffffffffff8111156200066657600080fd5b6200067484828501620004f0565b60008301525060206200068a84828501620003df565b6020830152506040620006a084828501620006d9565b6040830152506060620006b684828501620006c2565b60608301525092915050565b600081519050620006d38162000907565b92915050565b600081519050620006ea8162000921565b92915050565b6000806000606084860312156200070657600080fd5b600084015167ffffffffffffffff8111156200072157600080fd5b6200072f86828701620003f6565b935050602084015167ffffffffffffffff8111156200074d57600080fd5b6200075b8682870162000473565b925050604084015167ffffffffffffffff8111156200077957600080fd5b62000787868287016200054c565b9150509250925092565b6000604051905081810181811067ffffffffffffffff82111715620007b557600080fd5b8060405250919050565b600067ffffffffffffffff821115620007d757600080fd5b602082029050602081019050919050565b600067ffffffffffffffff8211156200080057600080fd5b602082029050602081019050919050565b600067ffffffffffffffff8211156200082957600080fd5b601f19601f8301169050602081019050919050565b600067ffffffffffffffff8211156200085657600080fd5b601f19601f8301169050602081019050919050565b600062000878826200088d565b9050919050565b600061ffff82169050919050565b600073ffffffffffffffffffffffffffffffffffffffff82169050919050565b6000819050919050565b60005b83811015620008d7578082015181840152602081019050620008ba565b83811115620008e7576000848401525b50505050565b620008f8816200086b565b81146200090457600080fd5b50565b62000912816200087f565b81146200091e57600080fd5b50565b6200092c81620008ad565b81146200093857600080fd5b50565b610494806200094b6000396000f3fe608060405234801561001057600080fd5b506004361061002b5760003560e01c8063d04fbd7a14610030575b600080fd5b61004a6004803603610045919081019061028b565b61004c565b005b60008090505b82518110156101c45760036000600285848151811061006d57fe5b60200260200101518154811061007f57fe5b906000526020600020906002020160010160149054906101000a900461ffff1661ffff1661ffff16815260200190815260200160002060009054906101000a900473ffffffffffffffffffffffffffffffffffffffff1673ffffffffffffffffffffffffffffffffffffffff1663beabacc883600286858151811061010057fe5b60200260200101518154811061011257fe5b906000526020600020906002020160010160009054906101000a900473ffffffffffffffffffffffffffffffffffffffff1660016040518463ffffffff1660e01b815260040161016493929190610326565b602060405180830381600087803b15801561017e57600080fd5b505af1158015610192573d6000803e3d6000fd5b505050506040513d601f19601f820116820180604052506101b691908101906102df565b508080600101915050610052565b505050565b6000813590506101d88161040c565b92915050565b600082601f8301126101ef57600080fd5b81356102026101fd8261038a565b61035d565b9150818183526020840193506020810190508385602084028201111561022757600080fd5b60005b83811015610257578161023d8882610276565b84526020840193506020830192505060018101905061022a565b5050505092915050565b60008151905061027081610423565b92915050565b6000813590506102858161043a565b92915050565b6000806040838503121561029e57600080fd5b600083013567ffffffffffffffff8111156102b857600080fd5b6102c4858286016101de565b92505060206102d5858286016101c9565b9150509250929050565b6000602082840312156102f157600080fd5b60006102ff84828501610261565b91505092915050565b610311816103b2565b82525050565b610320816103fa565b82525050565b600060608201905061033b6000830186610308565b6103486020830185610308565b6103556040830184610317565b949350505050565b6000604051905081810181811067ffffffffffffffff8211171561038057600080fd5b8060405250919050565b600067ffffffffffffffff8211156103a157600080fd5b602082029050602081019050919050565b60006103bd826103d0565b9050919050565b60008115159050919050565b600073ffffffffffffffffffffffffffffffffffffffff82169050919050565b6000819050919050565b6000610405826103f0565b9050919050565b610415816103b2565b811461042057600080fd5b50565b61042c816103c4565b811461043757600080fd5b50565b610443816103f0565b811461044e57600080fd5b5056fea365627a7a72315820df0ef71e575e7bf43edc62900d94570641df2de47d3f0e0d3ec263a4b1878e7c6c6578706572696d656e74616cf564736f6c63430005100040608060405234801561001057600080fd5b506040516108b23803806108b28339818101604052604081101561003357600080fd5b810190808051604051939291908464010000000082111561005357600080fd5b8382019150602082018581111561006957600080fd5b825186600182028301116401000000008211171561008657600080fd5b8083526020830192505050908051906020019080838360005b838110156100ba57808201518184015260208101905061009f565b50505050905090810190601f1680156100e75780820380516001836020036101000a031916815260200191505b506040526020018051604051939291908464010000000082111561010a57600080fd5b8382019150602082018581111561012057600080fd5b825186600182028301116401000000008211171561013d57600080fd5b8083526020830192505050908051906020019080838360005b83811015610171578082015181840152602081019050610156565b50505050905090810190601f16801561019e5780820380516001836020036101000a031916815260200191505b50604052505050336000806101000a81548173ffffffffffffffffffffffffffffffffffffffff021916908373ffffffffffffffffffffffffffffffffffffffff16021790555081600190805190602001906101fb92919061021a565b50806002908051906020019061021292919061021a565b5050506102bf565b828054600181600116156101000203166002900490600052602060002090601f016020900481019282601f1061025b57805160ff1916838001178555610289565b82800160010185558215610289579182015b8281111561028857825182559160200191906001019061026d565b5b509050610296919061029a565b5090565b6102bc91905b808211156102b85760008160009055506001016102a0565b5090565b90565b6105e4806102ce6000396000f3fe608060405234801561001057600080fd5b506004361061004c5760003560e01c806340c10f191461005157806370a082311461009f578063beabacc8146100f7578063e3d670d71461017d575b600080fd5b61009d6004803603604081101561006757600080fd5b81019080803573ffffffffffffffffffffffffffffffffffffffff169060200190929190803590602001909291905050506101d5565b005b6100e1600480360360208110156100b557600080fd5b81019080803573ffffffffffffffffffffffffffffffffffffffff169060200190929190505050610313565b6040518082815260200191505060405180910390f35b6101636004803603606081101561010d57600080fd5b81019080803573ffffffffffffffffffffffffffffffffffffffff169060200190929190803573ffffffffffffffffffffffffffffffffffffffff1690602001909291908035906020019092919050505061035c565b604051808215151515815260200191505060405180910390f35b6101bf6004803603602081101561019357600080fd5b81019080803573ffffffffffffffffffffffffffffffffffffffff169060200190929190505050610568565b6040518082815260200191505060405180910390f35b6000809054906101000a900473ffffffffffffffffffffffffffffffffffffffff1673ffffffffffffffffffffffffffffffffffffffff163373ffffffffffffffffffffffffffffffffffffffff161461027a576040517f08c379a000000000000000000000000000000000000000000000000000000000815260040180806020018281038252602f815260200180610581602f913960400191505060405180910390fd5b80600460008473ffffffffffffffffffffffffffffffffffffffff1673ffffffffffffffffffffffffffffffffffffffff1681526020019081526020016000205401600460008473ffffffffffffffffffffffffffffffffffffffff1673ffffffffffffffffffffffffffffffffffffffff16815260200190815260200160002081905550806003600082825401925050819055505050565b6000600460008373ffffffffffffffffffffffffffffffffffffffff1673ffffffffffffffffffffffffffffffffffffffff168152602001908152602001600020549050919050565b600081600460008673ffffffffffffffffffffffffffffffffffffffff1673ffffffffffffffffffffffffffffffffffffffff168152602001908152602001600020541015610413576040517f08c379a00000000000000000000000000000000000000000000000000000000081526004018080602001828103825260138152602001807f496e737566696369656e742042616c616e63650000000000000000000000000081525060200191505060405180910390fd5b826000806101000a81548173ffffffffffffffffffffffffffffffffffffffff021916908373ffffffffffffffffffffffffffffffffffffffff16021790555081600460008673ffffffffffffffffffffffffffffffffffffffff1673ffffffffffffffffffffffffffffffffffffffff1681526020019081526020016000205403600460008673ffffffffffffffffffffffffffffffffffffffff1673ffffffffffffffffffffffffffffffffffffffff1681526020019081526020016000208190555081600460008573ffffffffffffffffffffffffffffffffffffffff1673ffffffffffffffffffffffffffffffffffffffff1681526020019081526020016000205401600460008573ffffffffffffffffffffffffffffffffffffffff1673ffffffffffffffffffffffffffffffffffffffff16815260200190815260200160002081905550600190509392505050565b6004602052806000526040600020600091509050548156fe596f7520646f206e6f742068617665207065726d697373696f6e20746f20616c6f7420766f74696e6720746f6b656ea265627a7a723158205c073cdb46ec4de16de64075948066e3c00af95033497f3407ce7ea4da29c53464736f6c63430005100032a365627a7a72315820ea38d2475f18eb6a344331741807a6506018702b341fc1e4b6e464f6fa985c306c6578706572696d656e74616cf564736f6c63430005100040",
  "source": "pragma solidity >=0.4.22 <0.7.0;\npragma experimental ABIEncoderV2;\n\nimport \"./voterToken.sol\";\nimport \"./Ballot.sol\";\nimport \"./Registration.sol\";\n\ncontract SetupBlockchain{\n    address private setupAdmin;\n    votingToken[] public votingTokenlist;\n    address private regAddress;\n    mapping (string => district) DistrictElection;\n\n    /*Results.sol*/\n    candidate[] district_candidates;\n    candidate[] competition_candidates;\n    candidate winner;\n    results candidateAndVote;\n    uint256 buffer;\n    uint256 max;\n\n    struct votingToken{\n        string name;\n        address tokenAddress;\n        uint256 amountPerVoter;\n        uint16 position;\n    }\n\n    struct candidate{\n        string name;\n        address candidateAddress;\n        uint16 position;\n    }\n    \n    struct district{\n        candidate[] Candidates;\n        address ballot;\n    }\n\n    struct results{\n        candidate Candidates;\n        uint256 votes;\n    }\n\n    event CandidatesCreated(\n        string name,\n        address candidateAddress,\n        uint16 position\n    );\n\n    event TokensCreated(\n        string name,\n        address tokenAddress,\n        uint256 amountPerVoter,\n        uint16 position\n    );\n\n    event RegistrationLinked(\n        address RegistrationAddress\n    );\n    \n    constructor() public{\n        setupAdmin = msg.sender;\n    }\n    \n    modifier administrative() {\n        require(msg.sender == setupAdmin,\"Unauthorized Access\");\n        _;\n    }\n    \n    function createToken (string[] memory _name,\n    string[] memory _symbol,\n    uint256[] memory _amountPerVoter,\n    uint16[] memory _position)\n    administrative public {\n        for(uint i = 0 ;i < _name.length;i++){\n            voterToken newToken = new voterToken(_name[i],_symbol[i]);\n            votingTokenlist.push(votingToken(\n                {name: _name[i],\n                tokenAddress: address(newToken),\n                amountPerVoter: _amountPerVoter[i],\n                position: _position[i]\n                }\n            ));\n            emit TokensCreated(_name[i],address(newToken),_amountPerVoter[i],_position[i]);\n        }\n    }\n    function setReg(address _address)administrative public{\n        regAddress = _address;\n        emit RegistrationLinked(_address);\n    }\n    function addCandidates(candidate[] memory _Candidates, string memory _district) administrative public{\n        for (uint i = 0; i < _Candidates.length;i++){\n            DistrictElection[_district].Candidates.push(candidate({\n                name: _Candidates[i].name,\n                candidateAddress: _Candidates[i].candidateAddress,\n                position: _Candidates[i].position\n            }));\n            emit CandidatesCreated(_Candidates[i].name,_Candidates[i].candidateAddress,_Candidates[i].position);\n        }\n    }\n    function createBallot(string memory _district) administrative public {\n        Ballot newBallot = new Ballot(DistrictElection[_district].Candidates,votingTokenlist,_district);\n        DistrictElection[_district].ballot = address(newBallot);\n    }\n    function getBallot(string memory _district) public view returns(address _ballotAddress){\n        return DistrictElection[_district].ballot;\n    }\n    function allotToken() public{\n        require(msg.sender == regAddress, \"Unauthorized access!\");\n        for(uint i = 0;i < votingTokenlist.length;i++){\n            voterToken(votingTokenlist[i].tokenAddress).mint(tx.origin, votingTokenlist[i].amountPerVoter);\n        }\n    }\n    \n    function getResult(string memory _districts, uint16 _position) public returns(results memory _Array){\n        //Get all candidates to a certain district\n        for(uint i = 0; i < DistrictElection[_districts].Candidates.length; i++){\n            district_candidates.push(candidate({\n                name: DistrictElection[_districts].Candidates[i].name,\n                candidateAddress: DistrictElection[_districts].Candidates[i].candidateAddress,\n                position: DistrictElection[_districts].Candidates[i].position\n            }));\n        }\n        //Get same position to a certain district\n        for(uint j = 0; j < district_candidates.length; j++){\n            if(district_candidates[j].position == votingTokenlist[_position].position){\n                competition_candidates.push(candidate({\n                    name: district_candidates[j].name,\n                    candidateAddress: district_candidates[j].candidateAddress,\n                    position: district_candidates[j].position\n                }));\n            }\n        }\n        //Compare Balance of all same position, same district candidates, and PIC winner\n        for(uint k = 0; k < competition_candidates.length; k++){\n            buffer = voterToken(votingTokenlist[_position].tokenAddress).balanceOf(competition_candidates[k].candidateAddress);\n            if(buffer > max){\n                max = buffer;\n                winner = competition_candidates[k];\n            }\n        }\n        candidateAndVote = results({\n            Candidates: winner,\n            votes:max\n        });\n        return candidateAndVote;\n    }\n}\n",
  "sourcePath": "/home/ryan/Desktop/CoE-198/src/backend/contracts/SetupBlockchain.sol",
  "compiler": {
    "name": "solc",
    "version": "0.5.16+commit.9c3226ce.Emscripten.clang"
  },
  "schemaVersion": "3.0.22",
  "updatedAt": "2020-06-02T13:30:14.266Z",
  "networkType": "ethereum",
  "devdoc": {
    "methods": {}
  },
  "userdoc": {
    "methods": {}
  }
}